:1000000040660020E143000059BE0000CD430000DF
:10001000CD430000CD430000CD43000000000000B0
:10002000000000000000000000000000BD440000CF
:10003000CD43000000000000AD460000CD430000AD
:100040002547000025470000254700002547000000
:1000500025470000254700002547000025470000F0
:1000600025470000254700002547000025470000E0
:1000700025470000254700002547000025470000D0
:1000800025470000254700002547000025470000C0
:1000900025470000254700002547000025470000B0
:1000A00025470000254700002547000025470000A0
:1000B0002547000025470000254700002547000090
:1000C0002547000025470000254700002547000080
:1000D0002547000025470000254700002547000070
:1000E0002547000025470000254700002547000060
:1000F0002547000025470000254700002547000050
:1001000070B491E87800B2E802105B1854EB0C046C
:10011000B2E802104D4156EB0C0680E878008041B1
:10012000013070BC704700BF70B491E87800B2E84D
:1001300002105B1A74EB0C04B2E802108D4176EBEE
:100140000C0680E878008041404270BC704700BFD8
:100150002DE9F00791E80017C0CAA8FB063440F863
:10016000043BA9FB0615E8FB6741EAFB665140F832
:10017000044BA9FB0743ECFB661344CAE8FB62543B
:10018000EAFB6714ECFB673440F8045BA9FB0275DB
:10019000EAFB6235ECFB6245E8FB6617E9FB663774
:1001A000EAFB6647ECFB6657BAC0BDE8F00770474C
:1001B0002DE9F00791E8F807B2E802105B1854EB5C
:1001C0000C04B2E802104D4156EB0C06B2E80210E6
:1001D0004F4158EB0C08B2E8021059EB01095AEBF9
:1001E0000C0A80E8F80780410130BDE8F00770474D
:1001F0002DE9F00791E8F807B2E802105B1A74EBFA
:100200000C04B2E802108D4176EB0C06B2E8021045
:100210008F4178EB0C08B2E8021079EB01097AEB18
:100220000C0A80E8F80780414042BDE8F0077047BB
:100230002DE9F007524290E87800B1E880071740B6
:10024000DB1918EA020854EB080419EA020955EB15
:1002500009051AEA020A56EB0A0678C090E8780007
:10026000B1E8800717407B4118EA020854EB080404
:1002700019EA020955EB09051AEA020A56EB0A06C1
:1002800078C080410130BDE8F00770472DE9F007E4
:10029000524290E87800B1E880071740DB1B18EA6B
:1002A000020874EB080419EA020975EB09051AEA59
:1002B000020A76EB0A0678C090E87800B1E8800779
:1002C0001740BB4118EA020874EB080419EA020956
:1002D00075EB09051AEA020A76EB0A0678C0804136
:1002E0004042BDE8F00770472DE9F00152424FF05F
:1002F000040890E8300091E8C000A31B1340E41A02
:10030000F618EB1B1340ED1AFF1830C0C0C1B8F14E
:100310000108EED1BDE8F001704700BF00B592E8DA
:10032000DC072DE9DC07B1E8805702B4A7FB0251D6
:100330000A95A8FB020BE7FB6310E9FB62B00B9187
:10034000A8FB0351EAFB6201E7FB64B5E7FB660526
:10035000E8FB6615CDF830B0A9FB03B6EAFB6316DF
:10036000ECFB6356E8FB640BE9FB641BEAFB645B94
:10037000ECFB646B0D90ACFB0230059CEEFB625015
:10038000E9FB6460EAFB64B0E7FB6431E8FB6451BD
:10039000069CE8FB6461E9FB64B1EAFB64010E932F
:1003A000A7FB0432079CE7FB6462E8FB64B2E9FB4D
:1003B0006402EAFB6412049CE9FB6453EAFB646395
:1003C000089CE7FB64B3E8FB6403E9FB6413EAFB06
:1003D00064230F955DF8049B99E80006DDF8008022
:1003E000A9FB0854EAFB68B4DDF81080ECFB680454
:1003F000EEFB6814E9FB6824EAFB6834DDF804804E
:10040000EEFB6865E9FB68B5EAFB6805DDF814807A
:10041000ECFB6815EEFB6825E9FB6835EAFB6845EF
:100420000F96DDF80880AEFB0876E9FB6806EAFB6C
:100430006816DDF81880ECFB6826EEFB6836E9FBF1
:100440006846EAFB6856DDF80C80ECFB68B7EEFB0B
:100450006807E9FB6817EAFB6827DDF81C80ECFBFE
:100460006837EEFB6847E9FB6857EAFB686708B046
:1004700000BD00BF2DE9F14F87B0FFF74FFFDDF85A
:100480001C8008F1200888E8FF00FFBC87E87F088F
:10049000BDE8F08F00B591E89857A3FB0352019592
:1004A000A3FB0401E3FB6420E3FB67100292A3FBC0
:1004B0000752E3FB6802E4FB6415E3FB6805E3FB1A
:1004C00069250391A4FB07B6E3FB6926E3FB6A56A3
:1004D000E4FB670BE4FB682BE3FB6A5BE3FB6C6B01
:1004E0000490A4FB0810E4FB6950E3FB6C60E3FBA1
:1004F0006EB0E7FB6721E4FB6951E4FB6A61E3FB53
:100500006EB1E4FB6E010592A7FB0832E4FB6A6260
:10051000E4FB6CB2E4FB6E02E7FB6E12E7FB685390
:10052000E7FB6963E4FB6CB3E7FB6C03E7FB6E136B
:10053000E8FB6E230695A7FB0954E7FB6AB4E7FBCB
:100540006C04E8FB6C14E8FB6E24E9FB6E34E8FBFA
:100550006865E7FB6AB5E8FB6A05E8FB6C15E9FB33
:100560006C25E9FB6E35EAFB6E450796A8FB09761C
:10057000E8FB6A06E9FB6A16E9FB6C26EAFB6C36C7
:10058000EAFB6E46ECFB6E56E8FB69B7E9FB6907D0
:10059000E9FB6A17EAFB6A27EAFB6C37ECFB6C475E
:1005A000ECFB6E57EEFB6E6700BD00BF2DE9F14F0F
:1005B00087B0FFF76FFFDDF81C8008F1200888E89E
:1005C000FF00FFBC87E87F08BDE8F08F2DE9F04F02
:1005D00090E8F00F00F140004FF0040E59E0F0B445
:1005E000826BC36B04680525242687593C444FEA77
:1005F000724787EAF24787EA92273C4442684FEA0B
:10060000F21787EAB24787EAD2073C4440F8044B26
:10061000032D08BF6FF01B0687593A444FEA734712
:1006200087EAF34787EA93273A4443684FEAF31788
:1006300087EAB34787EAD3073A4440F8042B87593F
:100640003B444FEA744787EAF44787EA94273B44E0
:1006500044684FEAF41787EAB44787EAD4073B4473
:1006600040F8043B013DC0D1A0F13C00076A3C4486
:100670004FEA724787EAF24787EA92273C440268CA
:100680004FEAF21787EAB24787EAD2073C44C463CD
:10069000F0BC4FF0020288EA781C8CEAF84C0BEBB5
:1006A000BC1C8AEA090303EA080383EA0A039C44A0
:1006B00050F8043B9C4451F8043B9C44674444EA92
:1006C000050B0BEA060B04EA05034BEA030BE344B4
:1006D00084EAF42383EA34530BEBB30B87EA771CE9
:1006E0008CEAF74C0AEBBC1C89EA080303EA07030F
:1006F00083EA09039C4450F8043B9C4451F8043BB2
:100700009C4466444BEA040A0AEA050A0BEA04031D
:100710004AEA030AE2448BEAFB2383EA3B530AEBEF
:10072000B30A86EA761C8CEAF64C09EBBC1C88EA14
:10073000070303EA060383EA08039C4450F8043BDA
:100740009C4451F8043B9C4465444AEA0B0909EA7D
:1007500004090AEA0B0349EA0309E1448AEAFA2395
:1007600083EA3A5309EBB30985EA751C8CEAF54C28
:1007700008EBBC1C87EA060303EA050383EA0703C8
:100780009C4450F8043B9C4451F8043B9C44644412
:1007900049EA0A0808EA0B0809EA0A0348EA0308D2
:1007A000E04489EAF92383EA395308EBB30884EA81
:1007B000741C8CEAF44C07EBBC1C86EA050303EAC4
:1007C000040383EA06039C4450F8043B9C4451F81C
:1007D000043B9C44E34448EA090707EA0A0708EA9D
:1007E000090347EA0307674488EAF82383EA385392
:1007F00007EBB3078BEA7B1C8CEAFB4C06EBBC1CBB
:1008000085EA040303EA0B0383EA05039C4450F8DA
:10081000043B9C4451F8043B9C44E24447EA0806EC
:1008200006EA090607EA080346EA0306664487EA79
:10083000F72383EA375306EBB3068AEA7A1C8CEA7D
:10084000FA4C05EBBC1C84EA0B0303EA0A0383EAB7
:1008500004039C4450F8043B9C4451F8043B9C44E2
:10086000E14446EA070505EA080506EA070345EA02
:100870000305654486EAF62383EA365305EBB305A0
:1008800089EA791C8CEAF94C04EBBC1C8BEA0A035C
:1008900003EA090383EA0B039C4450F8043B9C449D
:1008A00051F8043B9C44E04445EA060404EA07048A
:1008B00005EA060344EA0304644485EAF52383EA6F
:1008C000355304EBB304013A7FF4E5AEA0F14000E8
:1008D000BEF1010E7FF483AEA0F1400C9CE80F0046
:1008E000001949199219DB19ACE80F009CE80F00B8
:1008F0004044494452445B44ACE80F00BDE8F08FEB
:100900002DE9F00F4408F0C9B2E8000F54EB0804D9
:1009100055EB090556EB0A0657EB0B07F0C0F0C97B
:10092000B2E8000F54EB080455EB090556EB0A0634
:1009300057EB0B07A3F101031B40F0C0E3D180414B
:100940000130BDE8F00F70472DE9F00F241BF0C90E
:10095000B2E8000F74EB080475EB090576EB0A06A4
:1009600077EB0B07F0C0F0C9B2E8000F74EB080496
:1009700075EB090576EB0A0677EB0B07A3F101038C
:100980001B40F0C0E3D180414042BDE8F00F70470A
:100990002DE9F00F5242440890E8F000B1E8000F52
:1009A00018EA020854EB080419EA020955EB090594
:1009B0001AEA020A56EB0A061BEA020B57EB0B0770
:1009C000F0C090E8F000B1E8000F18EA020854EB1C
:1009D000080419EA020955EB09051AEA020A56EB5E
:1009E0000A061BEA020B57EB0B07A3F101031B409E
:1009F000F0C0D1D180410130BDE8F00F704700BF99
:100A00002DE9F00F5242241B90E8F000B1E8000FEE
:100A100018EA020874EB080419EA020975EB0905E3
:100A20001AEA020A76EB0A061BEA020B77EB0B07BF
:100A3000F0C090E8F000B1E8000F18EA020874EB8B
:100A4000080419EA020975EB09051AEA020A76EBAD
:100A50000A061BEA020B77EB0B07A3F101031B400D
:100A6000F0C0D1D180414042BDE8F00F704700BFD7
:100A7000F0B44408F0C954414FEAE272554156417E
:100A80005741F0C0F0C95441554156415741A3F177
:100A900001031B40F0C0EDD142F10000F0BC7047F3
:100AA000F0B45242241BF0C9544094415540954142
:100AB0005640964157409741F0C0F0C95440944188
:100AC000554095415640964157409741A3F1010347
:100AD0001B40F0C0E7D1F0BC704700BF2DE9F00F1C
:100AE000013AD24390E8F000B1E8000F98EA02081A
:100AF00054EB080499EA020955EB09059AEA020A3F
:100B000056EB0A069BEA020B57EB0B07F0C090E886
:100B1000F000B1E8000F98EA020854EB080499EAE3
:100B2000020955EB09059AEA020A56EB0A069BEA06
:100B3000020B57EB0B07A3F101031B40F0C0D1D10F
:100B400052F10000BDE8F00F704700BF53B94AB939
:100B5000002908BF00281CBF4FF0FF314FF0FF30C5
:100B600000F00CB8ADF1080C6DE904CE00F010F8FF
:100B7000DDF804E0DDE9022304B07047704700BFF0
:100B8000034613F8012B002AFBD1181A01387047CD
:100B90002DE9F0478C468E46089E154604461946B8
:100BA000002B40F0D080724547D9B2FA82F74FB19E
:100BB000C7F120030EFA07FC20FA03F3BD4043EA15
:100BC0000C0CBC404FEA154EA8B2BCFBFEF8230C3F
:100BD0000EFB18CC08FB00F943EA0C43994528D9D1
:100BE000EB1808F1FF3204D2994502D9A8F10202AC
:100BF0002B44A3EB0903A4B2B3FBFEFC0EFB1C3396
:100C00000CFB00F044EA0344A04214D92C190CF167
:100C1000FF3304D2A04202D9ACF102032C44241ABF
:100C200043EA02401EB1FC40002334607360BDE81B
:100C3000F0874246DDE76346F1E7002A79D0B2FA51
:100C400082F3002B3FD01946C1F1200302FA01F5CF
:100C50002EFA03F20EFA01FE20FA03F343EA0E0322
:100C60004FEA154E00FA01F4B2FBFEFCAFB20EFBE8
:100C70001C201A0C0CFB07F842EA004290455AD996
:100C8000AA180CF1FF3004D2904502D9ACF1020051
:100C90002A44A2EB08029BB2B2FBFEFC0EFB1C2214
:100CA0000CFB07F743EA02439F4246D9EB180CF1CD
:100CB000FF3204D29F4202D9ACF102022B44DB1B6B
:100CC00042EA004202E0AEEB020301224FEA154E77
:100CD000AFB2B3FBFEFC200C0EFB1C330CFB07F881
:100CE00040EA034398452AD9EB180CF1FF3004D2AF
:100CF000984502D9ACF102002B44A3EB0803A4B23F
:100D0000B3FBFEFC0EFB1C330CFB07F744EA034469
:100D1000A74216D92C190CF1FF3304D2A74202D9ED
:100D2000ACF102032C44E41B43EA00400F46114699
:100D300078E71F2188E76046ABE76246BFE7604679
:100D4000DBE76346EFE7734506D916B9002108468D
:100D50006DE7C6E9000EF9E7B3FA83F787B9734583
:100D600001D3824207D8841A6EEB030301209C460C
:100D70001EB900215BE73846FAE7C6E9004CF8E700
:100D8000C7F1200CBB4022FA0CF51D4320FA0CF1F0
:100D90002EFA0CF30EFA07FE41EA0E014FEA15494E
:100DA00000FA07F4B3FBF9F81FFA85FE09FB1830C7
:100DB0000B0C08FB0EFA43EA00439A4502FA07F2CD
:100DC00040D9EB1808F1FF3004D29A4502D9A8F1B6
:100DD00002002B44A3EB0A0389B2B3FBF9F809FB29
:100DE000183308FB0EFE41EA03418E452CD96918E1
:100DF00008F1FF3304D28E4502D9A8F10203294439
:100E000043EA0040A0FB0298A1EB0E014145CE460B
:100E1000434602D306D14C4504D2B9EB020E68EB2F
:100E200005030138002EA4D0B4EB0E0261EB0301E0
:100E300001FA0CFC22FA07F34CEA0303F940C6E975
:100E4000003196E74046C5E74346D9E7F0B5354B54
:100E5000354A85B0C3F80026C3F80426C3F808262F
:100E6000C3F80C26C3F81026C3F81426C3F81826B6
:100E7000C3F81C2609F0D8FE02F0D8FB0CF039FDAF
:100E800004460F4601A800F0D1FC05460CF031FDE8
:100E90004FF47A76A4FB063206FB0722DB0B43EA0B
:100EA0004243A0FB062006FB010003F59C53D20B36
:100EB000083342EA4042991A0129B8BF01211B4870
:100EC00003F000F81A4B1B68AB4205D002F0AEFBF2
:100ED000164802F0EFFFFEE74FF4C03100200BF0A0
:100EE00012FA00B1FEE79DF80800694609F079FEA4
:100EF00008B10AF0F2FF009A039B0E4C1344019ACA
:100F000012891344236006F05BF801F081FC00F0C5
:100F100079FE00F04DFE03F08DFA2068064B9847ED
:100F2000FEE700BF000001403546526E58E0000069
:100F3000F4090020100700200100002021B1012940
:100F400006D06FF015007047044B53F8300070471F
:100F5000024B03EBC0035868704700BF60E000001D
:100F60002DE9F04FD7B0DFF870A1DDF888C1DAF8CD
:100F70000050CDF80CC0DDF884C1CDF808C00DF1EB
:100F8000380BDDF880C1CDF804B0CDF800C0639C0B
:100F900007468846164600F0EBF828B1DAF800500C
:100FA000284657B0BDE8F08F6CB1A1465A4616AC42
:100FB000134603CBA342C9F80000C9F804101A462F
:100FC00009F10809F4D10023009332464FF6FF736C
:100FD000414608A809F029FE05900028DED13146D7
:100FE00038460D9C09F006FFA042D7D34FF0FF34DE
:100FF00016E03F88202FD1D1D9F800103B4616AA21
:1010000030460AF0B6FC0028C8D13A4616A9584620
:1010100009F0B2FE314B1B688342BFD10123059317
:1010200006AF0DF11C090DF11A033A46494608A80E
:1010300009F049FE0028B1DB48D1D9F8001008A812
:1010400009F08CFEBDF81A8040B9254A4FF6FF71B1
:1010500032F8023B8B42A1D04345F9D1B8F1100FD1
:10106000C7D0B8F1200F13D0B8F1010FD8D13B8809
:10107000202B93D8D9F8001016AA30460AF079FC34
:1010800000288BD1397816A800F02EF80446C7E75F
:10109000002CABDB134B1B68A342A7DD3B88B3F5E9
:1010A000807F7FF47BAFD9F8001016AA30460AF093
:1010B00060FC00287FF472AFE4B200943B8816AA6B
:1010C0004146584600F0E2F805468FE7059B012BA4
:1010D0007FF464AF64E700BFF4000020F40900204F
:1010E00084E2000068E000002DE9F0412029FCB016
:1010F00080460D4605D94FF0FF3420467CB0BDE850
:10110000F081184B184E1F680024A742F3DDE82237
:10111000002142A80CF0A3FDE82242A908A80CF087
:1011200077FD124908A807F089FF736856F8081B75
:101130001A6808A80CF00BFC2022002369460DEB6E
:101140000200429342AB0CF009FC08A80CF011FC21
:101150002A46414668460CF08AFD0028CDD001346D
:10116000D3E700BF68E000006CE000000900000267
:101170002DE9F0479246F4B0E8220DEB02000C4650
:101180000021DDE97E5799467C9E0CF068FDE8223F
:101190000DEB020168460CF03BFD1C49684607F068
:1011A0004DFF35B1002F04DD3A46294668460CF064
:1011B000CEFB63892289D4F80C801344984400251F
:1011C000454508D300247D993A943AAB20226846DD
:1011D0000CF0C4FB0CE0A8EB0507B74228BF37466C
:1011E0003B464A46294650460AF0C3FB044630B106
:1011F00068460CF0BEFB204674B0BDE8F0873A4666
:10120000494668460CF0A3FB3D44D9E709000002BB
:101210002DE9F0418AB004460D46164600211C22F5
:1012200003A81F460CF01BFD0CF0B4FB28BB144BAD
:10123000DFF85080144A0890CDE903304FF4205372
:10124000CDE90538126802AB394603A807F004FF60
:101250004FF480732246CDE9006341462B46029845
:1012600007F0A0FE044602980CF089FB2043B0FA78
:1012700080F040090AB0BDE8F0810020FAE700BF25
:10128000014000080903000684E00000202910B591
:1012900002D00A4B186810BDB3F5807F02D0074B0F
:1012A0001868F8E79DF80840054B53F83430FFF70D
:1012B000AFFF0028F3D0034BF2E700BFF40000209B
:1012C0006CE00000F4090020084A0B78400052F856
:1012D00020108B4208D0013052F8200083420CBF0E
:1012E0008A204FF0FF3070478A20704774E000007A
:1012F00038B50E4B002918BF0B46436203F5B8738F
:1013000003650121044609F0BCFD58B902212046BD
:1013100009F0B7FD054638B9206A0AF069FBE065B7
:10132000284638BD0125FBE70925F9E71407002009
:101330002DE9F3471E468368994205460F46144639
:1013400044D25B1A934241D38EB36A4609F051FCF2
:1013500000283DDB013CDDF8008027441E4CDFF80F
:101360007C906A463946284609F043FC00282FDB6A
:10137000DDE900A728463A4651460AF024FB00283A
:1013800026DBC4F80096C4F80496C4F80896C4F89E
:101390000C96C4F81096C4F81496C4F81896C4F8BD
:1013A0001C9676B1D04513D20AF1FF37D9E7511E0A
:1013B00039446A4609F01DFC002809DBDDF800808D
:1013C000CCE75744474503D80137CAE74FF0FF3011
:1013D00002B0BDE8F08700BF000001403546526E04
:1013E00010B52C2359434218146A0CB90AF075FD44
:1013F00041580D4B994206D1D16813895B1802D22E
:101400005189C91801D300200CE0A3689942FAD28F
:10141000106920F4F97020F001000005000DB0FA09
:1014200080F0400910BD00BF3DB8F3961FB52C23D6
:1014300003FB02010A6A0AB90AF04FFD0023CDE955
:10144000023301934FF480730093034BFFF788FD41
:1014500005B05DF804FB00BF182200202DE9F04123
:101460002C2707FB01070446D7F820800D461646B7
:10147000B8F1000F01D10AF030FD09F053FD10B9A9
:101480003B69DB0617D595B14146204609F0CBFDF7
:10149000F379042B06D1216A0029ECD0204609F00B
:1014A000C2FD04E0002005F06DFE0428F3D00E4BD1
:1014B0001868BDE8F08129462046FFF791FF60B922
:1014C0000A4B18680A4B1B688342F2D0002DEED0FD
:1014D0000121404609F021FDE9E72A463146204630
:1014E000FFF7A4FFEEE700BFF0000020F4000020AB
:1014F000F409002000487047F80D002073B50D4630
:10150000044600212846CDE9001109F057FD10B32B
:1015100023681A4EB34206D101AA204609F06CFC9A
:1015200008B10AF0DAFCE36AB34206D16A46012147
:10153000204609F061FC0028F3D1DDE900239A423E
:1015400084BF13460192AB60019A2946204600F001
:101550003BFA02B070BD0146204609F01CFC06466D
:101560000028DED005F1080109F027FC0028D8D1B9
:10157000AB68019330460AF0FBF9E5E73DB8F39616
:101580002DE9F84F0B9F1B4C1B4D884691469A4600
:101590000026BE4201D300200FE0A7EB060BBBF5EF
:1015A000806F28BF4FF4806B144A5B4606EB0A013C
:1015B00040460AF0DEF910B10120BDE8F88F0A9923
:1015C0000E4A5B46711848460AF0E8F90028F3D144
:1015D000C4F800565E44C4F80456C4F80856C4F86B
:1015E0000C56C4F81056C4F81456C4F81856C4F86B
:1015F0001C56CEE7000001403546526EF809002027
:101600002DE9F04186B00E46044609F0B2FC0146D1
:1016100000B1FEE72046FFF76BFE00284BD1002209
:101620001146204609F08BFC0546002864D120466F
:1016300009F0D2FD00285FD0784B012702A920468F
:10164000CDE90273CDE9045509F02BFD002853D1F3
:1016500002A809F0B3FC80EA070102AAC9B2204639
:1016600009F06DFC0546002846D102A809F0A6FC49
:10167000002845D102A92046FFF740FF9DF80F3012
:1016800084F85830033BBB4207D8284600F0F0F8F6
:10169000054610B1FF2384F858309DF80F30023B07
:1016A000022B1AD8002000F0CDF80546A8B1FF2380
:1016B00084F8583015E00123984284F85830AED1B0
:1016C00094F858308DF80F30042B44D8012B49D8AA
:1016D0005BD0FF2384F8583057E094F85830FF2B44
:1016E00001D10AF0FAFB002DFBD12A4629462046FB
:1016F00009F025FC0028F4D1012384F85830DFE7F5
:101700009DF80F80B8F1010F18D1284605F03AFD79
:10171000831E022B05460ED802AA41462046FFF73B
:101720009DFE3F4B1B68984205D03E4B1D68A8426A
:1017300014BF0525012584F85850C1E702AA39468F
:101740002046FFF78BFE364B1B6898420CBF9DF876
:101750000F300523D1E7052BBBD1002000F088F81E
:1017600098B1B6E702A92046FFF7C8FE94F85830B2
:10177000DA1E012A24D8002000F07AF8002896D139
:10178000002000F05FF8002891D194F85830FF2B2A
:10179000A7D00022012B244F019215D011462046DC
:1017A00009F0CDFB80B13D681022002102A80CF0A9
:1017B00056FA204609F0F5FB284606B0BDE8F08150
:1017C000023B012BE1D8DBE7002211462046FFF760
:1017D00045FEDFF84C803D68D8F800309842E3D1F0
:1017E000A842E1D00F4B1B689842DDD00021204673
:1017F00009F0BDFB0028D6D1019B01330193019B69
:10180000012B00D0FEE7206A09F0F1F93071236A5C
:101810005B683460D8F80050B360C5E7010100018F
:10182000F4090020F0000020F400002010B5044668
:10183000002009F040FB02482146FFF7E1FE10BD01
:10184000F80D002013B5094B01A913F8300000F082
:10185000C7FC48B901980AF018FE044601980AF03E
:1018600087F8204602B010BD0124FAE77CE00000B2
:101870001FB50F4B01A913F8300000F0B1FCA8B957
:10188000019802A905F028FC044668B99DF80B30C0
:10189000032B03D101980AF0C0FD044601980AF019
:1018A00067F8204604B010BD0124F7E70124F8E7EB
:1018B0007CE000002DE9F34106460C4617461D4624
:1018C0000BB9002121E0184609F078FB01460028F9
:1018D000F7D1304609F05FFA18B9012002B0BDE82F
:1018E000F08101A909F069FA0028F6D10199304682
:1018F00009F009FC736A59686B79012B0CD1002C33
:10190000DFD12B68834298BF00212C2303FB0466A0
:10191000306AB0B90AF0E1FA022BD2D12B68012B60
:1019200005D98342CDD8B4FA84F46409C9E7C8D193
:10193000002CEAD0012CC4D12C79023C18BF012420
:10194000BFE720233A460AF014F80028C5D1002D3D
:10195000C4D03868024BC01A18BF4FF0FF30BDE743
:101960003DB8F39673B54B681446164A03F0FF234F
:10197000934206460D4623D10B68012B20D16946C0
:10198000204605F0A9FB08B10AF0A7FA9DF800303F
:10199000032B15D12146304609F045FB0028F3D131
:1019A00020460AF03AFD0028EED1A968204609F049
:1019B00012FA0028E8D1204605F06CFB0028E3D19C
:1019C00002B070BD000100042DE9F04F0C4687B055
:1019D0001146054609F097FB6B6A039020465F6845
:1019E00009F0ECFA90B1E86D09F070FAAB6A0022E8
:1019F000013B3A44904201D9013BFAE7039A9342F2
:101A000004D80123E37107B0BDE8F08F2E6A0EB948
:101A10000AF063FAD5F84C80B8F1000FF8D04246CE
:101A200021462846FFF79EFF6379012B56D1DDF84A
:101A30000C90DFF878B14CE022680399C2F1010301
:101A40000B444B4543D36B6A196853F8390003EBD9
:101A5000C903012A53F8083CA3EB0103A0EB010AD8
:101A6000049315D1E368022B0CD03146284609F0C7
:101A7000DAFA0028CCD122463146284609F0E8FAA5
:101A80000028C5D14146284609F0CDFA0028BFD12B
:101A900000233A4651463046FFF74AFC0028B7D1AA
:101AA000CDE900A7049B324631462846FFF768FD82
:101AB0000028ADD12146284609F08DFA236801336C
:101AC000236020B1DBF800300133CBF8003009F19E
:101AD000FF39B9F1000FAFD10123236002236371F5
:101AE0004FF00109039B99458DD823684B455AD87F
:101AF0006A6A4FEAC90352F839100491083B296D0C
:101B0000D2F800B0C8580968A0EB010A2179012970
:101B100047D1D1583046A1EB0B0100233A4605913D
:101B2000FFF706FC00287FF473AF05990091019739
:101B30005346324641462846FFF722FD00287FF4EF
:101B400067AF2146284609F046FA0223237118B1EF
:101B5000164A13680133136000233A465146404643
:101B6000FFF7E6FB00287FF453AF049BCDE900A705
:101B7000A3EB0B03424631462846FFF701FD002840
:101B80007FF446AF2146284609F025FA2368013341
:101B900023600123237130B1044A136801331360B9
:101BA00001E00229D8D009F101099BE7580E002075
:101BB000BFF36F8F72B6124B4FF0FF32C3F8802025
:101BC000C3F88420C3F88820C3F88C20C3F8902081
:101BD000C3F89420C3F89820C3F89C20C3F8802150
:101BE000C3F88421C3F88821C3F88C21C3F890215D
:101BF000C3F89421C3F89821C3F89C21704700BF13
:101C000000E100E02DE9F0433F4ADFF80081404D5C
:101C1000404E4FF0FF33012185B05160C2F8483388
:101C2000C2F8083302F5C04200275160C2F84833B9
:101C3000C2F8083302F598325160C2F84833C2F84E
:101C4000083358F8044B4FF0FF3944F30730C4F819
:101C5000089302F053FC012363600023C4F84C3165
:101C6000D4F84C21C4F81031D4F81021C4F8443110
:101C7000D4F84421C4F80035D4F80C250092D4F8E7
:101C800014250192D4F808250292D4F81025039265
:101C9000C4F80C956846C4F81495C4F80895C4F8BF
:101CA000109550F8042B511C0FD002F01F0152095F
:101CB00020D0012A21D1324602EB8102D2F800174E
:101CC000294041F00201C2F800170133042BE8D18A
:101CD0007B1C022B4FF00107B3D10F4B4FF0FF32AB
:101CE000C3F808254FF080435F60C3F8082305B0B0
:101CF000BDE8F0834FF0A042DEE701F5E07100237C
:101D000053F82130FFDE00BF00B0004088E0000043
:101D1000F0F8FCFF0003005000F00140014B1B688D
:101D2000184700BFF800002030B5044685B00D46C6
:101D30001022002168460BF092FF02238DF802303A
:101D40002A46044B01932146684608F011FE05B06F
:101D500030BD00BF1D1D000080B505460E4617466C
:101D6000984606F075FD034602F0EEFCDFF8189089
:101D7000044649F80030424630463946A84754F8F0
:101D8000090002F07DFC00BF0800000008B5044611
:101D9000EFF31183202383F31288BFF36F8F05F0D5
:101DA0000FF9204602F062FE024809F010FC0AF02A
:101DB00068F8FCE7C0E300002DE9F043079D15B982
:101DC0001560002012E00324B5FBF4F404EB440793
:101DD000BD4218BF0134B4F1804F09D2A4000134D0
:101DE0008C4200D838B914606FF00B00BDE8F08366
:101DF0004FF0FF34F7E7DFF8BCE004460021B942BA
:101E000003F1030C04F104062CD3A942274624D283
:101E10001F7801F1010CAC45264938BF5B784FEAC9
:101E2000A70E28BF002311F80EE084F800E0AC45AF
:101E300001EB131E3CBF9B0003F03C034FEA071766
:101E400007F0300738BFCB5C1EF80770677028BFFB
:101E50003D23A3703D23E3703746381A00231060FA
:101E60003B70AEE71CF8034C1CF8023C1CF8018CDC
:101E70004FEAA40924011EF8099006F8049C04F016
:101E800030040EEB13199B0019F8044006F8034CBC
:101E900003F03C030EEB981408F03F08E35C06F8EF
:101EA000023C1EF8083006F8013C03313446634614
:101EB000A5E700BF01EA00002DE9F043DDF81CE0D2
:101EC000DFF8208100273C463E46764526D3D4BB2A
:101ED00014600020BDE8F0830135754531D013F85A
:101EE00005C0BCF1200FF7D0AEEB0509B9F1010F29
:101EF00016D0BCF10D0F13D103EB050999F8019031
:101F0000B9F10A0F1BD0B54205D1BCF13D0F0AD182
:101F10000137022F0AD96FF01500DBE73546DCE701
:101F2000BCF10A0FEEE71CF0800FF4D118F80C603A
:101F30007F2EF0D03F2E01D8002FECD101346E1C43
:101F4000C3E72E46C3E704F007054FF0060CE4088C
:101F50000CFB05F50CFB04F40735E41B04EBD5047E
:101F600070B18C420CD80027DFF878E0DFF8788079
:101F70001E44014603253C46B34205D10C1AA7E78F
:101F800014606FF00B00A5E713F8019BA9F10A0C90
:101F90005FFA8CFCBCF1160F04D828FA0CFC1CF07C
:101FA000010FE9D11EF809C00134BCF1400F08BF90
:101FB000013D0CF03F0C042C4CEA8717DCD17DB1BD
:101FC0003C0C012D0C7002D101310024D4E7022D0C
:101FD0004FEA17244C7016BF8F7002310331F4E7BB
:101FE0002C46C9E781E90000090040002DE9F047CF
:101FF000058B0446280717460CD501290CBF45F070
:10200000100545F02005258387F31188BFF36F8FF6
:10201000BDE8F087022905F0070540F094802046CE
:1020200009F0FDFA052864D801A353F820F000BF99
:102030000920000047210000F3200000B520000027
:10204000CF200000E120000001F007035A1F012A01
:102050001FD8002221F00701062BD4F8008089B296
:10206000C4E9002209D1434603E0628B0132628356
:102070001B68002BF9D141F002012183204609F0B1
:10208000CEFA4FF0000900286DD041F020012183E5
:1020900069E0042B0AD121F0070189B2218320468F
:1020A00009F0BDFA10B141F0200121834FF0000882
:1020B000C14658E02369D3F80090238B23F007032F
:1020C00043F0060323834FF0000846464BE02369A4
:1020D000D3F80490238B23F0070343F00403F1E7C4
:1020E0002369D3F80890238B23F0070343F00503FB
:1020F000E8E74FF00008C146E7E7012243F0080394
:10210000238387F31188BFF36F8F002A3BD1B8F187
:10211000000F4AD1B9F1000F02D02D492046C8471F
:10212000EFF31187202383F31288BFF36F8F238B84
:1021300023F008039BB22383D9063FD523F0100276
:10214000228303F007056669218B002EBFF67CAF62
:102150000023D4F8008021F00701C4E9003341F0E6
:10216000010121839946238B03F0070AAA4502D077
:10217000A268002AC1D1B8F1000F02D1B9F1000F55
:10218000DAD00022BAE7A1680029C0D00D68002982
:10219000BDD04F68334652462046B8471DB12B6824
:1021A00029461D46F3E72B46FAE741463346524699
:1021B0002046D8F8008009F05EFAA8E79A067FF575
:1021C00023AF23F02002228303F0070527E700BF97
:1021D000A3B60000014B03600020704790E00000B0
:1021E00070B5104B1C680D46B4B10F4B1968002335
:1021F0008B4202DB6FF0010070BD224612F8106BBB
:10220000864202D001331446F2E7E0680BF070F822
:1022100028B12C600020EFE76FF00C00ECE76FF0C6
:102220001200E9E7FC00002090E0000010B588B043
:10223000436802938368C068CDE903320A680023CB
:10224000CDE906230C4601AA0449059309F089FF4C
:10225000079808B9059B236008B010BD0DBA0000AF
:10226000F0B40D4B0D4E5F6A0D4BB34203D36FF0CC
:102270008500F0BC70475C68BC420AD31D6945B15B
:1022800094F802C08488E4B2A44502D12B46F0BC85
:1022900018472433E9E700BF5C0E00206C030020E0
:1022A000480300202DE9F047144CDFF85480DFF894
:1022B000549005460E461746444503D36FF08500FB
:1022C000BDE8F0876268D9F824309A4213D3A36935
:1022D0008BB1A9889078C9B2884205D13A46314677
:1022E0002846BDE8F04718475279012A03D13A46FB
:1022F0003146284698472434DEE700BF48030020D3
:102300006C0300205C0E00202DE9F0410B4CDFF83F
:10231000308005460E461746444502D36FF08500CF
:1023200009E063690BB92434F6E73A46314628469A
:1023300098470028F7D1BDE8F08100BF480300208E
:102340006C03002010B5044609F009FE10F1780F67
:1023500000D050B9054A204609F093FBD2F8C430AA
:1023600023EA0003C2F8C430002010BD5C0E002038
:10237000024B00221A605A60704700BF170F0020FE
:1023800070B50B4B0B4CA34201D3002070BD196AF2
:102390001E7F00220439D5B2AE4201D82433F2E7C1
:1023A000013211F832508542F5D10120EEE700BF2D
:1023B000480300206C03002073B58488E4B26306F0
:1023C0000D468DF8074007D02046FFF7D9FF78B1BA
:1023D0000D4B93F8BA0058B10B4E204655B102F0A0
:1023E0003BFFF3691BB10DF107010820984701205D
:1023F00002B070BD02F058FFF369002BF7D00DF169
:1024000007010920F2E700BF5C0E002008B509486B
:102410000378C3F341130A3350F823303BB100F182
:10242000080200F110019847C043C00F08BD1846CC
:10243000FCE700BF5C0E002004282DE9F14FDFF817
:10244000989004460F4616D001282DD1DFF88C80D5
:1024500098F8B93043B300F0E1FD214D4D4520D24D
:10246000D5F820B04FF0000A2B7F5FFA8AF6B3420E
:1024700004D82435F2E7FFF77BFFE7E70BEBC6064E
:102480000AF1010A307909F06AFD0246307909F053
:10249000F8FAD8F8C430002A23EA0003C8F8C43098
:1024A000E2DA002388F8B9300D4D4D4508D30B4BC7
:1024B0001B6A6BB13946204601B0BDE8F04F1847A2
:1024C000EB681BB13A462146284698472435ECE78D
:1024D00001B0BDE8F08F00BF6C0300205C0E00204F
:1024E0004803002073B586788DF80060037942793F
:1024F0001C4C43EA0223ADF80230C378304603F0A7
:1025000003038DF8043009F0BCFAD4F8C430184243
:1025100005460BD0304600F063FD3046FFF712FF52
:102520000BF077F810B9962006F074F9684602F0BF
:102530006FFE10F1780F03D010B1002002B070BD13
:102540009DF8000002F0ECFE10F1780F01D0002899
:10255000F3D1D4F8C43001202B4384F8B900C4F877
:10256000C430EBE75C0E00202DE9F047A64DAB69C7
:1025700004460E46174663B9207800F01F00012874
:1025800078D0022800F0DF8040B16FF01500BDE880
:10259000F08798470028EFD10020F8E794F9002051
:1025A0006378002A28DA062B09D0082B3A681ED057
:1025B000002BEAD15370012313700223FEE06388DD
:1025C000190A0A1F012A8C46DFD90729DDD8DAB299
:1025D0006B6A1C78002CD8D05D78654503D18242A7
:1025E00000F0E78001302344F3E71B78E6E095F83C
:1025F000BA3013700123E1E0052B16D0092BC4D1AA
:10260000638833B1FF276E6AB8463378A3B90028D0
:10261000BBD0FFF7ADFE638885F8BA30EB69002BBD
:10262000BAD07A4903209847B6E76088C0B202F072
:10263000DDFD0028B0D0A8E77378042B0DD0052B62
:102640000ED0022B06D177796388BB4208BF40F0D9
:102650000100C0B233781E44D7E796F80380F9E74B
:102660006388BB42F6D1B8F1000FF3D13046FFF7D3
:1026700039FFEFE795F8BA30002B86D0A188D5F85E
:1026800024805FFA81FC43461A78002A3FF47DAF2C
:102690005878022804D193F804E0E64500F29080CF
:1026A0001344F1E713705370306075E7984494E079
:1026B0000B2B7FF46AAF0026FF27B946B24608E02D
:1026C00098F80130042B11D0052B21D098F8003058
:1026D000984498F80030002BF2D1EB6913B15146C1
:1026E00007209847002E7FF457AF4EE798F8027006
:1026F000A38898F803909F42E8D163889945E5D173
:10270000072F1DD8EB19C24683F8BB900126DDE7E1
:10271000A388BB42DAD16388DBB24B450BD098F873
:102720000260304600F05CFC3046FFF70BFEB0FA6A
:1027300080F67609CAE74046FFF7D4FE0646C5E7AD
:10274000C2460026C2E794F900206378002A1ADA0C
:10275000002B7FF41AAFA3885FFA83F85B060AD0D8
:102760004046FFF70DFE00283FF40FAF95F8BA3052
:10277000002B3FF40AAF3C684046214602F0B4FD0E
:102780000023637019E7012B08D0032B7FF4FDAE03
:102790006388002B7FF4F9AE012103E061880029F2
:1027A0007FF4F3AE2046FFF707FE00287FF4F4AE77
:1027B000EBE602293B607FF418AF5B883360EBE601
:1027C00094F900206378002ABFF672AF3A68002BB4
:1027D0003FF468AF0A2B7FF4D8AE98F80030002B96
:1027E0003FF4D3AE98F8010004287FF45FAF98F867
:1027F000020081427FF45AAF072996BF491900238E
:1028000091F8BB30F5E600BF5C0E0020160F0020EB
:1028100070B5164D95F8B830FBB102F0C7FC002832
:1028200022DB00F0FBFB0024D5F8C430E340DA07DC
:10283000E6B214D4D5F8C43004F11002D340DB075B
:1028400005D546F08000FFF77DFD00280CDB013444
:10285000102CE9D1002385F8B830002004E0304680
:10286000FFF770FD0028E5DA70BD00BF5C0E0020A8
:1028700013B5164C237DF3B9E268A168019201AB50
:10288000802009F00CF9019AA3681344A360E3685F
:102890009B1AE3606BB962B12369E2889A4208DD52
:1028A00094F8C82093FBF2F102FB11330BB901231A
:1028B000237502B010BD00231A46194680202375E7
:1028C00002B0BDE8104002F055BD00BF5C0E002014
:1028D00030B585B0002302460D460193002858D13B
:1028E000002935D108220B460DEB020109F050FBFF
:1028F000002804DA802002F0AFFC05B030BD2A4C7D
:10290000029A2260039A626004F13802A2609DF983
:102910000820BDF80E302575002AC4E903550ADBEE
:10292000802B04D9802002F097FC0020E3E713B14C
:10293000C4E90333E1E7FFF769FD0028DAD0E28854
:1029400023699A42D4BFE260E360FFF791FFD4E7C6
:10295000154CD4E90215002D01AB04DC09F018FB7D
:102960000028CADAC6E72A4609F012FB0028D9DB9C
:10297000019AA3681344A360E3689B1AE360002BE9
:10298000BBD104F13803A360FFF740FD0028DCD180
:10299000B0E78028B1D1044BDA68002AD5D11B7D7D
:1029A000002BD2D1A9E700BF5C0E0020054B064AE0
:1029B0009A62064ADA62064A1A63064A58629A61BD
:1029C000002070475C0E0020692500006122000095
:1029D00009230000A52200002DE9F3410446454DDE
:1029E00045484FF0FF334FF0FF3205F08FF995F86F
:1029F000B830002B78D16E6A76B900F0CBF8FFF7CB
:102A0000D5FF6E6A46B94FF0FF343B4805F0F0F948
:102A1000204602B0BDE8F08138482C62E86102F03F
:102A2000BDFD02F095FB041EEFDB00F019FB041E58
:102A3000EBDB7378012B5AD1F379002B57D00026AA
:102A4000684685F8C830ADF802308DF804608DF81E
:102A5000006002F0DDFB041ED7DB802768468DF89E
:102A6000007002F0D5FB041ECFDB2549304602F092
:102A700081FD041EC9DB2249384602F07BFD041E9D
:102A8000C3DB204CDFF8808044451AD3002002F0DD
:102A900047FC041EB9DBD5F8C430802043F00103A5
:102AA000C5F8C43002F03CFC041EAEDBD5F8C430DF
:102AB00043F48033C5F8C430012385F8B8300024CE
:102AC000A3E7276A0026227FF3B29A4201D8243472
:102AD000DAE707EBC30257F83310107902F04AFD2A
:102AE00001360028EFD08EE76FF077048DE76FF0A6
:102AF00015048AE75C0E00204C02002039240000F7
:102B0000D1280000480300206C03002030B51F4B83
:102B10008BB005AA03F1100518685968144603C460
:102B20000833AB422246F7D11B78237001AC102248
:102B3000002120460BF093F81222002114480BF0DC
:102B40008EF81021204609F0BEFB00281ADD082867
:102B5000B8BF082009380E4A0444002114F8013F88
:102B60000AA800EB131003F00F0328336B44013164
:102B700010F8140C13F8143C10700829537002F16B
:102B80000202EBD102480BB030BD00BFE9E3000008
:102B9000192300202DE9F04F724B93F800B087B055
:102BA000BBF1000F03D0704807B0BDE8F08F6E4C4A
:102BB00000264FF0011AB0463546B14623783BB99E
:102BC0006A4B02349C42F3D1664A01231370EAE750
:102BD0006378052B05D8DFE803F08F07038F1F3BD1
:102BE000A14623781C44E9E7402304A88DF810B0DF
:102BF000ADF812308DF814B009F09DF940B10823FA
:102C000004A8ADF8123009F096F908B1ADF812B089
:102C1000BDF81230E371E4E7E378002BE1D1A3784B
:102C20006BB108F101085FFA88F8DAE76B689C423B
:102C300007D024354E4B9D42F8D30020B4E74D4DCC
:102C4000F8E7AB68002BECD0414620469847E8E710
:102C5000002DF2D000222B7F9A42EED2296AA07872
:102C600001EBC2010B79984244D10127E07800F0D2
:102C700003008DF81400207994F805C040EA0C2078
:102C8000ADF8120094F902000028FBB228DA07F12F
:102C900010004FF0010C0CFA00F010EA0A0F26D1D8
:102CA00043F080008DF8100004A8CDE902130192D2
:102CB00009F041F9DDE90121039BC0B99DF810201D
:102CC000A27012F0800F18BF10330A7118BFDBB268
:102CD0004FF0010214BF9A40BA404AEA020A80E764
:102CE0000120B84010EA0A0F01D11846DAE701378F
:102CF000102FBBD10132AEE7032E1AD1FFF706FF2A
:102D0000074650B1FDF73CFF024630B11028A8BF7E
:102D100010223946A01C0AF07BFF23786FF00201D5
:102D20001A19091B04EB5303D14213D50136F6B22D
:102D300057E7002EF1D1B9F1000F3FF47EAFA4EBBD
:102D4000090389F80230C3F3072389F8033089F8AF
:102D50000480EBE702F801BC13F8010902F8020D48
:102D6000E2E700BF18230020800200204703002074
:102D70006C0300204803002010B5094B00211A46BF
:102D80001C78844204D15C6814B102EB811010BD40
:102D90000131042903F14003F2D10020F7E700BF1D
:102DA000280F00202DE9F34150F8283C10F82C6C36
:102DB000103304460AD1036950F8202C980736D501
:102DC000D2B9590715D5002344F8283C54F8283CBB
:102DD00010330BD054E9077554F8148C0AF019FC21
:102DE00000284FD02E4821460AF0F7FB02B0BDE87C
:102DF000F08143F00403236154F8241C01AB3046F6
:102E000008F04DFE10B16FF01503DDE7019A54F89C
:102E1000243C134444F8243C54F8203C9B1A44F8C6
:102E2000203C54F81C3C134444F81C3CCEE754F8B6
:102E3000241C01AB304602F013FB0028E3D1019DB6
:102E400054F8243C2B4444F8243C54F8203C5B1BAD
:102E500044F8203C54F81C3C2B4444F81C3C002D06
:102E6000B1D0304602F0A0FBB5FBF0F303FB1055E8
:102E7000002DA8D154F8203C002BA4D0304602F0FD
:102E800037FBA3E744F8180CA4F1100005F032F862
:102E9000002DABD0424639463046A847A6E700BFD2
:102EA000700300204B1E012B73B506460D460FD84C
:102EB000FFF762FF044668B9012D09D101AB012279
:102EC0000DF10301304602F0CBFA019B002BF5D146
:102ED00002B070BD0AF09DFB04F12C0108B1012D78
:102EE00005D1084602B0BDE87040FFF75BBF03485C
:102EF00002B0BDE870400AF070BB00BF7003002054
:102F00002DE9F74F064601911546984608F00FFE49
:102F1000044600285BD1EFF3118A202383F3128843
:102F2000BFF36F8FDFF8ACB000220023584605F0E6
:102F300015F870B9DFF8A090A70109EB8414636855
:102F400013F1100F14D10193584604F0D3FF019BE5
:102F500006E00134042C0BF1400BE5D16FF00B03BC
:102F60008AF31188BFF36F8F184603B0BDE8F08F66
:102F7000019B2061C4E902350C9B63610D9BA36139
:102F800030466FF00F0309F80760C4F83C806360B7
:102F900002F00AFB58B1304602F006FBB5FBF0F335
:102FA00003FB10551DB1E36B43F00403E36318F01A
:102FB000020F07D007F12C01084849440AF00DFB25
:102FC0000023CDE7304602F093FA0346C8E76FF0DE
:102FD0000F03C9E7440F0020280F002070030020D2
:102FE00010B5EFF31184202383F31288BFF36F8FA2
:102FF000FFF7C2FE50B14368103307D16FF08B0367
:10300000436000F12C0104480AF0E7FA84F31188C8
:10301000BFF36F8F10BD00BF70030020F8B50E4CDA
:1030200004252027EFF3118687F31288BFF36F8FF3
:103030006368103307D16FF08B030848636004F1B5
:103040002C010AF0CAFA86F31188BFF36F8F013D95
:1030500004F14004E6D1F8BD280F002070030020E1
:1030600038B5094C0025094920460AF09AFA012290
:10307000A4F11000114601350AF04EFA042D04F1B6
:103080004004F0D1002038BD540F0020A52D0000D1
:103090000169012381F84B300B6833B191F8493055
:1030A0001BB1024808310AF098BA7047700300203B
:1030B0000169012381F84A300B6833B191F8483037
:1030C0001BB1024808310AF088BA7047700300202B
:1030D00070B50569EFF31186202383F31288BFF3DF
:1030E0006F8FD5F8900008F0F3FB044686F3118843
:1030F000BFF36F8F30B104480022002305F118019F
:1031000005F09AF8204670BD7003002070B50123C9
:1031100082F8483013680D4614463BB192F84A30A5
:1031200023B10E4802F108010AF057FAD4F89030A2
:103130005A89DB889A4205D17DB904F1180140F61D
:10314000CD4204E004F11801002DF8D00022BDE8C2
:1031500070400248002305F06FB870BD7003002076
:1031600070B50E4681880446C9B21548154608F068
:10317000BAFC10B394F900206378002A16DB202BE8
:1031800004D0222B0ED06FF085000AE02B681A685D
:1031900040F8102C9A8820F80C2C9B7900F80A3CF7
:1031A000002070BD638800F8093CF9E7212BEAD1C3
:1031B0001038072328603360F2E76FF01200F0E761
:1031C0002C10002008B50146034808F09AFC10B105
:1031D000012300F8073C08BD2C1000200D4A0346CF
:1031E0000021A0F848101068C3F8940090889279E4
:1031F000A3F8980083F89A2083F89C1083F89B101A
:10320000A3F89E1083F8A010402203F14C000AF0AE
:1032100026BD00BF40E0000010B504690023C4F8DB
:10322000A8300C4BC4F8A400596804F1A80269B98D
:10323000C3E9002204F1080007490AF0B2F904F1D9
:10324000180006490AF0D9F9002010BD0A605A603A
:10325000F0E700BF2C10002059BB0000293300000C
:1032600030B54FF40033426805690D4C85B042F229
:10327000A100CDE90103002385F89D30106AADF867
:103280000C1000790A2201A908F009FC95F89D307C
:1032900023B901200AF010F8013CF7D105B030BD88
:1032A000A186010073B504698DF80710002384F826
:1032B00048302025EFF3118685F31288BFF36F8F16
:1032C0000122D4F890000DF1070108F001FB86F30C
:1032D0001188BFF36F8F012810D00AF09AF9B0B1AE
:1032E0000F4BBFF35B8F012253E8001F002903D16E
:1032F00043E800200028F7D1BFF35B8F2122002391
:1033000004F11801074804F097FF02B070BD94F86B
:10331000A130002BE4D0002121200AF03FFAC9E7B8
:103320002810002070030020F0B5D0F88C305B68C6
:103330001B6A1F7D85B00546384608F0F8FB064637
:1033400050BB95F886303BB3A86F0146C38831F86F
:103350000A2F9B1A9BB2B3F5806F28BF4FF480638E
:1033600003AA08F066FA0446B0B18306A5F1180373
:1033700008BF00F1FF3485F830600193074B0399D3
:103380000093224602233846FFF7BAFDA86F224673
:1033900000F10A0108F083FA05B0F0BD0D3100001C
:1033A00037B514460A1E054621DDD4F88C0004F119
:1033B0004C0108F08DFA012384F8493023683BB1B1
:1033C00094F84B3023B1114804F108010AF005F9D3
:1033D000D4F88C209388918912695B1A9BB2D31A16
:1033E0003F2B04D8012384F8A03003B030BD94F8FB
:1033F0009E30002BF9D0064B00930194012340220C
:1034000004F14C012846FFF77BFDEEE77003002036
:10341000A133000073B50D4601461D4808F057FB67
:10342000044610B3691EA0F1A40605291DD8DFE8E3
:1034300001F01E1C031E242810F8061CA9B90368FD
:103440005D68012300F8063C2B6A3246187BFFF7C3
:10345000A7FF14F85C2C42B92B6A187D0D4B009322
:10346000019602231146FFF74BFD02B070BD3046B6
:1034700002B0BDE87040FFF7B1BE012304F8053C7F
:10348000F3E710F8053C002BEFD00023F6E700BF70
:103490002C1000200D31000013B500240749084806
:1034A00000944FF0FF334FF4806204F085FE05492D
:1034B00003480AF0B4F8204602B010BD002C0020EA
:1034C0007003002010E4000008B5054808F07FF8FC
:1034D000044808F07CF8044808F079F8002008BD9A
:1034E00019E400004AE400007DE40000F7B5224E34
:1034F00030688368DB6B03B1984730688368DB6AA8
:10350000002B31D11D4C1E4D306883681B69002B88
:103510002DD001220DF107019847012827D12368FA
:1035200043B92B681BB369681A682A608B4208BFCD
:103530006A602360134A9DF8070011887F2904D828
:1035400023680B444F1C178018720A28DCD12368AB
:103550001188596000200C4918604D684DB9C1E9C7
:10356000003310802060CEE798470028CAD103B00E
:10357000F0BD2B604B60F4E78C1400203410002069
:1035800044100020142200203C10002010B5044BF1
:10359000044618688368E1B25B689847204610BD0E
:1035A0008C140020F8B5054616460846EFF3118C3A
:1035B000202383F31288BFF36F8F19490B684BB137
:1035C000184C62689A4205D000221A6062689AB963
:1035D000C4E90033144A13682BB157681C6814609F
:1035E000BB4208BF54608CF31188BFF36F8F0B6030
:1035F0002BB918463360F8BD13606360EAE75C6876
:10360000A042D8BF00F1FF3403F10801224628464A
:103610000AF0FEFA00232B55601C0123EAE700BFE5
:1036200038100020441000203C10002037B52449F9
:10363000244A0023C1E90033C2E90033224A1C4670
:103640004868146088B9C1E900220133082B02F1EF
:103650008802F5D11D4D1E48286009F049FE38B991
:103660004FF0FF34204603B030BD02604A60ECE703
:103670000020FFF7B1F904460028F1D128688368DB
:1036800023B11B6C13B113492246984728688368FD
:10369000DB6A0BB1984748B1286883681B69002B27
:1036A000FAD001220DF107019847F4E70A4B286888
:1036B00000221A8083681B6A002BD3D09847D1E779
:1036C000441000203C1000204C1000208C140020DE
:1036D000A8DD0000ED340000142200202DE9F04F99
:1036E000EFB0DFF8DC90DFF8DC80D9F8001041F2B1
:1036F0000443ADF80C3040F60613ADF81030324BF1
:103700001E680B785A1CA6EB080662F302030B70C6
:1037100073BA4B808B8800245BBA8B804C70082274
:10372000204608F0DDFBB5B23246414608F0D8FB32
:1037300005F10A03D9F800101FFA83FB5BBAADF854
:1037400018300B68CDF81A3007460DF1180A4B688F
:10375000CDF81E30324641467FBA0DF122000C35BD
:103760000AF056FAADB22AF80B7032AE05AF0095EA
:1037700053463A46ED213046FEF71EFB134DBDF889
:103780001480A04502DC6FB0BDE8F08F2B680221E9
:103790005B6894B904A8A8EB040798472B687C2FB2
:1037A000A8BF7C27301939465B6898472B680848C2
:1037B0005B6801213C449847E3E703A8EBE700BFBF
:1037C000F01400202B230020A8140020F414002063
:1037D000BBE8000010B50A2104460A4809F058FD6C
:1037E00002220949074809F046FD2146054809F02B
:1037F0001FFD04480A2109F053FDBDE81040FFF702
:103800006DBF00BFA8140020AAE400002DE9F04F0E
:10381000D5B005AE0DF1180907AF4FF0FF34346095
:10382000C9F800403C6008AC00250B460DF1280AA1
:103830000121CAE900550246256030A80091CDE972
:1038400001550421099509F06AFC4022294620A867
:103850000AF005FA8C4B1C9305231D938B4B8C4867
:10386000CDE91E398B4B21938B4BCDE9233A8B4B02
:1038700026938B4B0321CDE92B01CDE92837CDE9E8
:103880002D360422279109AB1CA930A8229208F0FA
:1038900085FA20B303250A21824809F0F9FC824900
:1038A0008048022209F0E7FC7E48294609F0C0FC66
:1038B0004DB977497B48032209F0DDFC7B4B794801
:1038C000196809F0BFFC0A21764809F0E9FCFFF706
:1038D00005FF206808F04CF855B0BDE8F08F33685C
:1038E0005A1CD7D0DAF80080B8F1000FD2D0DAF83D
:1038F00004506F4A33B9D9F80010B1F1FF3F18BF37
:103900000B46136000211068FDF718FB2146C0B27A
:10391000FEF766FC0028BDD13368644E002B4BD106
:10392000D4F800A033605046DAF8089007F026FA81
:10393000604A0146504607F05CF9002840F0A1803B
:103940003B684B45A6D85C4A10605C4A13603268FD
:10395000594F206839682A44013A08F0FFF90028D5
:10396000386097DB2068DFF854B108F041F8B5FB08
:10397000F0F303FB00F933682068A5EB090A1D4446
:10398000DBF800309D4238BF4FF0000A08F030F8F5
:1039900001284F4606D9206808F02AF8013818EAAD
:1039A000000F4CD1316820684B46424607F0F6FFC5
:1039B00000287FF46FAF2FE03268934201D00025DA
:1039C00069E73E4A12682B449342C0D962E7B94581
:1039D000206828BFB94608F012F8402201460CA81A
:1039E0000AF03DF94A4641460CA80AF011F931683F
:1039F00020684B460CAA07F0D1FF054600287FF44B
:103A00004AAF33684B443360C844A7EB09072068CA
:103A100007F0EEFFB842DAD9BAF1000F12D13368DD
:103A2000DBF8002053443B4493423360C7D1214B21
:103A300020681A68114608F091F9C50F2BE74FF07E
:103A40004009E4E7206807F0DAFF082201460CA8E5
:103A50000AF005F9524608EB07010CA80AF0D8F85D
:103A6000D4F80080316840467D1807F0C1FF0CAAE9
:103A700003462946404607F091FF00287FF40AAF2D
:103A8000CDE7012507E700BFADE400004DCF000002
:103A9000BCE40000B3E4000057CF0000B8E400002D
:103AA00053CF0000A8140020AAE40000A0140020B6
:103AB000A4140020981400209414002090140020D6
:103AC000F0B50C68164F174B85B002380D46C4F59B
:103AD0008061009003AA38190131FEF7EDF9044620
:103AE000D0B92B68039A1344022B2B6011D93E885E
:103AF00076BAB6B2023B9E420BD13246B91C08F0F0
:103B0000EFF930B9022E04D92B689A1E2A60FC54B2
:103B10000124204605B0F0BD4FF0FF34F9E700BFA7
:103B2000D0230020D327002007B500230093044AA8
:103B30000448A423022109F0B5FB03B05DF804FB9F
:103B40002B230020A81400202DE9F04F0729ADB049
:103B5000044640F2DA80037813F0050F40F0D58078
:103B600043885BBAA1F108069BB2B342C0F0CD8096
:103B7000874B186083885BBA8380FFF7D5FFA588E1
:103B8000012D40F0EC80E37923B1012B00F0E180BE
:103B90000820F9E02778FDF7ADFC064607F08BF921
:103BA000304607F0E6F907F007070146002840F025
:103BB000CE803046FDF79CFB0446002840F0C380D1
:103BC000002F40F0C28029467248DFF8CC81DFF830
:103BD000CC91DFF8CCA109F05BFB72496D4806225D
:103BE00009F049FB6B48052109F04EFB27467B4253
:103BF00006F1200203F02C03D558002D6AD02023B3
:103C00000CAA00212846D8F800B007F0B2FE0C9BA1
:103C10004B450CD10023CDE902330193402300939F
:103C20002A461CAB0CA93046FDF79AF98346DAF810
:103C300000305B454ED1002300932A464FF6FF73B8
:103C40000CA906A806F0F1FF002861D04FF0FF355F
:103C50001421504809F01CFB53494E48042209F036
:103C60000AFB4C48394609F0EDFA4DB94F4949482D
:103C7000042209F000FB4748202214A909F0F2FAB7
:103C80004B494448072209F0F6FABDF84630019343
:103C90001CAD9DF845300093464A9DF844304021C4
:103CA000284606F03BFE129B43B1421E3E2A05D831
:103CB000C0F14001404A284406F030FE2846FCF797
:103CC0005FFF29460246334809F0D5FA31481421EE
:103CD00009F0E6FA7B1C022B4FF0010787D1052182
:103CE0002C4809F0D9FA39462A4809F0D9FAFFF7E1
:103CF000F5FC304607F055F914B12046FFF76AFD90
:103D0000FFF712FF2D4B01221A702DB0BDE8F08F86
:103D10000DF1120304AA05A906A806F0D4FF002895
:103D200094D1BDF81230102BF2D1BDF81030202BF9
:103D30008CD12846059914AA07F01BFE051E18BF52
:103D400001256D4284E72C46D3E70824D1E72C46B1
:103D5000D3E7314604F10800FFF758FDD2E7002D04
:103D60007FF416AFE379012B0DD0052B7FF410AF54
:103D70002846FFF72FFD4FF40050002109F00EFDFB
:103D80000120FEF703F82846FFF724FDBAE700BF3D
:103D9000F0140020A8140020F40000203DB8F39691
:103DA000F4090020C0E40000C7E40000CCE40000F7
:103DB000D1E40000D9E40000E5E40000CF230020B6
:103DC0002DE9F347354B00240646884600941860D9
:103DD00009F08FFD4FF47A72A0FB020302FB01335E
:103DE000C00B40EA4345A14623462D4F2D4C434589
:103DF00005DB2D4B1B7813B902B0BDE8F0872B4BC8
:103E000040F2014AC3F80046C3F80446C3F8084626
:103E1000C3F80C46C3F81046C3F81446C3F8184656
:103E2000C3F81C46336801AAAAEB090107EB090095
:103E300098470028019B0FDCABB181443B78062BEF
:103E40001ED17B78092B20D1002300936946A9F16C
:103E50000200FFF735FE18E08144002BEED1D1457A
:103E600001D14FF0000909F044FD4FF47A7CA0FB2A
:103E70000C320CFB0122DB0B43EA42435B1BB6E72F
:103E8000042B02D17B78142BE0D00128E9D10099D2
:103E900007480239FFF758FEE3E700BFF41400209B
:103EA000D12700203546526ECF230020000001406C
:103EB000D2230020024B012200211A70FFF780BF9D
:103EC000CF230020024B00221A70FFF779BF00BFFA
:103ED000CF23002008B50348034A0021121A07F037
:103EE000B3FF08BD70030020E02B00200748084AFC
:103EF000084908B5121A07F0A9FF0748074A0849F8
:103F0000BDE80840121A07F0A1BF00BF4000002022
:103F10006C030020D8EA00000000002040000020D0
:103F200098EA000038B505460C4699B1D1E901235D
:103F30000F48096807F04BFBD4E90423E1680D48FA
:103F400007F045FBE1690C4807F041FBA1690B480C
:103F500007F03DFB012D05D1EFF30581084810392D
:103F600007F035FB21462846BDE8384003F05EBD2A
:103F7000E9E4000019E5000049E5000059E500000A
:103F800088E5000030BFFFF7FDBF00BF2DE9F0411D
:103F90000B4EDFF8308006EB0807CC1B0546324697
:103FA0000949204609F034FEA01942460021083C88
:103FB00009F055FE2C6707F10800BDE8F08100BF4D
:103FC00000000000040000003CE000002DE9F84380
:103FD000324D804632488946174607F0F8FAAB6AF8
:103FE000DE0622D52F4807F0F2FA1124AB6A1D072E
:103FF00003D52D4807F0EBFA1224284DAB6A980739
:1040000015D52A4807F0E3FA6E6BAB6A190642D55C
:104010002748314607F0DBFAB9F1000F03D0AB6A4D
:1040200023F08003AB62132403E01024DEE76FF07B
:1040300015061A4DAB6ADA0703D51E4807F0C7FA12
:104040001424AB6A9B0603D51B4807F0C0FA15245D
:10405000124B9A6AD50602D49A6A90070AD55B6811
:10406000190507D54146304600F0C0FA10B180F37B
:1040700009880224094B9A6A920642BF5A6A22F4BE
:1040800000525A629A6A42F0FF029A6200233B7021
:104090002046BDE8F8836FF01506C4E700ED00E0A8
:1040A0009CE50000B3E50000E7E50000FBE500004B
:1040B00014E600002BE600004BE6000010B51D4C96
:1040C0001D4807F084FAA36A990130D51B4807F010
:1040D0007EFA1E20A36ADA0103D5194807F077FAA1
:1040E0001F20144CA36A1B0303D5164807F06FFA70
:1040F0002120A36A590303D5134807F068FA222048
:104100000C4CA36A9A0303D5104807F060FA2320E9
:10411000A36ADB0303D50E4807F059FA2420054AA9
:10412000936A6FEA03436FEA1343936210BD1D2045
:10413000D0E700BF00ED00E07BE6000094E6000061
:10414000A8E60000C3E60000E2E6000008E7000081
:1041500023E7000070B5244C064624480D4607F0BE
:1041600036FAA36AD90435D5214807F030FA17206A
:10417000A36A1A0503D51F4807F029FA18201A4C1C
:10418000A36A9B050FD51C4807F021FAA16BA36A0F
:10419000180407D5194807F01AFA1EB1A36A23F4C8
:1041A0000043A3621920104CA36A590503D5144893
:1041B00007F00DFA1A20A36ADA050DD5114807F0A9
:1041C00006FA1B20084A936A43F47F439362002354
:1041D0002B7070BD1620CBE7A36A9B04F2D50A486A
:1041E00007F0F5F91C20EDE700ED00E04FE70000D7
:1041F00066E70000E7E5000078E7000092E70000CE
:10420000A8E70000C4E700004BE600002DE9F041FC
:104210005D4B5F688AB00446C7F30806002585F346
:104220001188BFF36F8F02F07F43B3F17F4F06D148
:1042300002F00C03082B13D1544807F0C8F90025ED
:104240002C464FF00008F31E8DF80780092B00F272
:104250008C80DFE803F00A80847C8A8A8A8A8A88D4
:1042600010074CBF0C460125EBE74948464E07F0C6
:10427000AEF98DF80780F36A9A0704D5454807F030
:10428000A6F900232AE0F36A002B01DA4248F6E798
:10429000F36A5B00F5D5414807F099F97369A269A3
:1042A00043F480737361BFF34F8FBFF36F8F32F8A6
:1042B000023C726922F480727261BFF34F8FBFF3C8
:1042C0006F8F03F47F42B2F55F4F27D1DBB2022B31
:1042D00024D12168324807F07AF923689DF8072035
:1042E000CAB902AE04F1200720686168324603C2F1
:1042F0000834BC421646F7D1099A002D41D0C2F3CA
:10430000080121B96FEA52226FEA4222099202A9FA
:104310001846FFF707FE0AB0BDE8F0811A4B9A6A0B
:10432000D2B232B10DF1070201212046FFF74EFE55
:104330000FE09A6A12F47F4F05D00DF107010120BA
:10434000FFF708FF05E09B6AB3F5803F99D3FFF7BD
:10435000B5FE0346C2E70DF107020021E5E70DF1C6
:1043600007010020ECE70F4889E70F4B0F49104881
:1043700017F4F87FA6F1100208BF194607F027F9D5
:104380007FE76FF30802C1E700ED00E00BE80000F3
:1043900037E800004FE8000071E8000080E8000006
:1043A000A0E80000BDE80000DDE70000F2E7000043
:1043B000E2E80000044B5A6942F010025A615A695F
:1043C00022F008025A61704700ED00E0EFF3088028
:1043D000EFF3098101B57246FFF718FF01BD00BF79
:1043E000002080F31488BFF36F8F0F4880F3088894
:1043F00002F016FF00200D490860BFF34F8F00F058
:104400002BF8202080F3118809484FF404614018EC
:1044100080F30988EFF314800221084380F31488A5
:10442000BFF36F8F00F0B2F84066002094ED00E01B
:10443000803400200749D1F890200023C2F30722DE
:104440001846934200DB7047C1F89830C1F8A000CD
:104450000133F6E700ED00E008B572B6002383F300
:104460001388FFF7E7FF144B4FF0FF32C3F88020AB
:10447000C3F88420C3F88820C3F88C20C3F89020A8
:10448000C3F89420C3F89820C3F89C20C3F8802177
:10449000C3F88421C3F88821C3F88C21C3F8902184
:1044A000C3F89421C3F89821C3F89C2162B6BFF3E6
:1044B0004F8FBFF36F8F08BD00E100E01EF0040FC7
:1044C0000CBFEFF30880EFF30980816911F8021C3B
:1044D0000229FFD001B5724607F0BAFC01BD00BF4A
:1044E00040B2002807DB044A4109012300F01F0005
:1044F000834042F82130704700E100E040B20028DC
:104500000CDB4309064900F01F00203301228240E2
:1045100041F82320BFF34F8FBFF36F8F704700BF69
:1045200000E100E0054B420900F01F0053F8222093
:10453000012303FA00F01040704700BF00E100E0E3
:1045400040B20028A8BF00F1604001F10101B8BFEE
:10455000064B4FEA4111ACBF00F5614000F00F007F
:10456000C9B2B4BF195480F80013704714ED00E0CD
:10457000044B054A23F07F039360BFF34F8FBFF3D3
:104580006F8F70470000000000ED00E008B5FFF7F6
:10459000EFFF074AD2F8883023F47003C2F888305E
:1045A000FFF798FCFFF7A2FC00F0B0F803F006FB61
:1045B00000ED00E042F8203C009B42F81C3C0A4918
:1045C000019B42F8183C029B42F8143C21F0010187
:1045D0004FF0807342F8043C42F8081C0023203A54
:1045E00002654367704700BF591D0000094A034632
:1045F000906870B113F1160F006E05D0A0F1400263
:10460000934205D3834203D2814228BF00207047E2
:1046100000207047AC20002008B515460B4A0C4B13
:104620009060026F1A600E4600F0A0F82C4686F3E8
:1046300009880020034B98472046002100220023D0
:10464000014C204775BE0000591D0000AC20002021
:10465000F8140020014B10221A61704700ED00E0B1
:10466000054B5A699B689A421FBF044A536843F03E
:1046700080535360704700BFAC20002000ED00E085
:10468000084B9B6883420BD1EFF3058343B1064B84
:104690005A6842F080525A605A6A22F400425A62C2
:1046A00004F0DCB8AC20002000ED00E014498A687A
:1046B0004FF030001044EFF3098C80E8F01F202009
:1046C00080F31288BFF36F8F0E4F4FF000664A6978
:1046D0008A603E60106F0C4C2060506F002353675F
:1046E00080F3118804B5104600F040F8BDE804409E
:1046F00002F1300090E8F01F8CF309887047000049
:10470000AC20002004ED00E0F81400200448002351
:104710002021C2180133302B82F80013F9D17047E1
:1047200000E100E008B5EFF30583064A103B02EB19
:10473000C30152F8330049688847BDE80840FFF7D5
:104740008FBF00BFFCDD000001480068704700001B
:10475000F8140020024B034A0348012100F076B808
:104760000000022000000020D4E00000036E054A93
:10477000403B1360044B4021C2E901131046012164
:1047800000F06EB8FC14002000000B15084AC2F8B7
:1047900098000B6823F01F03034343F01003C2F893
:1047A0009C308B6843F00103C2F8A030704700BF13
:1047B00000ED00E02DE9F043DFF8608085B00E46A3
:1047C0001F4604464FF00009B14523DA6068D8B1AE
:1047D0003FB1411E08421BD11F2819D92368194235
:1047E00016D12368019307F068FBA3680343039382
:1047F000D8F89050C5F30725D0B2013DA84207D89C
:1048000001A9FFF7C3FF421C09F101090C34DBE7E2
:104810006FF01502104605B0BDE8F08300ED00E032
:10482000044B0522C3F89420BFF34F8FBFF36F8F63
:10483000704700BF00ED00E0BFF35F8F024B002226
:10484000C3F89420704700BF00ED00E010B5034CA2
:1048500001232278FFF7AEFF207010BDD22B00207D
:1048600008B50B4A00231278FFF7A4FF10F1160FCA
:1048700007D0084A0021D2F89030C3F307239842AA
:1048800000DB08BDC2F89800C2F8A0100130F2E7C2
:10489000D22B002000ED00E02DE9F0435A4B5B4D98
:1048A000D3F890302C68C3F307239C4285B000F204
:1048B000A780FFF7C1FF00200C2684421AD1544E76
:1048C000DFF8449134706846FDF784FC514C524D3A
:1048D00080460027B84514D133784B490020D1F8E1
:1048E0009020C2F307229342C0F28480FFF798FF22
:1048F000002045E0696806FB0011FFF747FF013023
:10490000DBE7009800EB07114FEA071CCB68234058
:10491000B3F5000F4DD00AD8B3F5001F33D0B3F56F
:10492000800F3BD0B3F5801F13D00137D2E7B3F12E
:10493000007F47D0B3F1805F4DD0B3F1807FF4D1D9
:1049400050F80C3088684A6807F0B7FA40F0887071
:1049500009E050F80C3088684A6807F0AEFA40F079
:10496000885040F43020CDE901230390D9F89030ED
:104970003078C3F30723013B984234D96FF0150018
:1049800005B0BDE8F08350F80C3088684A6807F03D
:1049900094FA40F0885040F40020E4E750F80C30DE
:1049A00088684A6807F089FA40F0007040F40030E7
:1049B000D9E750F80C3088684A6807F07EFA40F072
:1049C0008270D0E750F80C3088684A6807F075FAB2
:1049D00040F48020C7E750F80C3088684A6807F038
:1049E0006CFA2843BFE701A9FFF7D0FE3378013303
:1049F00033709AE7C1F89830C1F8A00001336EE730
:104A00004FF0FF30BCE700BF00ED00E0E0E0000049
:104A1000D22B00200000F0FF0000021108B505486D
:104A200006F0D5FD002383F31188BFF36F8F0423B5
:104A3000184602DF05E90000024B0122C3F84025B9
:104A40000020704700E0014048B1054B054A1B6853
:104A5000B3FBF2F35843044B43F00103184770478C
:104A6000D401002040420F0050E00000BFF34F8F00
:104A70000549064BCA6802F4E0621343CB60BFF3FA
:104A80004F8F00BFFDE700BF00ED00E00400FA0516
:104A900000F07F03082B42B204D010F0780F01D051
:104AA00000207047002A00F00F0300F0080004DA2D
:104AB00030B9054800EB4310704718B90348F9E7CF
:104AC00003487047034870475415002074160020AF
:104AD00054160020741700200149024808F07DBDDB
:104AE00030150020100400200146014808F009BDDF
:104AF0007002002002480022002303F0C9B900BF61
:104B00007002002013B5114800F080FE0446C8B9B9
:104B10000F4802F0DBFE0F4802F0FEFE0E490F4880
:104B200000944FF0FF334FF4806203F045FB0C49D3
:104B30000A4808F074FD0B490B4808F032FD204686
:104B400002B010BD6FF00404F9E700BF594D00003A
:104B500044EA000000E10000403000201004002082
:104B60000EE90000754E00003015002010B50E490A
:104B7000BFF35B8F002351E8002F012A03D141E8E6
:104B800000300028F7D1BFF35B8F0CD151F8044CF3
:104B90001439204606F014FE783004D12046BDE8D2
:104BA000104006F0E9BD10BD2815002038B50024DE
:104BB00064F07F00C0B2FFF76BFF013407F0A4F987
:104BC000082CF5D10E4D0024E0B2FFF761FF036918
:104BD00003B90561013407F097F9082C05F1400588
:104BE000F2D1084807F090F9074BD3F87C2212B9AC
:104BF000064AC3F87C22BDE83840054807F084B96E
:104C0000981B00205416002008150020981700203B
:104C10007417002008B5FFF76DFF20B14168024806
:104C200008F09EFBF7E708BD3002002007B500231F
:104C30000E48002201A903F03BF890B1FFF7EAFF0C
:104C40000A480022002301A903F032F838B901987C
:104C5000042340600374FFF747FFFFF73DFF002088
:104C600001E00198406003B05DF804FB30020020D1
:104C700010B50446FFF7DAFF60B100220274047237
:104C8000FFF732FF044B93F824301BB1BDE810400E
:104C9000FFF722BF10BD00BF08150020022803D86F
:104CA000024B185CFFF7E4BF704700BF41EA000009
:104CB00070B5817806460846FFF7EAFE0B06F578E0
:104CC000044612D5002D43D1FFF7B0FF034600285C
:104CD0003ED00122A5770274032202739C60FFF785
:104CE00003FFBDE87040FFF7F7BE4DB1012D2FD196
:104CF000FFF79CFF034658B3657705740573EDE72E
:104D0000FFF794FF20B3B278124B12F0800F02F03D
:104D1000080111D041B1D3F8A836E3600123037430
:104D2000022303738460DAE702F00F02142101FB0F
:104D30000233D3F80836F0E711B1D3F8A837ECE71F
:104D400002F00F02142101FB0233D3F80837E4E725
:104D500070BD00BF00700240F0B5064689B0142255
:104D6000002103A808F07BFF3378013B052B21D8F5
:104D7000DFE803F07A0314146A1603238DF8143065
:104D80000024FFF753FF0346A0B1047400F10802AA
:104D9000DDE9050182E8030018461DE00423EDE784
:104DA000B1780846FFF774FE837A044623B1013BCD
:104DB000022B43D909B0F0BD0B06F57813D5002DB1
:104DC000F8D1FFF733FF03460028F3D00122A5777F
:104DD0000274032202739C60FFF786FE09B0BDE8EF
:104DE000F040FFF779BE55B1012DE3D1FFF71EFF6B
:104DF00003460028DED0657705740573EBE7FFF7FF
:104E000015FF07460028D5D001230374022303733E
:104E1000846004F10C01B07807F0D6F8134AE16819
:104E2000B2F88C328B4206D95B1AA2F88C3201F0B0
:104E30002DF83846D0E7A2F88C52FAE7304609B090
:104E4000BDE8F040FFF734BF01A800F0FDFF9DF87A
:104E50000530052B04D19DF8043013F0600FA9D064
:104E6000034B059301248CE702248AE708150020F0
:104E7000741600202DE9FF41AD4C8046FFF73AFE45
:104E8000074610B904B0BDE8F08194F825303A7CAB
:104E90003BB9002A00F085807968A64808F060FADE
:104EA000ECE7042AF8D8DFE812F07C0005000201E4
:104EB000180133013B7BBD68032BEDD8DFE803F01D
:104EC000023C595E6E699C4B002232607260D3F8DE
:104ED00080143170D3F884147170D3F88814D3F827
:104EE0008C0441EA00217180D3F89014D3F8940423
:104EF00041EA0021B180D3F89814D3F89C3441EAF8
:104F00000323F3800823EB60306871688B4B03C385
:104F100011462B68687A984796F90030002B07DB1A
:104F2000F3889AB222B1A4F88C3200F0AFFFB3E755
:104F30000023A4F88C32AFE76B7F002BACD02B7F23
:104F4000002BA9D000266E774FF0FF327C482E77D9
:104F50004FF0FF3306F0EBFF6B6901936B68CDE90F
:104F6000023601A9687A00F0A3FC754806F0E1FF5B
:104F700092E72B680121687A98478DE7AB7A6BB985
:104F8000EB7F5BB96E484FF0FF324FF0FF3306F016
:104F9000CEFF00F081FF6A4806F0CBFF2B680221AC
:104FA000E9E73A7A042A3FF677AFDFE802F05B03DD
:104FB0002569750000F0EAFB054600287FF46CAF18
:104FC00000F07CFBBFF35B8F5E49012351E8002FAB
:104FD000002A03D141E800300028F7D1BFF35B8FEE
:104FE0007FF45AAF41F8085C41F8105CE0696361F6
:104FF000143906F076FB4FE7002565F07F00C0B25C
:10500000FFF746FD037A13B1407A01F0A5F80135A8
:10501000082DF2D194F854311BB194F8550101F0E8
:105020009BF80025E8B2FFF733FD037A13B1407A0D
:1050300001F092F80135082DF4D194F874321BB1C7
:1050400094F8750201F088F8002000F083FB01233A
:1050500084F825302368002B3FF41EAF0021022086
:10506000984719E7002584F8255000F0DDFFFFF789
:105070007DFD2368002B3FF40FAF29460420EFE7A6
:10508000002B3FF409AF00F08BFB2368002B3FF4AB
:1050900003AF00210520E3E72268002A3FF4FCAEBD
:1050A000002B3FF4F9AE002106209047F4E608F10A
:1050B00010054FF0FF334FF0FF32284606F037FF60
:1050C000FFF774FD284606F034FF58F8283C002B03
:1050D0003FF4E2AE00210120C2E794F874327BB1C4
:1050E000012584F8895284F88852FFF79FFD38B172
:1050F000154A057405738260FFF7F6FCFFF7ECFCB8
:1051000058F8283C002B3FF4C7AE00210A20A7E73F
:1051100007F035FD00F088FF00F0C6FAFFF77AFDD2
:10512000FFF744FD07F024FD084800F06FFBB3E6ED
:105130000815002030020020007002400C150020ED
:10514000401500202815002074170020594D00003C
:1051500038B5144C94F824500DBB04F1380008F015
:1051600049F9284601F056F92A460121E061272035
:10517000FFF7E6F907F0FCFCFFF718FD012384F8C0
:105180002430094B1B680BB1FFF7A6FC4FF080439E
:10519000D3F83834DB0702D50120FFF769FD002082
:1051A00038BD00BF081500207002002010B50D4862
:1051B0004FF0FF324FF0FF3306F0B9FEFFF72AFD44
:1051C00000F0E4FA08B100F02FFFFFF7CFFC07F082
:1051D000D6FC0548002480F82440383006F0A9FEAB
:1051E000204610BD4015002008150020074B93F8FD
:1051F00024203AB193F82530002B0CBF6FF0120039
:10520000002070476FF01200704700BF08150020A3
:1052100010B5104B93F824300146BBB104782046FA
:10522000FFF736FC10B96FF0150010BD44720B7912
:1052300083724B88436008784988030702D44B1E69
:105240000B42F0D106F0BBFE0020EEE76FF012003B
:10525000EBE700BF0815002010B5124B93F824208F
:105260000146CAB193F82530B3B1FFF711FC0446EB
:10527000A8B1837A012B12D007D9023B012B07D9A1
:105280006369A3610020E06010BD00F00BFEF7E74A
:10529000084600F0ADFDF3E76FF01200F4E76FF0A1
:1052A0001500F1E70815002038B50E4B93F82420BF
:1052B000054682B193F825306BB1FFF7E9FB68B181
:1052C00015F008040AD1284600F0B4FD284600F085
:1052D0007BFF204638BD6FF01200FBE76FF0150032
:1052E000F8E700BF0815002038B50C4B93F82420D0
:1052F00005460C4662B193F825304BB1FFF7C8FB69
:1053000048B141B1284600F07BFD2070002038BD37
:105310006FF01200FBE76FF01500F8E708150020AA
:1053200070B5134E96F824300446C3B1FFF7B0FBB6
:105330000546B8B1230705D4204600F07BFD204682
:1053400000F042FF2B7A83B901232B7296F82530A7
:105350000BB9002070BD204600F0FEFEF9E76FF0AB
:105360001200F7E76FF01500F4E76FF07700F1E750
:10537000081500202DE9F043DFF8DC801F4698F87F
:10538000243085B0044689461646002B5DD098F837
:105390002530002B59D003065AD5FFF779FB054677
:1053A000002855D0037A002B52D04FF0FF334FF036
:1053B000FF3208F1380006F0BAFDAB7F4BB108F1BF
:1053C000380006F0B6FD6FF00A04204605B0BDE8CF
:1053D000F08316B9EB7F03B1EE77AB7ABBB95EB160
:1053E000B8F80A309E4207D26A68B6FBF2F302FBB5
:1053F00013630BB90123EB7700F05AFD844206D00A
:1054000000F04AFD154806F094FD0024DDE7012375
:105410002046AB774FF0000801A9CDE90196CDF801
:105420000C8000F045FA044658B185F81E802FB96B
:105430006FF00404094806F07CFDC6E7C7F8008059
:10544000F6E7002FF6D03E60F4E76FF01204BCE7F9
:105450006FF01504B9E700BF0815002040150020C3
:105460002DE9F0411D46204B174693F824200E46A7
:10547000002A33D093F8253083B3030631D401B921
:105480007FBBFFF705FB044658B3037A4BB34FF0DD
:10549000FF3316484FF0FF3206F049FDE368BB4288
:1054A000984628BFB84646B93FB905B12B600F48AA
:1054B00006F03FFD0020BDE8F081A169424630467C
:1054C00008F0A6FBA3694344A361E368A3EB0803C8
:1054D000E360002DEBD0C5F80080E8E76FF0120024
:1054E000E9E76FF01500E6E70815002040150020F9
:1054F00070B51E4D95F82420034682B395F82520FB
:105500006AB31B062ED4FFF7C3FA044650B3037ADE
:1055100043B34FF0FF334FF0FF3205F1380006F090
:1055200006FDE368B3B9012663692677A361637F4B
:1055300083B1FFF77BFB30B905F1380006F0F9FCC9
:105540006FF00B0070BD067484600673FFF7CCFA31
:10555000FFF7C2FA064806F0ECFC0020F2E76FF015
:105560001200EFE76FF01500ECE700BF0815002010
:105570004015002008B5084B93F824302BB1FFF7F5
:1055800087FA28B10160002008BD6FF01200FBE728
:105590006FF01500F8E700BF08150020014B1860F8
:1055A000704700BF0815002008B5074B93F824305A
:1055B00023B1FFF76DFA20B1406808BD6FF012000B
:1055C000FBE76FF01500F8E708150020064B10F018
:1055D000800F03F1D80218BF134600F00F00182205
:1055E00002FB0030704700BFD81D0020EFF3118090
:1055F000202383F31288BFF36F8F0A4BD3F8001C6C
:10560000032261B949F27531C3F8001CC3F8142DA7
:10561000C3F8001C80F31188BFF36F8F7047C3F885
:10562000142DF7E700E00640EFF31180202383F309
:105630001288BFF36F8F0A4BD3F8001C61B949F28F
:105640007532C3F8002CC3F8141DC3F8002C80F386
:105650001188BFF36F8F70470022C3F8142DF6E74F
:1056600000E0064008B54FF08053D3F830310D2BE1
:1056700001D1FFF7BBFF0B4B0122C3F80025D3F884
:1056800000241205FBD54FF40062C3F800244FF04C
:105690008053D3F830310D2B03D1BDE80840FFF71C
:1056A000C3BF08BD00700240024A00231360024AD3
:1056B00013707047901F0020D72B0020F8B51E4FA5
:1056C0004FF400634FF08054C7F80034FFF7CAFF6F
:1056D000D4F830310D2B04D1184D2B7803BBFFF7D4
:1056E00085FF154B8022C3F81C250122C3F8302505
:1056F000134B40F2FF121A60124A00231360124A41
:105700001370124A1370124B02221A704FF080531A
:10571000D3F830310D2B0ED1BDE8F840FFF784BF30
:105720000026C7F80065FFF79DFF2E70D4F83031D2
:105730000D2BD6D1D3E7F8BD00700240E801002060
:105740008C1F0020881F0020D32B0020D52B002089
:10575000D72B0020094B002210B51A70084A094BBC
:10576000094C002808BF1346C4F800332720FEF771
:10577000B7FE0123C4F8043510BD00BFD62B0020AE
:10578000FDFFDF01FDFFFF0100700240034B1878B1
:10579000012894BF00200120704700BFD72B0020B4
:1057A00010B54FF0FF324FF0FF33154802F0D6FB33
:1057B000EFF31181202383F31288BFF36F8F114B16
:1057C0001B7803F0FF0483B10F4BD3F8002412F4CD
:1057D00000720AD10120C3F82C05D3F82C05D3F8A8
:1057E0000004800502D5C3F82C25002481F311881C
:1057F000BFF36F8F024802F07DFB204610BD00BF53
:1058000060020020D62B002000700240F8B51C4B2F
:105810001C7894BB1B4A106001221A7040F2FF17DB
:10582000264664F07F0514F0080FEDB214BF394628
:105830004021284606F0C3FB2846FFF7C7FE013487
:10584000092C867506730661EBD1002440F2FF1720
:10585000254614F0080FE6B214BF39464021304601
:1058600006F0ADFB3046FFF7B1FE0134092C85751B
:1058700005730561EDD10020F8BD6FF07700FBE7FF
:10588000D72B0020901F0020084B10F0800F14BF72
:10589000D3F81035D3F8143500F00F0201209040F2
:1058A0001840003818BF0120704700BF0070024048
:1058B0002DE9F843024606F07AFBEFF31188202326
:1058C00083F31288BFF36F8F130703D1174B1B7835
:1058D000934224D1164B174F1C683E68E4434FF0A7
:1058E0000109A4B209FA00F534432C401AD110463C
:1058F000FFF76CFE80F80C90034607C91C6183E833
:1059000007009C750C4B2E4380223E602046C3F856
:10591000042188F31188BFF36F8FBDE8F8836FF01F
:105920000D00F6E76FF00F00F3E700BFD52B002066
:105930008C1F0020881F002000E100E010F0080FFD
:10594000074B06D0D3F8C00410F4803F18BF0020E6
:10595000704700F00F0000F5947053F82000704776
:10596000007002402DE9F04F584BDFF86491D3F8F6
:10597000542185B0EAB10022C3F85421D3F80413AE
:10598000890216D58DF80C20D3F82025ADF80E200D
:10599000D3F8C034002BD9F8003014BF4FF00122E7
:1059A0004FF480721343C9F800304A4B03A81B68B8
:1059B0009847464BD3F8604134B10022C3F86021C8
:1059C000D3F86C44C3F86C44D3F828214AB10022C0
:1059D000C3F82821404B187806F0E9FA01238340E8
:1059E0001C43DFF8F8A09AF800509AF9006015F00F
:1059F000080005F00F0236D1002EB4BF384B394BEA
:105A000091000B441968DFF8E08041B30021196070
:105A10002E4B78BB8E424FF0140101FB0233B4BF12
:105A2000D3F80836D3F80837304A117803F0010369
:105A30004B4013702E4802F05DFA2846FFF7C6FD72
:105A4000837D032B1DD1284606F0B1FA012303FA0A
:105A500000F0D8F8003023EA0003C8F800301D4FEA
:105A60000125062671E0234B234933EA260328BF8C
:105A70000B46C7E7002EB4BFD3F8A836D3F8A83733
:105A8000D2E7037BE3B9284606F091FA012303FA33
:105A900000F0D8F80030002E23EA0003C8F80030E8
:105AA00001DA882DDBD106238DF80C3000238DF828
:105AB0000F30084B8DF80E501B6803A89847CEE7AF
:105AC000002DCCD1014B0122DA64C8E700700240FE
:105AD0008C1F0020901F0020D52B0020D42B0020ED
