:10000000003600201963000033E2000005630000A1
:1000100005630000056300000563000000000000A8
:10002000000000000000000000000000F563000078
:1000300005630000000000001D660000056300006D
:1000400095660000956600009566000095660000C4
:1000500095660000956600009566000095660000B4
:1000600095660000956600009566000095660000A4
:100070009566000095660000956600009566000094
:100080009566000095660000956600009566000084
:100090009566000095660000956600009566000074
:1000A0009566000095660000956600009566000064
:1000B0009566000095660000956600009566000054
:1000C0009566000095660000956600009566000044
:1000D0009566000095660000956600009566000034
:1000E0009566000095660000956600009566000024
:1000F0009566000095660000956600009566000014
:1001000001F0FF01102A2BDB10F0070F08D010F8C8
:10011000013B013A8B422DD010F0070F42B3F6D1CC
:10012000F0B441EA012141EA014122F007047FF0E5
:1001300000070023F0E80256083C85EA010586EA3C
:10014000010685FA47F5A3FA87F586FA47F6A5FA78
:1001500087F68EB9EED1F0BC01F0FF0102F0070284
:1001600032B110F8013B013A83EA010313B1F8D12F
:100170000020704701387047002D06BF3546033810
:10018000073815F0010F07D1013015F4807F02BF49
:10019000013015F4C03F0130F0BC0138704700BF9A
:1001A0007BB972B90029BEBF00204FF0004106E0C4
:1001B00008BF00281CBF6FF000414FF0FF3000F077
:1001C00057B8ADF1080C6DE904CE002909DB002B0E
:1001D0001ADB00F057F8DDF804E0DDE9022304B093
:1001E0007047404261EB4101002B1BDB00F04AF8F5
:1001F000DDF804E0DDE9022304B0404261EB410197
:10020000524263EB43037047524263EB430300F0F7
:1002100039F8DDF804E0DDE9022304B0404261EB87
:1002200041017047524263EB430300F02BF8DDF8C5
:1002300004E0DDE9022304B0524263EB430370475C
:1002400053B94AB9002908BF00281CBF4FF0FF313D
:100250004FF0FF3000F00CB8ADF1080C6DE904CEA2
:1002600000F010F8DDF804E0DDE9022304B0704787
:10027000704700BF034613F8012B002AFBD1181A60
:10028000013870472DE9F0478C468E46089E15468A
:1002900004461946002B40F0D080724547D9B2FA87
:1002A00082F74FB1C7F120030EFA07FC20FA03F3DF
:1002B000BD4043EA0C0CBC404FEA154EA8B2BCFB53
:1002C000FEF8230C0EFB18CC08FB00F943EA0C43A4
:1002D000994528D9EB1808F1FF3204D2994502D983
:1002E000A8F102022B44A3EB0903A4B2B3FBFEFC6A
:1002F0000EFB1C330CFB00F044EA0344A04214D96B
:100300002C190CF1FF3304D2A04202D9ACF1020344
:100310002C44241A43EA02401EB1FC4000233460FE
:100320007360BDE8F0874246DDE76346F1E7002AE7
:1003300079D0B2FA82F3002B3FD01946C1F12003E5
:1003400002FA01F52EFA03F20EFA01FE20FA03F387
:1003500043EA0E034FEA154E00FA01F4B2FBFEFC2D
:10036000AFB20EFB1C201A0C0CFB07F842EA00424D
:1003700090455AD9AA180CF1FF3004D2904502D901
:10038000ACF102002A44A2EB08029BB2B2FBFEFCD5
:100390000EFB1C220CFB07F743EA02439F4246D99F
:1003A000EB180CF1FF3204D29F4202D9ACF10202E9
:1003B0002B44DB1B42EA004202E0AEEB02030122C7
:1003C0004FEA154EAFB2B3FBFEFC200C0EFB1C3304
:1003D0000CFB07F840EA034398452AD9EB180CF1C7
:1003E000FF3004D2984502D9ACF102002B44A3EBB4
:1003F0000803A4B2B3FBFEFC0EFB1C330CFB07F797
:1004000044EA0344A74216D92C190CF1FF3304D255
:10041000A74202D9ACF102032C44E41B43EA00409A
:100420000F46114678E71F2188E76046ABE7624632
:10043000BFE76046DBE76346EFE7734506D916B9C9
:10044000002108466DE7C6E9000EF9E7B3FA83F725
:1004500087B9734501D3824207D8841A6EEB030330
:1004600001209C461EB900215BE73846FAE7C6E941
:10047000004CF8E7C7F1200CBB4022FA0CF51D43F5
:1004800020FA0CF12EFA0CF30EFA07FE41EA0E01E7
:100490004FEA154900FA07F4B3FBF9F81FFA85FE95
:1004A00009FB18300B0C08FB0EFA43EA00439A458F
:1004B00002FA07F240D9EB1808F1FF3004D29A454E
:1004C00002D9A8F102002B44A3EB0A0389B2B3FBC3
:1004D000F9F809FB183308FB0EFE41EA03418E458B
:1004E0002CD9691808F1FF3304D28E4502D9A8F13E
:1004F0000203294443EA0040A0FB0298A1EB0E014D
:100500004145CE46434602D306D14C4504D2B9EB11
:10051000020E68EB05030138002EA4D0B4EB0E02E6
:1005200061EB030101FA0CFC22FA07F34CEA030326
:10053000F940C6E9003196E74046C5E74346D9E7AA
:1005400010B501210446A8B100200CF0B8FF014607
:10055000202002F0D7FE0146A8B9012108460CF080
:10056000AEFF0146202002F0CDFE014658B9074BF0
:100570001C7608E00CF0A3FF0146202002F0C2FE2A
:1005800001460028EBD0084610BD00BF40170020F0
:100590002DE9F04F0024DFF8B8B089B005460F46CA
:1005A00090462646A24695F82030A34204D8EEB9DC
:1005B000304609B0BDE8F08F05EB44090DF11E018E
:1005C00015F814008DF81EA08DF81FA00DF002F88C
:1005D00099F8011015F8140002F094FE15F8142093
:1005E00038B11C48434639460DF0C6FC6FF004068E
:1005F000DEE710460DF11F010CF0ECFF15F814209A
:1006000018B1154843463946EEE74FF42073CDE95B
:1006100003B39DF81F30029399F801300193013420
:100620009DF81E300093E4B21346214695F8202031
:10063000384603F055FE18B1084859460DF09CFCA9
:1006400099F801209DF81F309A4218BF0136AAE799
:100650008119002054F9000088F9000081FE000093
:100660002DE9F04F4F4CA37F95B03BB1E37F2BB109
:1006700094F8203013B194F8213073B9E38B228CB5
:1006800013439BB213B1636A01336362454B00228B
:10069000DA831A8415B0BDE8F08F0CF021FF0B4609
:1006A0004149A68A91F81480A1681091E1681191DE
:1006B0003E49E78A096812913D49B4F818C091F89B
:1006C0000090616A13913B49B4F81AE091F800B0C8
:1006D00094F822100246D4E90005A0EB050A00298F
:1006E0005BD02169A48BCDF834B0CDE90E141399F9
:1006F000CDE90B911299CDE909E111990491109975
:10070000CDE90080CDE9077CCDE905A6CDE9025110
:1007100029480DF031FC264B1B78002BB6D0214B1D
:10072000264C9E8ADD8AD3E90072A36ABF1A33B9C8
:10073000C4E90677276126846684A584E584676119
:100740000CF0CEFEA3699F42E369B8BFA7619F4248
:10075000238CC8BFE761B342638C88BF2684B34251
:10076000A38C38BF6684AB42E38C88BFA584013E6E
:10077000AB42B6B240F6FD7338BFE5849E42C4E991
:10078000020103D8013DADB29D4202D9012384F894
:100790002C30A36A0133A36278E74FF0FF310C4697
:1007A000A1E700BF0814002040170020A816002071
:1007B0007A19002081130020BBF90000D813002013
:1007C000F0B585B0DDE90A650C460C49096865B1EC
:1007D0002F7857B1CDE90023CDE9026502462346C3
:1007E00007480DF0C9FB05B0F0BDCDE90136009218
:1007F0002346024603480DF0BFFBF4E7A81600208D
:1008000062FA0000B3FA00007FB500230C460DF138
:100810000F018DF80F30054616460CF0DBFE9DF8F3
:100820000F3048B1CDE90006084822462946FFF7B7
:10083000C7FF002004B070BDA34205D0CDE900067B
:10084000224603482946F2E70120F3E7FDFA0000BB
:1008500009FB000073B54378D32B064650D8CF2B45
:1008600050D9D13B022B51D8DFE803F002524E00A1
:100870000025294C63199B7F0BB1FFF7F1FE04EBB8
:100880004503B6889E82002002F062FF042D16BF49
:10089000224B03221A780146304602F0EBFF621920
:1008A0000123042D44F82500937784F8233018D1D0
:1008B00094F83020AAB92569A5F68C22B2F5167FE6
:1008C0000FD9284684F830300CF05DFF03220192E6
:1008D000A28B0092034640F6B832114829460DF02B
:1008E0004BFBA37F4BB1E37F3BB194F8203023B1A6
:1008F00094F821300BB1FFF7B3FE012002B070BDB8
:10090000E02B07D00020F9E70225B2E70325B0E786
:100910000125AEE70425ACE7081400208113002070
:1009200019FB00002DE9F0418CB0174698460023D2
:1009300006468DF82A308DF82B30ADF82C3038462D
:100940000D460DF12B0301210DF12A020DF038F8AF
:100950009DF82A10304602F0D5FC70B12D4B029361
:100960000023CDE900332C49CDF80C800122184634
:100970000CF0C4FD6FF0040441E09DF82B102846F4
:1009800002F0C0FC0028E9D102220BA9304602F097
:10099000F1FC04460028E1D19DF82C209DF82A00A6
:1009A0009DF82D109DF82B30904219D09DF82D30D8
:1009B00008939DF82C3007939DF82B3006939DF8F3
:1009C0002A301549CDF80C80CDE90473134B0293FE
:1009D0000023CDE90033012218460CF08FFDC9E752
:1009E0009942E3D10CF0F8FFB842DFD1692E0AD169
:1009F0006A2D04D10A4B18800A4B01221A70204636
:100A00000CB0BDE8F0816C2DF9D1074B1880074B75
:100A1000F3E700BF65FB0000CCF3000080FB0000A3
:100A2000F21800207F190020F01800207E19002005
:100A30001FB5012108460CF0ADFF0146832002F0EE
:100A400061FC044640B9064B06490090CDE901031C
:100A5000032203460CF052FD204604B010BD00BF37
:100A6000D1FB0000CCF3000010B501460446002085
:100A70000CF0B0FD30B9044A2378117803F0030379
:100A80000B43137010BD00BF801900202DE9F04FFB
:100A90008FB0002407468A468DF837400CF020FDC1
:100AA00005460DF137000E46FFF7DEFF58B14B4902
:100AB00000974B4809682A4633460DF05DFA2046F8
:100AC0000FB0BDE8F08FDFF81CB19DF837309BF810
:100AD0000090DFF8148143EA0904C3F38002C4F3F1
:100AE000400113F004030A920B9104F0020204F097
:100AF00001040FD098F80030FF2B0ED00133DBB289
:100B0000012B88F8003008D1A2B1384B1B7863B9AB
:100B1000E4B925E088F80030F6E7344B1B78002B69
:100B2000F2D0334B0121197012B1324B01221A70ED
:100B3000B4B103E0A4B12D4B1B783BB12E4B2F4831
:100B400001221A70254B19680DF016FA2C4B0293EE
:100B50000023CDE900332B49012218460CF0CEFCCE
:100B60009DF83730DFF8A0C0284ABAF1000F11D144
:100B70009CF8001099420DD1B9F1000F0AD1D2E9C9
:100B8000000147F2305E281A66EB0101704571F1F1
:100B9000000120DBC2E90056144A8CF800300997A6
:100BA0001278089298F800200792C3F380120692F8
:100BB000DA09CDE904420B9A03920A9A0749009395
:100BC000CDE901923346096811482A460DF0D4F95F
:100BD00000238BF80030012072E700BFA816002028
:100BE000ECFB00008019002079190020031C002074
:100BF0007819002077190020021C00201FFC00003B
:100C000041FC0000CCF3000080130020D013002032
:100C1000DEFC00002DE9F04F9DB00DF128092322E4
:100C2000DFF8008207460C46484600210EF018F90E
:100C300000257D488DF8265013A98DF827500DF01A
:100C4000DBF898F80030002B00F0C2806FF004034E
:100C5000764900930194097875482B462A46FFF798
:100C6000AFFD00260BE01CAA02EB4303224613F85B
:100C7000231C13F8240CFFF7C7FD013605409DF82F
:100C80006C20F3B29A42EED86A4B1E78002E00F028
:100C9000A18069480DF1270300880DF1260201218A
:100CA0000CF08EFE9DF8261022466920FFF7ACFD61
:100CB0009DF82710064622466A20FFF7A5FD06404C
:100CC0002E405E4B1D78002D00F08F805C480DF1AA
:100CD000270300880DF1260201210CF071FE9DF81A
:100CE000261022466B20FFF78FFD9DF82710054642
:100CF00022466C20FFF788FD05403540DFF844A10F
:100D0000514EDAF800B00CF0EBFB0B464FF42071BB
:100D1000079145490696CDE9041100210246CDE927
:100D20000111CDF80C900097584603F0EFF948B147
:100D3000002C65D02378002B62D0444822463146EF
:100D40000DF01AF94FF420730093414A3E4B364997
:100D5000DAF8000003F06EFA48B1002C55D0237881
:100D6000002B52D03849394822460DF005F90121AF
:100D70003846FFF78BFE064648B96FF00403009330
:100D800002460346014601943248FFF719FD3146F9
:100D900098F8002028460DF09CF82F4BDAF8001048
:100DA0001A78C2F38003C2F3400502F001068CB347
:100DB00094F800C0BCF1000F2CD0CDE90160CDE962
:100DC0000374264800950DF0D7F81DB0BDE8F08FEC
:100DD000012546E76FF03C03009321480194334618
:100DE00032466921FFF7ECFC6BE76FF03C030093A0
:100DF0001B4801942B462A466B21FFF7E1FC7DE757
:100E0000114918480DF0B8F89CE70F4915480DF046
:100E1000B3F8ACE7CDE90207CDE9005612480DF072
:100E2000ABF8D2E77D190020401700207C19002084
:100E30006FFD00007F190020F21800207E190020AD
:100E4000F0180020A8160020811900200AFE0000DA
:100E5000DC16002090FD0000801300209EFD0000A5
:100E60007DFD000081FE000015FE000038B5064D36
:100E700001460446A8780CF021FD0146242002F02A
:100E800041FA00B9EC7538BD401700201FB5224C5F
:100E9000617D237DA1B9012B18D008460CF07AFDA5
:100EA0000146832002F02EFA237D012B0ED0022B67
:100EB0001BD01A4B02930023CDE9003302221FE01E
:100EC000012B03D00020FFF7D1FFEDE7144B1549AC
:100ED0005B680393144B02930023CDE90033032294
:100EE00018460CF00BFB04B010BD0020FFF728FBE8
:100EF000034640B10D4B02930023CDE9003301229C
:100F00000849184605E00A4A06490090CDE9010261
:100F100003220CF0F3FAE6E740170020C2FF0000BE
:100F2000AC160020CCF3000085FE0000EEFE0000B1
:100F300011FF0000F0B52E4B8DB0054600201C6956
:100F400002F006FC09AB0246294620460CF0FFFBE6
:100F500078B1284B02930023CDE90033264903954D
:100F6000012218460CF0CAFA6FF0150420460DB0A5
:100F7000F0BD224BBDF82C206A216920FFF7D2FC7E
:100F800010B16FF00404F1E71D4BBDF82E206C2169
:100F90006B20FFF7C7FC04460028F2D10F200CF0AD
:100FA000BCFA2046BDF82C6002F0D2FB0146304668
:100FB0000CF0BFFB06462046BDF82E7002F0C8FBC1
:100FC000014638460CF0B5FBBDF82E300693BDF84F
:100FD0002C3005930B4B08490094361ACDE9014398
:100FE000CDE903562346032220460CF087FABDE7DD
:100FF000401700204F000100CCF30000430801001F
:101000006A0001006F000100002108B508460CF0DD
:10101000C1FC0146832002F075F900217B2002F01B
:1010200071F9084900220B79C97910460CF0A6FC29
:101030000146802002F066F9034B5868BDE808407D
:10104000FFF778BF40170020AC1600202DE9F041D3
:1010500005468CB000200E46174602F079FB0021B1
:10106000044608460CF096FC0146832002F04AF93B
:1010700028B16FF0040528460CB0BDE8F08106AA3F
:10108000214670190CF02EFB10B16FF02105F2E72C
:101090000DF11A02214630460CF024FB0028F4D151
:1010A000274BBDF818206A216920FFF73BFC002878
:1010B000DFD1244BBDF81A206C216B20FFF732FCE6
:1010C00004460028D5D1204A204B8DF82770CDE961
:1010D000072348F67C03ADF824307D238DF82630B5
:1010E0001B4B0A9380238DF82C30024603460146A1
:1010F00001200CF043FC0DF11C088DF82D0098F830
:10110000011098F8000002F0FDF805460028B0D163
:101110000134092C08F10208F1D10F200CF0FDF97F
:10112000384602F02FFA0B4B0B490095CDE9030628
:10113000CDE9015303222B4628460CF0DFF99AE74C
:10114000B6000100C5000100780079007A097B999A
:101150007F00A005D5000100CCF300002DE9F04F81
:10116000A04EA149ADF5077D042230460DF08DFE5D
:10117000002842D1337913F0DF0F01D0092B3CD185
:10118000984854AA6DA903F039F958B99DF850014F
:1011900003F028F9014695480CF0EEFE0DF5077DA9
:1011A000BDE8F08F924B1B7813B1924879A9F3E711
:1011B000914B6F9ADB689A4204D0904879A90CF061
:1011C000DBFEEBE76DAC0FCC8D4D0FC50FCC0FC523
:1011D00094E80F0085E80F004FF4207300938948CE
:1011E000894B79AAA5F1200103F006FA10B18649CE
:1011F0008648D1E7864879A9CEE714AD40AC7E4950
:1012000078482B46224602F07FFB08BB814B7E4C80
:101210001F680CF065F90B464FF420710246CDE9CA
:10122000016403910095384603F082F818B17748BD
:1012300021460CF0A1FE78496A4805220DF025FEF2
:101240000028ABD1287802F04BFB01467348A3E796
:101250002378013B072BA1D8DFE813F008000C002E
:101260000F0014001900C301DC011B026C4B0122AA
:101270001A7093E76A4B0222FAE76A484BA9FFF714
:10128000C9FC8BE768480121FFF700FC86E794F86A
:101290002110664A664BDFF8608141AE00290CBF21
:1012A000914699460FCE20AF3D460FC596E8070000
:1012B000464685E807000FCE0DF19C0A55460FC53E
:1012C00096E8070085E8070064225A49514E6DA848
:1012D0000DF0B8FD98F81730FB7554A998F8183040
:1012E000DFF80C813B7638461AAD02F0B7FD009569
:1012F000637898F8002054A9384602F091FEC8B9E6
:101300003768414E0CF0ECF80B464FF42071024662
:10131000CDE9019603910095384603F009F818B11C
:101320003A4831460CF028FE94F82130002B3FF467
:1013300035AF87E70DF1B80B54ABCDF800B03A46A6
:101340006DA950460CF01FFC98F80030356803B3C7
:101350009DF8DA30EBB16378DBB9374E0FCE37AF9B
:101360003C460FC496E8030084E803000CF0B8F88C
:10137000254C00970B464FF420710246CDE90194AD
:101380000391284602F0D4FF00283FF407AF21461E
:101390002EE7DAF80C20FB689A421FD1DAF8102009
:1013A0003B69B2EB030818BF4FF00108BAF80030F0
:1013B0009DF8D82011933B889AF814A097F814B0A0
:1013C0001293002A3CD1B8F1000F39D1DA4537D158
:1013D0009DF8D93019484A462946F0E64FF00108F1
:1013E000E4E700BFF6180020160101001B01010010
:1013F000031C0020320101004017002052010100AF
:10140000AC160020960101008119002081FE000029
:10141000A5010100A8160020CF010100D50101009F
:101420007B190020ED010100F1010100F80101002C
:101430003F090100DC16002030F40000FC0101002F
:10144000013535600CF04CF80B464FF420710791D4
:10145000A6490691024620A92EA827AE059104961A
:1014600003906078029094F82000CDE9009028461F
:1014700002F04CFE9D4910B19D480CF07DFD4FF4EB
:101480002073009354AA994B20A9284602F0D2FE5B
:1014900018B1964996480CF06FFD964A964C29462D
:1014A0002EA8FFF775F8D0B90DF1800EBEE80F0039
:1014B000A446ACE80F009EE807008CE807008F48C0
:1014C000642254A90DF0BEFCB8F1000F31D0E068E1
:1014D000FFF730FD68B38A4829460CF04DFD0DF149
:1014E000DC096DAB324654A93846CDF800900CF0BB
:1014F0004AFB29469DF8FC2082480CF03DFD294618
:10150000814A7D4D4846FFF743F80FCE0FC596E858
:10151000070085E80700794864226DA90DF092FC68
:10152000B8F1000F02D0E068FFF704FD7748012111
:10153000AAE6DA4504D0764B1B780BB9FFF7A6FC78
:1015400074480121FFF7A2FA10B973482946C4E78D
:10155000724B734893F800A09DF8D93003939DF81F
:10156000D83002930AF001030193CAF340030093B9
:101570005246CAF3800329460CF0FEFC1AF0040F11
:101580000DF1B80905D06748524629460CF0F4FC25
:10159000A5E7DDE91132934213D0584B62481A6C2B
:1015A0000592DA6B0492B3F844200392DA6A02924D
:1015B0001A7C01925A6800921B68627821780CF0BC
:1015C000DBFC99F82230002B3FF4E8AD504B1B7840
:1015D000002B3FF4E3AD554B554801221A702946C4
:1015E000DAE5626A534D0023FF2A8DF8B43104D93D
:1015F000296851480CF0C0FCD0E56DA9D0B20BF0C1
:10160000E9FF00909DF8B431626A29684B480CF0FC
:10161000B3FCC3E500238DF850318DF8B431D4E923
:10162000092342EA0301FF29424D02D929684448AF
:10163000C5E5617811B929684248C0E5424B0126E9
:101640001E70424BD0B254A918700BF0C3FF94F82F
:10165000281094F8240001F055FE6DA994F8240098
:101660000BF0B8FFA26A9DF8B4110092D3B2A3EBBD
:101670000109D9F1000343EB0903CDE90113344813
:1016800029689DF85031626A0CF076FC3148314689
:10169000FAE5656A274F002D15DD2F4BA5F57A7207
:1016A0009A4212D93C68DFF8B4800BF019FF0B4660
:1016B0004FF47A71CDE90118024600952848214679
:1016C0000CF05AFC6AE542F21075114B1B78002BA6
:1016D0004AD06278002A47D13C680BF001FF0246ED
:1016E00020480B4621460CF047FC57E581190020A5
:1016F00081FE00001E02010040170020DC160020C1
:1017000024020100BE030100E0030100DB0301002D
:10171000031C00204502010051020100801300203B
:1017200084020100E102010016030100021C0020F6
:1017300092030100A8160020E90301001A04010029
:1017400047040100770401007D1900207C19002066
:10175000B304010009050100D8D00100C0D4010084
:1017600013050100490501008C4E727D3AB93C68B1
:101770000BF0B6FE02460B4689482146B3E7327DA0
:10178000012A07D13C680BF0ABFE02460B468548A8
:101790002146A8E7F27D96F81890119233B1824B5A
:1017A0003968824801221A700CF0E6FBDFF800A2CB
:1017B000804CDAF850303022002120464FEA4308AE
:1017C0000DF04EFB0BF08CFEC4E900010B461199A5
:1017D000CDF80880CDE90391DAF85010CDE9005139
:1017E0000246396874480CF0C7FB0020FFF73EFB47
:1017F0000020FEF7A5FE4FF0000AD04500F3BF80A1
:10180000302200216B480DF02BFB0BF069FE6B4B77
:10181000C4E9000101221A704FF0000801F098FE9F
:1018200008F114080BF09EFE14200BF076FE4545DF
:10183000624BF3DC0025D4E902011D70D4E90032CB
:10184000B0EB030A61EB0203BAF1010F129373F1DB
:101850000003C0F29E80D4E904315948C91A5246A7
:10186000129B81FB0001FEF79BFC05468846A36A9C
:10187000042B40F2908094F82C30002B40F08B80A9
:1018800015F1C80140F2911248F10003914273F141
:10189000000334BF4FF0010B4FF0000B3B68139374
:1018A0000BF01EFEE38C0F93A38C0E93638C0D93B1
:1018B000238C0C9394F82C30CDE90858CDE90AB369
:1018C000E3690793A3690693636905932369049306
:1018D000129BCDF808A00393A36A009302460B461F
:1018E000384813990CF048FBB9F1000F08D00120DB
:1018F000FEF726FE14200BF010FEF068FFF71AFB2F
:101900001198FFF7B3FA0BF01BFE48B12E4B029370
:101910000023CDE900332D49012218460BF0EEFDDE
:10192000002454A920208DF850418DF8B4410BF0CB
:1019300051FE6DA924200BF04DFE3D680BF0D0FD4B
:101940000B46317E9DF850719DF8B4C18945024621
:10195000F07DF66806D1119CA4EB000EDEF10004C8
:1019600044EB0E04CDE90010CDE904C41848294623
:10197000CDE902670CF000FB1648012184E401F078
:10198000E7FD0BF0EFFD14200BF0C7FD0AF1140A80
:1019900033E7A8466BE74FF0000B7FE740170020C6
:1019A00088050100CA050100021C00202006010074
:1019B000DC160020D8130020480601007A19002008
:1019C00040420F009906010057070100CCF30000C8
:1019D0009B070100EC0701007FB51D4D1D4C0DF16B
:1019E0000F000BF00DFE012805D01B4B18780022CC
:1019F0001A7004B070BD9DF80F102A780D2901D01F
:101A00000A2919D18AB1154B1E680BF069FD0B46E6
:101A10007F210191216800910246314610480CF067
:101A2000ABFA00232B702360D9E723680D492260AD
:101A3000CA54FFF793FBD2E72668731C002AF2D141
:101A40007F2B03D82360074B9955C8E72870EAE736
:101A500076190020A01600207B190020A81600206F
:101A6000F5070100F61800202DE9F04F95B0CDE9FB
:101A70000C2383469DF878300A9300200C4601F031
:101A800067FE0DF14202014604EB0B000BF02AFE4B
:101A9000002840F0E380BDF8422040F6FE739A42F1
:101AA00000F2DC80704B6A216920FEF73BFF28B111
:101AB0006FF00404204615B0BDE8F08FBDF8421069
:101AC00001318CB2A120C1F3071101F01BFC0028E9
:101AD000EED104F00F01A22001F014FC034600280F
:101AE000E6D10121024608460BF058FF01461020BE
:101AF00001F008FC04460028DAD10DF13F00FEF7A2
:101B0000B3FF012120460BF045FF0146832001F081
:101B1000F9FB04460028CBD10BF0E2FC10F11E05C6
:101B200041F1000612A983208DF848400BF052FDC8
:101B30000028BDD19DF84830D9070BD50BF0D0FC5B
:101B4000A842B14103DAFA200AF0E2F8EAE76FF0BE
:101B50007304AFE7022210A90C2001F00BFC04462D
:101B60000028A5D19DF840109DF8413001F07F0A72
:101B7000490001F48071194350460BF04CFEA04619
:101B80000746254626461FFA88F39F4234D8002E82
:101B900067D0082128460BF05CFD00220B909DF8D1
:101BA0007C10DFF8C880284601F0F4FC304B0A9A1C
:101BB000D3F80090464261EB410709F10101196039
:101BC000002A36D00BF08CFC0D9B09930C9BCDE9C1
:101BD00007B3D8F8003006930B9B0022CDE904A38D
:101BE0000423CDE90232CDE9006702462B462148A5
:101BF00049460CF0C1F95DE7032211A90E2001F05E
:101C0000B9FB00287FF454AF12A911A80BF0D1FD45
:101C100000287FF44DAF9DF84A303BB99DF849301C
:101C2000042B02BF0136BDF84C50B6B208F10108D2
:101C3000A9E70BF055FCD8F8003006930B9BCDE9D3
:101C400004A30A9B0393042302930246CDE9006791
:101C500009482B4649460CF08FF92BE76FF0210419
:101C600028E76FF03C0425E73F080100A816002094
:101C7000A416002048080100A40801002DE9F04F37
:101C8000BDB00BF0B9FC054670B1634B0293002365
:101C9000CDE900336149012218460BF02FFC4FF4C7
:101CA0007A700BF03AFCFAE70BF0A8FC044670B12E
:101CB0005B4B5A490095CDE9015301222B4628463A
:101CC0000BF01CFC4FF47A700BF027FCFAE7554B35
:101CD000554D52490090CDE90103032203460BF014
:101CE0000DFC21461A2251480DF0BAF82146302247
:101CF00028460DF0B5F84D484D4A2A616422841EED
:101D0000AA61A2F52F72C823EA614FF41678322235
:101D1000C5E90133C5E9088240F20511454AE3608F
:101D2000454B20F8021C01264449AA6220460322A2
:101D30004FF4966985F82C2085F82E206271C4E94D
:101D400004932672A672267602F088F83C4B1E6039
:101D50000BF0C6FB0B463B490091024631463A4820
:101D60000CF00AF94FF420730093384A384B394885
:101D7000294602F041FC18B1354937480CF0FCF80F
:101D800001F03AFB70B1354B02930023CDE90033EB
:101D90002249012218460BF0B1FB4FF47A700BF088
:101DA000BCFBFAE701F08AFA20BB8DF8900024A969
:101DB000FF200BF00FFC0646E0B99DF8903003932E
:101DC000274B16490090CDE90103032203460BF08F
:101DD00095FB9DF89020531EDBB2FD2B46D9214B7D
:101DE0000392CDE901630D49009633460122304646
:101DF0000BF084FB1C4B02930023CDE90033074911
:101E0000012218460BF07AFB01F0A2FB4FF47A7026
:101E10000BF083FBF8E700BF80090100CCF3000062
:101E2000B4090100E1090100AC16002042170020AE
:101E300020BF02001E00010002010501DC16002087
:101E4000A8160020490A01001F0A0100510A0100DA
:101E500081190020560A010081FE0000600A01007D
:101E6000940A0100AE0A0100280B01003246A37952
:101E7000012130460BF09CFD0146142001F042FA8E
:101E80000646002840F0C68064200BF046FB324630
:101E90003146A37930460BF08BFD0146142001F04A
:101EA00031FA0646002840F0B58064200BF035FB7F
:101EB00033463246314601200BF07AFD01461420AC
:101EC00001F020FA0646002840F0A4800A200BF01A
:101ED00024FB3146A379324630460BF069FD0146BA
:101EE000142001F00FFA002840F094800A200BF033
:101EF00014FB4CF22053ADF89030AE4B259349F2D1
:101F00002103ADF89830607DAB4B279354238DF8B7
:101F1000A03020B1A94B032118780BF027FDA84B66
:101F2000299381238DF8A830637D8DF8A100002BC3
:101F300000F0818062798DF8A920002B0CBF00236E
:101F40000F238DF8B1309F4B2D934FF055038DF833
:101F5000B8300CBF002309239B4A8DF8B9309B4B46
:101F60002B922F93562222230021A07A8DF8B020A5
:101F70008DF8C0300BF097FC954B61788DF8C1005F
:101F80003193207823238DF8C8300BF090FC914BCF
:101F90008DF8C900339301212423A0788DF8D03027
:101FA0000BF08CFC8C4B35934FF4B473ADF8D830F8
:101FB0008A4B379340F29543ADF8E030884B399324
:101FC000002280238DF8D1008DF8E830E179237963
:101FD00010460BF0D3FC834B8DF8E9003B9324AE05
:101FE000002796F800807178404601F08BF920B305
:101FF0003CAB03EBC707CDF8108057F85C3C03936C
:10200000794B02930023CDE9003378490122184629
:102010000BF074FA764B02930023CDE90033734939
:10202000012218460BF06AFA01F092FA4FF47A7026
:102030000BF073FAF8E71A467DE701370C2F06F12B
:102040000806CED114200BF068FA5C4B0120187002
:10205000637DE3B9002026696F6801F079FB21AB4D
:102060000246394630460BF072FB6A680346C0B13F
:10207000059222695F4B02930023CDE90302CDE96B
:1020800000335A49012218460BF038FAC2E70321FF
:102090000BF06CFC0146542001F034F90028D9D033
:1020A000B8E70792229A0692BDF88E200592219AEF
:1020B0000492BDF88C2003924F4A4C490090CDE920
:1020C000010203220BF01AFA4C4BBDF88C206A2156
:1020D0006920FEF727FC00289CD1494BBDF88E20D3
:1020E0006C216B20FEF71EFC0546002892D10F20C4
:1020F0000BF013FA40F6B83121A80BF047FB50B1B2
:10210000404B0390CDE90153384900952B460222FC
:1021100028460BF0F3F9207801F02AFA217880465E
:10212000607801F073FA322241F2883106460BF0F2
:102130009DFA054658B1344B02930023CDE9003394
:1021400003962A49012218460BF0D8F962E71020BD
:102150000BF058FB2D4B254900954FF01009074611
:102160000322CDE90309CDE9015328462B460BF0A4
:10217000C5F939460F2001F0C5F801231946074675
:102180002A4618460BF00AFC0146484601F0BAF808
:1021900007437FF43FAF2378A2792179A0780BF031
:1021A000A1FB0546B0B31A4B0390CDE9017300972C
:1021B0003B46C6E7460B0100C20B0100811300201D
:1021C000E50B01007E0C01003B0C0100C10C01007D
:1021D0000F0D01003C0D01005E0D0100A60D010078
:1021E000D80D01000F0E01004D0E0100CCF30000D0
:1021F0006D110100660E01009D0E010043080100F3
:102200006A000100E50E0100410F0100AF0F01005F
:10221000D50F01002078A77894F806900BF0FEF90E
:1022200049460246384601F09DFAA17907462079D1
:1022300001F0CCFAA1798146207901F0C7FA824BEE
:1022400093FBF0F3CDE90493804B8149039703227C
:10225000CDE9015328462B4600950BF04FF9A078A5
:1022600001F0ACFA074620780BF0DDF9C7F1100356
:1022700000FA03F3CDE90573764B75490790CDE974
:10228000015328462B4600950322CDE903860BF027
:1022900035F920AB1FAA21786078CDE91F5501F0F0
:1022A000E9F930460BF0CEF907461F980BF0CAF952
:1022B0003146814640460BF0C8F9674B0397CDE99C
:1022C0000153CDE904902B4600952846604903222E
:1022D0000BF014F9614BB3F8447088FB0753002BE3
:1022E00004DA4FF6FF72AD1843F100032D0C3046AF
:1022F00045EA03450BF0A6F93146A0EB0509404637
:102300000BF0A3F9CDE90375281A554B50490293F8
:1023100000252B460322CDE90590CDE9005528463E
:102320000BF0ECF81F980BF08DF94E4A4E4B4849D4
:102330000095B0F5485FC8BF134603934B4B03228B
:10234000CDE9015328462B460BF0D8F8637D5BB1ED
:10235000FEF76EFB034638B9454A3D490090CDE98A
:10236000010203220BF0CAF84248434D0021FEF758
:1023700051FC0024414B3649029303222346204658
:10238000CDE900440BF0BAF801F0E2F81394002C08
:1023900040F084803A4B2A781B683A4C002A4BD094
:1023A00001932B8D0093D5E90823E96936480BF09A
:1023B000E3FD364E294F01F0CBF8FFF70DFB012866
:1023C0006CD0637D83B30BF0CDF80BF089F896F8F1
:1023D00023304BBB637D3BB33A6DD3179B0043EA7D
:1023E00092739200904271EB03031DDBD6E90A233E
:1023F00052EA030C08D0821A47F2305C61EB030307
:10240000624573F100030FDB214A00234FF0030CF8
:10241000C6E90A01CDE90132CDE9033C0C4900933C
:10242000022218460BF06AF800211A48FEF72EFB2C
:1024300014200BF072F8BEE70093637D227DE16803
:1024400015480BF099FDB4E740420F00FF0F010063
:10245000CCF300002510010070100100DC160020F4
:10246000C2100100E9080100000901002711010064
:102470008B110100510A0100AC160020E11101008E
:10248000A816002040170020361201000814002072
:10249000A51201007C13010072120100139BAC4EC7
:1024A00001331393AB4B00221A702B78002B70D0A2
:1024B0002B8D01936B6A0093D5E907231399A648E6
:1024C0000BF05AFD337DEC68022B1AD10120FEF788
:1024D00037F848B1A14B02930023CDE90033A0495E
:1024E000012218460BF00AF814200BF016F89D4B49
:1024F00002930023CDE900339949032218460AF0DC
:10250000FDFF337D012B27D0002701208DF890702F
:10251000FEF7ACFC0BF014F848B1934B90490097D0
:10252000CDE9017301223B4638460AF0E7FF24A9B2
:1025300024200BF04FF8034670B99DF890200392C9
:1025400012F001012BD1894B0091CDE90113012239
:102550000B4683490AF0D2FF2B7833B395F82C2031
:10256000E8694FF44871FEF771FD10B36B6803938F
:102570007F4B02930023CDE90033794901221846AD
:102580000AF0BCFF00F0E4FF4FF47A700AF0C5FFD8
:10259000F8E7F268139977480BF0EEFC92E7764A79
:1025A0000090CDE901020322D3E76868FEF7C2FC80
:1025B000DBE72B78002B40F08A80337D022B40F044
:1025C0008680002C40F085806C4B65490094CDE9F5
:1025D00001430122234620460AF090FF0AF080FFC3
:1025E0000B46674909680191696800910246654890
:1025F0000BF0C2FC2B782BB995F82D300E93002BE5
:1026000000F0F8810AF06CFF5F4B4FF0010983F88E
:1026100000905E4B00221A702B78CDE91101002B3F
:1026200000F0668195F82C20E8694FF44871FEF7B8
:102630000DFD8346002800F0DE800024A2462646D9
:102640006FF0040B504B00221A70FEF7DDFCFEF712
:102650001DFC0AF045FF119BB0EB0308129B61EBD8
:1026600003092B78002B00F09881D5E90737FF1A72
:102670006B8D97FBF3F72B8D5F43454B7F000393E7
:10268000444B02930023CDE90033354906961846A2
:10269000CDE9077ACDE9048903220AF02FFF384BF0
:1026A00029781B68002C40F08081BBF1000F40F0BE
:1026B0009581002900F0948103932B8D3648029375
:1026C000CDE900893A4631460BF056FC62E6002C13
:1026D00084D004946B6803930027304B0293CDE9B8
:1026E00000771F493B46032238460AF007FFB946E8
:1026F00000F02EFF737D0BB10AF034FF0021284853
:10270000FEF7C4F9FFF768F9431EDBB2012B8046E0
:1027100050D82449244A1A4B2878244C1B6800932B
:10272000B8F1010F18BF0A4619493B46002808BFF7
:1027300021461F480BF020FC08F1FF372B787C4224
:102740007C410BB1FEF760FCFEF7A0FB1FE600BF6B
:1027500040170020011C002081130100DC13010040
:10276000CCF30000FB130100261401006E140100DD
:102770000A150100BE130100D21401003915010031
:10278000A8160020E1150100031C0020021C0020F7
:102790002409010066170100DE170100251601005B
:1027A000A2160100320901002A09010027090100CF
:1027B000A81601004F450FD30AF092FE0B46A6491A
:1027C00009680391696800970246CDE90141A34871
:1027D0000BF0D2FB07F57A79A4EB0708B8F1140FD8
:1027E00028BF4FF01408404647440AF096FEBC420A
:1027F0003FF67EAFFEE6D5E907239B1A6A8DB3FB51
:10280000F2F310930AF06CFECDE91401DA465E464D
:102810002B8D4B4501D2002414E700230D930D9B13
:10282000002B14BF4FF0FF3301230F934FF000082C
:10283000109B43450AD10D9B01330122022B0D92BF
:10284000EDD109EB02031FFA83F9E1E700F080FE06
:10285000FFF7C2F8044600287FF4F4AE0F9B012B6B
:1028600008BFEF696B8D16BF2F6A08FB037308FB67
:1028700013730E9395F82C300193012300930E9857
:102880000F9B4A464FF44871FFF7EEF8074678B1C0
:102890000E9B0393724B02930023CDE90490CDE984
:1028A00000337049012218460AF028FEBB46C9E6EB
:1028B0006B8D4FF47A72534301366A6AB3FBF2F3BD
:1028C000149AA3FB06379C18159B43EB07070AF0E5
:1028D00007FE201A67EB0107012877F1000704DBE8
:1028E0000AF01BFE08F10108A2E70AF1010AF9E764
:1028F000D6E9030195F82E20FEF7A8FB83460028B1
:102900007FF49BAEAB692F691F44013FB7FBF3F324
:102910000D930AF0E5FD544F0E918146DA465E466E
:102920002C7D1CB90D9BB3427FF68CAE00F010FEDF
:10293000FFF752F8044600287FF484AE95F82E3055
:10294000CDE9000302460346D7E90301FFF78CF8FF
:10295000804660B1454B0390CDE901434149009465
:102960002346012220460AF0C9FDC3466AE6AB6948
:102970000E9C0136C846E6FB03840AF0B1FDB8EBB5
:10298000000064EB0104012874F1000402DB0AF08A
:10299000C4FDC5E70AF1010AC2E7AB692F691F440C
:1029A000013FB7FBF3F7324B69E6BBF1000F15D1DE
:1029B000304A3148012C08BF024630480293334662
:1029C0002F4E002918BF06463146CDE90089661E04
:1029D0002C480BF0D1FA74427441D8E42A4AECE74F
:1029E0002A4A1278CDE90089CDE9023231463A46C9
:1029F000274869E6F1686A68914228DB29DD254BA2
:102A00000392CDE904130027234B164902930322B6
:102A10003B463846CDE900770AF070FDF068FEF7D6
:102A200089FAF368044600283ED003931B4B0D49F6
:102A30000097CDE9017301223B4638460AF05EFD5E
:102A400000F086FD4FF47A700AF067FDF8E7144B4A
:102A5000D6E7144BD4E700BFA8160020DB16010010
:102A600021170100CCF30000401700204C17010093
:102A700037090100320901002A0901002409010077
:102A800027090100A817010045090100021C0020C8
:102A90001D180100620901005D1801007E18010087
:102AA000580901004E0901002A699D490090CDE9AD
:102AB00003329C4B0322CDE9010303460AF01EFDBD
:102AC00001231946224618460AF068FF01461020E5
:102AD00000F018FC98B1944B029300231846CDE9FE
:102AE00000338F4901220AF009FD6868FEF722FAD7
:102AF00000F02EFD4FF47A700AF00FFDF8E7FDF7B5
:102B000097FF04460028E6D10AF0EAFC10F57A7334
:102B1000149341F100031593844B1A6A2B69012A1F
:102B2000B8BF0122013B1344B3FBF2F30D93337999
:102B30001693CDE910010AF0D3FC0B467C490968D5
:102B40000391F16802910D99019129690091024662
:102B500078480BF011FA784B714901221A70774BC3
:102B60001C70774B1C70774B1C70774B1C70F36894
:102B700004930D9B0393754B0094CDE9014303220D
:102B8000234620460AF0BAFC274612942C7D34B91D
:102B90000D9B9F4203D32646A0460E942AE200F0E6
:102BA000D7FCFEF719FF0128044600F02483022811
:102BB00000F024832B7D002B40F0AE800D9BDB1BAF
:102BC0009BB217930222002320A90C20ADF880307D
:102BD00000F0D0FB0446002800F0C08000230F93D3
:102BE0000F9B1F440AF07CFC149A9042159A0B46E6
:102BF0009341CDE91701C0F2B9820024544BADF8DE
:102C0000804020461E69D3F80CA0ADF884408DF8B2
:102C100079408DF87A408DF87B4000F099FD24AB27
:102C20000246514630460AF092FD0646002840F022
:102C3000DC814FF002098046022220A9692000F0C1
:102C400099FB0222044621A96B2000F093FB0DF1B1
:102C50007901199020200AF0BDFC0DF17A011A903B
:102C600068200AF0B7FC0DF17B01834614200AF0BE
:102C7000B1FC199B1C431A9B1C4344EA0B0B5BEAF7
:102C8000000B40F06F819DF881109DF880000AF0E4
:102C9000A3FE9DF8851080469DF884000AF09CFEF6
:102CA000BDF898304345064640F05C81BDF89A3047
:102CB000834240F057819DF87930C52B40F0528116
:102CC0009DF87A30012B40F04D81214B5A469B797B
:102CD000594658460AF06CFE9DF87B30984240F009
:102CE00041819DF87A3002939DF879300390CDE9C7
:102CF000006318484346524639460BF03DF91648E2
:102D00005946FDF7C3FE0E4B1C78002C00F01A82CA
:102D10002646D8465C466DE14FF6FF7351E700BF8B
:102D2000CCF30000AD180100DF180100DC16002014
:102D3000A8160020FB180100031C0020021C002024
:102D40007819002077190020791900204E19010008
:102D5000401700202B1B0100C22601009DF8802097
:102D60009DF88130D10943EA012002F07F0B1B90CE
:102D7000014658460AF04FFD189000283FF42EAF48
:102D8000BBF1000F0CD01423CDE903B3684B6949A4
:102D90000094CDE901430222234620460AF0AEFB0F
:102DA000654C207800F0E4FB21781990607800F001
:102DB0002DFC002680460F96032221A90E2000F04C
:102DC000D9FA044600287FF40BAF24A921A80AF001
:102DD000F0FC034678B1594B56490094CDE90143C4
:102DE0000222234620460AF089FB189A0136B3B224
:102DF0009342E1D3F4E69DF89220002A71D19DF828
:102E00009190B9F1000FF0D11999BDF894004246A4
:102E10000AF049FC4A4B1A90B3F84410BDF89400EC
:102E20000AF017FC474BBDF894A01B780446002815
:102E30006DD0984225D0E0070FD540460AF002FC3D
:102E4000414B3C49CDF80090CDE903A0CDE9019379
:102E500001224B4648460AF051FBA10711D54146D5
:102E60001998BDF894900AF0F0FB384B02930023B8
:102E7000CDE90390CDE900332E49012218460AF02E
:102E80003DFB304BBDF894A01C709DF891301C9315
:102E90009DF890301D932E4BD3F8009009F101025C
:102EA0001A600AF01DFB2B491D9B096803931C9BAC
:102EB00002931A9BCDF810B0CDE905411A99DB17A2
:102EC000CDE9001302465346234849460BF054F817
:102ED0000F9B01339BB20F930F9A179B934284D899
:102EE0007EE69DF89120FE2A0AD11B9A03921B4A86
:102EF00010490090CDE9010202220AF0FFFA6FE6C4
:102F000024A8FDF7A7FC00287FF46FAF77E7002B1C
:102F1000B7D0134B0749CDF80CA0CDE901030090C1
:102F2000034603220AF0EAFAABE74FF0010983E611
:102F30009D190100CCF3000040170020D1190100B9
:102F4000DC160020011C0020451A0100C41A0100F3
:102F5000A4160020A8160020A4080100F3190100FF
:102F6000101B010001200AF0D8FAB9F1010FDCD1E1
:102F70009DF87B3005939DF87A3004939DF8793065
:102F8000B548CDF80480CDE90263BDF89A300093CE
:102F90005246BDF8983039460AF0EEFFBDF89A3037
:102FA000AE49CDF80CA0CDE90663BDF898300026F7
:102FB000CDE90483AA4B02934A4633463046CDE915
:102FC00000660AF09BFA1FA88DF87C60FDF74CFDA7
:102FD000044600287AD0A34B0096CDE901634A4607
:102FE00033469E4918460AF089FA00260123B04666
:102FF00034460E939C4B6868DFF870A24FF00009CE
:1030000083F80090FDF796FFFDF740FF0AF068FA9D
:103010000B46DAF800100191696800910246944865
:103020000AF0AAFF0AF05CFA6B680993129B0893F6
:103030000D9BCDF80090CDE90673109BC01A119B33
:1030400061EB03018B4BCDE90401CDE901934846C7
:103050004B468249DFF8209203220AF04FFA002CF7
:1030600040F0D180B8F1000F40F0CD80002E00F08C
:10307000D480824B824A1978824B00290CBF90463B
:1030800098460AF02DFA99F800300393DAF80030E8
:103090000293109BC01A119B61EB0301CDE9000163
:1030A0003A46794841460AF067FF002E3FF46FA97F
:1030B000764B02930023CDE900336849CDF80C80AC
:1030C000012218460AF01AFAFFF761B99DF87C3020
:1030D0006249009003F001020B92C3F340020A928E
:1030E000C3F380020992C3F3C0020892C3F3001233
:1030F0000792C3F380120692DA09CDE90432644BD9
:103100000393644B0322CDE9010303460AF0F6F969
:103110009DF87C305A0709D55F4B50490094CDE9A2
:1031200001434A46234620460AF0E8F99DF87C30E0
:103130009B077FF55AAF594B02930023CDE900332B
:1031400001224EE7564B1E78002E7FF425AD149BCE
:1031500013F57A731493159B149A43F10003159396
:10316000179B9342189B159A9341F0DA0F9B13B962
:10317000129B013312934B4C169B2679B3420FD00E
:103180000D9B3649CDE90463169B0393464B02938E
:103190000023CDE90033022218460AF0AFF9267960
:1031A0002C7D1CBB0D9B9F4203D30026B0460E9680
:1031B00020E70AF095F9109BC01A119B61EB0301FF
:1031C0002B6903F51C531033834274EB01010DDAB4
:1031D0000D9B22490094CDE90373344B0122CDE9C4
:1031E0000143204623460AF089F9DEE714200AF05D
:1031F00094F91696CAE40026B046FBE6002634464B
:103200004FF00108F6E6002E7FF433AF284A294B31
:10321000002C0CBF9046984633E70E9B4BB1264BD3
:103220000E490096CDE901630122334630460AF08B
:1032300065F90AF055F999F800300393DAF800308F
:103240000293109B0D9AC01A119B61EB0301CDE90B
:1032500000013946FFF7CCBB791B0100CCF300001D
:10326000F71B0100471C0100031C0020A8160020CA
:10327000371E01007A1E0100021C00207819002070
:103280006C09010074090100CC1E01000D1F010032
:10329000591C01006E1C0100DC1C0100551D0100C1
:1032A0007719002040170020891D0100011E010030
:1032B000320901002A0901007F1F01001FB50D48D6
:1032C0000BF0F3FC70B90C4B029300231846CDE9C8
:1032D00000330A4901220AF06DF96FF0120005B0BF
:1032E0005DF804FB06480BF0E0FC0028EBD0002062
:1032F000F5E700BF70F10000E71F01009CF300003C
:1033000038F100002DE9F0418CB007AB089303239E
:10331000002509934FF0010808AB06460F468DF8CB
:103320001C008DF81D508DF81E100A93CDF82C80CE
:103330000C480D4983680AAA1C682B46A04704461E
:1033400060B10A4B0A490396CDE90470CDE90153F7
:1033500000952B46424628460AF02CF920460CB030
:10336000BDE8F08170F100006CF40000062001005F
:103370009CF30000F0B5074695B0154600292FD004
:1033800072B3802300268DF81D3007ABCDE90F26E0
:103390000C93139202230CAACDE9082310AACDE9BD
:1033A0000D36CDE91131CDE90A238DF81C000E4808
:1033B0000E49836808AA1C680AABA047044660B19E
:1033C0000B4B0C490397CDE90450CDE901630096FE
:1033D0003346012230460AF0EDF8204615B0F0BD24
:1033E0006FF01504F9E700BF70F100006CF4000005
:1033F0002B2001009CF3000070B54FF0804588B091
:10340000D5F8783513F001033DD00024434B0293E7
:10341000CDE9004442492346012220460AF0DDF866
:10342000C5F878454FF080420025D2F810353C4968
:103430003C4E23F01F0343F00F03C2F810353A4B04
:1034400002932846CDE900552B4603220AF0C5F821
:10345000364830600BF029FC0346F0B9344A304955
:103460000090CDE9010201220AF0B7F86FF01204D2
:10347000304B02930023CDE900332949012218463D
:103480000AF0ABF826E02C4A25490093CDE9013239
:10349000184603220AF0A1F8C4E7284B0FCB04AC6E
:1034A00084E80F003068836821469B68244C984765
:1034B0000028206011DA234B0390CDE9015318490D
:1034C00000952B46012228460AF087F82468002C34
:1034D000CED10024204608B070BD30688368022138
:1034E0001B689847044658B1174B0390CDE9015328
:1034F0000B4900952B46012228460AF06EF8B7E7E3
:103500004EF660230393114B05490090CDE901036A
:10351000032203460AF061F8DBE700BF57200100F1
:10352000B4F300005C1700201A21010054F10000E0
:103530004A210100D7210100DC20010048F40000ED
:10354000C0110020642101008321010098210100A5
:10355000054B186830B1054B1968002902DB8368F8
:10356000DB681847704700BF5C170020C0110020BF
:1035700005289ABF024B53F820000020704700BF77
:1035800088F4000003289ABF014B185600207047AA
:103590005749010010B504460846FFF7F3FF80B312
:1035A000062A2DD8C2F10802D3171B0343EA12538F
:1035B0001203A11A63EB4302C3174B4300FB023310
:1035C000114AA1FB00100344A1FB020102FB0311FD
:1035D000002908DB10F5803041F10001400C40EA81
:1035E000C130491410BDD0F5803061EB4101400C71
:1035F00040EAC13040424FEA614161EB4101F1E7ED
:1036000000200146EEE700BF005ED0B210B50246D2
:103610000846FFF7ADFF0446501E062805D8DFE830
:1036200000F0060D16241C1F2200002010BD601D96
:103630000A220023C117FCF7B3FDF7E7052000219C
:103640004FF0020C0A220023C4FB0C01F3E7601CBC
:10365000C317400840EAC370E8E744F63820E5E7BE
:1036600049F64040E2E70248E0E742F22830DDE771
:10367000803801002DE9F041044608461E46FFF758
:1036800077FF0546601E1746062805D8DFE800F0DC
:103690000C233656494E53000020044607B13C60C7
:1036A00006B13060BDE8F0814FF032080924404691
:1036B000002164220023C5FB0401FCF771FD642294
:1036C00004460023404600214FF00B0CC5FB0C01C3
:1036D000FCF766FDE2E74FF0320812244046002175
:1036E00064220023C5FB0401FCF75AFD6422044652
:1036F0000023404600214FF0160CE7E74FF0320858
:103700002D244046002164220023C5FB0401FCF760
:1037100047FD642204460023404600214FF0370C49
:10372000D4E745F2F0504FF47A54B7E74BF2B0309B
:1037300048F2D044B2E70448044CAFE742F6F82020
:1037400041F65834AAE700BF486B0100B8050100F4
:1037500003289ABF024B33F910000020704700BFC6
:103760009CF800000F2819D80A280BD92AB90D484F
:103770000D4B002918BF184670474EF663204CF6D3
:103780000203F6E73AB9094B094A002918BF134664
:1037900053F820007047074B074AF6E74FF0FF3019
:1037A000704700BF8BA903000620030070F50000DE
:1037B00044F5000018F50000ECF400000A289ABF58
:1037C000014B185C102070475B4901000F280ED890
:1037D0000A2805D9074B0848002918BF1846704722
:1037E00019B1064B53F820007047054BFAE74FF02C
:1037F000FF307047062003008BA9030044F500004A
:10380000C0F4000038B50AF05EF8154604460846D4
:103810000AF063F8032D84BF0334A408A0420246D3
:1038200007D9041B04480023A4FB0001FCF708FD92
:1038300038BD0020FCE700BF40420F000A28054BBE
:1038400028BF0A2002EB410203EBC000D2B230F9DC
:1038500012007047FCF800000A28054B28BF0A2018
:1038600002EB410203EBC000D2B230F91200704704
:10387000A4F80000002970B52CDD02F00302164BFD
:1038800053F82230C0F30B0484FB0140D917614385
:1038900003FB0015A4FB0341104B53F82200C6178D
:1038A000330369184FEAC62643EA10534FEA003241
:1038B00046EA50564FEAC02005D4201841EB0601D5
:1038C000FCF76EFC70BD001B66EB0101FCF768FCA9
:1038D0004042F7E70020F5E7B0F40000A0F4000054
:1038E00010B5074A002312F83340844202EBC301AB
:1038F00001D1486810BD01330E2BF4D10148F9E71E
:103900008CF600002D2201002DE9F04F97B0804683
:103910000F46154600210F220CA81C460BF0A0FAFA
:103920000023CDE90A33002C00F07D82C4E9043382
:103930002380B8F1000F40F084820023C4E90433EF
:10394000062309E04046FCF795FC7F2809D924B1FD
:103950007F236361206101232380002017B0BDE82D
:10396000F08F5022002128460BF07AFA0FCF2E1D3F
:103970000FC697E8070086E8070098F80030202B6C
:103980004646424608F10108F7D0092BF5D0002B36
:1039900000F04082232B00F03D82069212F8013B9A
:1039A00013F0DF0F01D0092BF7D1069BA44AA3EB3C
:1039B0000608414630460AF070F80746002840F0F5
:1039C000D781A04A414630460AF067F8002840F007
:1039D000D9819D4A414630460AF05FF88146002869
:1039E00040F0D381994A414630460AF056F80746DE
:1039F000002840F0CD81964A414630460AF04DF805
:103A0000002840F0C981934A414630460AF045F803
:103A10000746002840F0C0818F4A414630460AF0F0
:103A20003CF88146002840F0BA818C4A4146304635
:103A30000AF033F80746002840F0B481884A41462E
:103A400030460AF02AF8002840F0B081002C84D0DB
:103A50000023C4E9043302237EE7197820299A461B
:103A60001A4603F10103F8D00929F6D0002900F025
:103A7000A081069212F8013B13F0DF0F01D0092B51
:103A8000F7D1069B774AA3EB0A06314650460AF067
:103A900004F8804640B101236B70069B1B78002B15
:103AA00000F08781069BD8E732463D215046FCF75F
:103AB00027FB049050BB172E00F2BF8132465146BF
:103AC00010A80BF0BFF906F158030DEB0306049B99
:103AD00006F8183C09A910A809F082FF002800F098
:103AE000AC81BBF1010F08DD002C3FF436AFC4F808
:103AF00010B00223636105232EE716AB03EB8B03A3
:103B0000099A43F8302C0BF1010BC6E7049B013EE8
:103B1000A3EB0A01761A002900F08F81002E00F035
:103B20008C81B9F1030F3AD14F4A0591504609F003
:103B3000B4FF059990B395F82C302BB14A4ACDF8D3
:103B40000080434604214FE0202E05D92023464A19
:103B500000933346072147E0049AB01812F8013F5A
:103B6000A3F1300109290BD923F02001413919298A
:103B700006D92D2B04D0002200923B4A062133E0C7
:103B80008242EBD104993246013105F12C002E44DA
:103B90000BF058F9002386F82C307EE78046334A34
:103BA00007914FEA08135046D35805931A4609F077
:103BB00074FFE8B908F10108B8F10F0F0799EED1C9
:103BC0000F2928BF0F210D460A460390514610A821
:103BD0000BF038F905F158030DEB0305039B05F8CD
:103BE000183C10AA00930321204609F08DFFB4E68B
:103BF00008F158036B4413F828ACBAF1000F03D056
:103C00000023059A00939DE7039B0F2B05DD002CF5
:103C10003FF4A3AE236110236CE7B8F1020FCDF897
:103C200024A007D1049B124A3146581C09F035FFE5
:103C300000285AD1172E1DD90023059A00939DE71D
:103C40002F220100352201003A2201003E2201000C
:103C500045220100CF010100492201004E2201004E
:103C600053220100572201005D2201009CF5000053
:103C70006122010004993246013110A80BF0E2F8EC
:103C800006F158036B44002603F8186C09A910A824
:103C900009F0A6FE03460028CFD06B4A099B02EB31
:103CA0000812D2E901219A4201DC8B4202DD059A19
:103CB00000914FE7304608F158020DEB0201012256
:103CC00001F8282C03995FFA88F8114408F1FF38AD
:103CD0000391B8F10D0F0AD8DFE808F00B0D1416A8
:103CE0001820222A323A3C3E40485346E3E72B71E3
:103CF000D3E66B71D1E610B10023EB71CDE6AB7169
:103D0000EA71CAE62B72C8E66B72C6E6B3F1000A26
:103D100018BF4FF0010A85F80AA0BEE6EB72BCE6B8
:103D2000B3F1000A18BF4FF0010A85F80CA0B4E601
:103D3000B3F1000A18BF4FF0010A85F80DA0ACE6F8
:103D4000B3F1000A18BF4FF0010A85F80EA0A4E6EF
:103D50002B61A2E66B61A0E62B769EE6B3F1000A2A
:103D600018BF4FF0010A85F819A096E6AB7694E6E5
:103D70004FF0010900274FF0000B85F80090CDF8B7
:103D80000CB08AE64FF00209F5E74FF00309F2E7BD
:103D90004F464FF00409EEE74FF00509EBE74FF00F
:103DA0000609E8E74F464FF00709E4E74FF0080936
:103DB000E1E7B9F1030F0AD1039A6B7852EA0B02DB
:103DC00000D14BB30093039B204A5B44C2E62FB360
:103DD000BBF1020F04D0022300931D4A5B46CDE6DF
:103DE0000A9A052A04D9052300931346194AB1E615
:103DF0000B9B072B03D90721174A0091F4E66B713F
:103E0000039B2A7102330393012385F82130039B1E
:103E100085F820300120A1E5002FDCD10A9B6B62E0
:103E20000B9BAB62F3E7B8F1000F3FF496AD002FA8
:103E30003FF493AD002D7FF485AD002C7FF47DAD74
:103E40008BE5002FF6D178E59CF50000ED0101002F
:103E50003F0901009626010066220100F7B50C46D5
:103E60000546002800F0D180002900F0CE806422B1
:103E7000002120460AF0F4FF4FF0FF336363EA7835
:103E80005AB90193AA792979287801AB09F042FD42
:103E90000028A2BF019BA8706363287809F0BEFBCD
:103EA00006462878FFF764FB206029786878FFF7DA
:103EB000ADFB606004F10C032978687804F1080216
:103EC000FFF7D8FBA878FFF779FC2074A87809F0F1
:103ED000FAFC6061287909F000FDA0613246A979F9
:103EE000A878FFF73FFCE061A9792879FFF76EFC1D
:103EF00020622A782979A878FFF784FC6062287804
:103F000009F091FB237CA062C3F110039840E062AA
:103F1000A979A8783246FFF791FC2086A979A8787C
:103F20003246FFF799FC6086606B002805DBA979B3
:103F30003246C0B2FFF790FC2087606809F082FB30
:103F4000E063D4E9000109F080FB26682064002EBC
:103F500027DD6768002F24DDF91709043246F317BF
:103F6000380441EA1741FCF71BF9AA7DA0FB0203C4
:103F700002FB0131284B83424FF000038B4146DBAB
:103F8000B0F5487F71F1000344DB64220023FCF7A5
:103F900007F9A4F8440086FB0060360C46EA0046A8
:103FA000A664687D8000002100F0FC0009F0D0FCD0
:103FB000E064A9796879FFF709FC20650020D5E95C
:103FC0000376FFF7C5FB04F1540502462B4639463C
:103FD000304609F0BCFB626A104B9A42D4BF002203
:103FE000012284F860204FF4FA61284609F0CEFBE4
:103FF000A368003818BF0120B3F5485FACBF0023A9
:10400000012384F8610084F8623003B0F0BD40F20F
:104010001F50BEE70820BCE77F000200A086010019
:10402000F0B587B004460C9D0E46002D3FD000230E
:10403000C5E904332B8000285CD1C5E9043306238D
:104040002B80002007B0F0BDA27909F04BFC40B1F5
:10405000B36900937369294A0821284609F054FD81
:10406000EFE7D6E90023934203DD00920921244AB9
:10407000F3E7637D3BB1D6E91332934203DD00924F
:104080000A21204AE9E70020D4E90376FFF760FB24
:1040900003AB02463946304609F059FB28B1236983
:1040A0000093E368184A0B21D7E70120CAE70028EC
:1040B000C7D00029C5D02378052B14D86278072AE9
:1040C00011D8A0780B280ED821790A290BD862794B
:1040D0000A2A08D8E279032A05D8227D022A02D8C2
:1040E000A27D322AB0D9002DABD00023C5E904331C
:1040F0000723A5E70029DED19FE700BF872601003F
:10410000662201006A220100923C01002DE9F04F75
:10411000B1B0CDE92E23DDE93F25DDE93D313A9C03
:1041200015B109B102B11BB9002031B0BDE8F08F63
:104130003C4D92F803B03C4FDFF8F0A092F801C07C
:1041400091F801E00E7892F8028091F80290002C2C
:1041500008BF2C4693F822502C95BBF1000F08BFE6
:10416000BA4693F820500F7E93F821302D9515789C
:104170002A97177E2997CF7D2897D77D27978F7A03
:104180002697977A25974F7A2497577A23970F7A0D
:104190002297177A21978F7D2097977D1F974F7DC4
:1041A0001E97577D1D970F7D1C97177D1B97CF7905
:1041B0001A97D77919970F69189717691797CF68C2
:1041C0001697D76815978F791497977913974F7922
:1041D00012975779119709791091127907932D9BAE
:1041E00006932C9B05939DF8F03004939DF8EC30DA
:1041F000CDE902432E9B00932F9B0193CDE90EA2A4
:1042000003460B4ADDE94001CDE90C89CDE90ACE30
:10421000CDE9085608F0E8FC002885DD419B98426E
:1042200082D282E72D220100612201007122010069
:104230007522010030B59DB00446209D18460BB193
:1042400001B112B900201DB030BD92F862301A934E
:1042500092F86130199392F860301893B2F85E309A
:104260001793B2F85C301693136D1593D36C1493B7
:10427000936C1393B2F844301293136C1193D36B75
:104280001093B2F938300F93536B0E93B2F932306A
:104290000D93B2F930300C93D36A0B93936A0A935F
:1042A000536A0993136A0893D36907939369069332
:1042B00053690593137C0493D36803939368029323
:1042C0005368019313680093044A2346294608F073
:1042D0008BFC0028B6DDA842B4D2B4E7022401006A
:1042E000F0B589B00446DDE911059DF83C609DF804
:1042F000407010B9002009B0F0BDA6EB070EDEF14A
:10430000000C04969DF838604CEB0E0CCDE90012C1
:10431000CDE90236CDE9057C044A2346294608F05A
:1043200063FC0028E6DDA842E4D2E4E77E25010034
:104330002DE9F04F95B0DDE9208692460746DDE98C
:104340001E429946B8F1000F00D01CB9002015B0EC
:10435000BDE8F08F0DF1240B002A38D0DFF878C0CB
:1043600058460021535C0BB1282921D101F150039B
:104370000DEB03012078002301F82C3CFFF7B0FA85
:10438000637833B3621CCDF818B063690593236971
:104390000290CDE90323CDE900A9104A3B463146FE
:1043A000404608F021FC0028D0DDB042CED2CEE756
:1043B000A3F10905EDB2172D05D82CFA05F515F076
:1043C000010F18BF5F2300F8013B0131CAE7114616
:1043D000CCE7034AD7E700BF13008000D5250100D2
:1043E000D32501000D289ABF024B53F82000024844
:1043F000704700BFFCF60000C62601002DE9F04F13
:104400000C46B5B015460AB10123137000282ED012
:10441000002C2CD0002D2AD00DF16F030E9333AB5E
:104420000C9332AB0B9331AB0A9330AB09932FABA8
:1044300008932EAB07932DAB06932CAB05932BABB8
:1044400004932AAB039329AB029328AB01931CAED0
:1044500027AB009364490D9626AB25AA08F0EEFB26
:10446000102804D19DF8703083B902232B700020EE
:1044700035B0BDE8F08FA3F13002092A06D923F048
:104480002002413A192A01D92D2BEED116F8013B11
:10449000002BF0D1259F012F01D90323E6E7329BA2
:1044A0002A9E15933343012B01D90723DEE7289B6E
:1044B0001793179A4D4B9A4201D90523D6E72B9BA8
:1044C0001893A3F1640240F26C739A4201D9082355
:1044D000CCE7319B1493339B1693169A149B13438A
:1044E000032B01D90D23C1E72E9A11922F9A129214
:1044F000309ADDF8A4901392DDE926A3DDE92C8B38
:10450000BFB90AF5C872B2F5487F04D803F5C8727E
:10451000B2F5487F01D90423A8E7354A09F1FF31F4
:10452000914204D25EBB42F20F72914527DC062312
:104530009CE7002EB9D118F5167F08DBBBF5167F76
:1045400005DCD84503DAC24501D1534501D0092322
:104550008CE7119A0A3A5A2A01D90A2386E7129A55
:10456000013A632A01D90B2380E7139A012A01D06B
:104570000C237BE71F4A09F1FF319142D7D8002174
:1045800029705322601C19930AF06AFC199BA360DE
:10459000179BC4F804A0C4E90339189BC4F820B0E1
:1045A000C4E90638119B6362129B2385139B6385C4
:1045B000149B84F82C30159B03F0010384F82D30F4
:1045C00007F00107169B84F82E3006F001062770CD
:1045D00026751CA8FBF74EFE1CA9421C04F13000F6
:1045E0000AF030FC012043E7CE260100E0930400EE
:1045F00080EE3600FF5B260570B590B01D46149E18
:104600000C46034618B111B10AB105B116B9002024
:1046100010B070BD91F82E100F9194F82D100E91DE
:1046200094F82C100D91618D0C91218D0B91616A84
:104630000A91216A0991E1690891A1690791217D97
:10464000069121690591E1680491A168039161686F
:10465000029121782846CDE90021044A314608F02C
:10466000C3FA0028D3DBB042D2D3D0E70827010039
:104670002DE9F04F85B0044609F034FCB0FA80F023
:10468000C0F11F0004EB8006CD00D6F8109005F1B4
:10469000040A0B4606358FB2B9F1000F0BD1E26860
:1046A000012181400A43E260336124F80A706753B4
:1046B00005B0BDE8F08F4FEAC906043634F806B0FD
:1046C0004FEACB0808F1060834F80830994511D0B4
:1046D0000C4B02930023CDE9003318460A4901220E
:1046E00009F005FC002383F31188BFF36F8F0423C7
:1046F000184602DF24F80AB024F8059024F8087060
:10470000A753D5E747280100E4F30000B2F5802F56
:104710002DE9F8430ED33E493E4A3F484FF43773E4
:1047200009F040FC3D4809F03DFC4FF43771394831
:1047300009F02FFC042A0CD83949364A364840F291
:10474000E32309F02FFC374809F02CFC40F2E32169
:10475000EDE7043ACD1D114425F0070521F00706C9
:10476000A6EB0508B8F1170F4FEAD8070CD82E4969
:10477000284A29484FF43B7309F014FC294809F0F2
:1047800011FC4FF43B71D2E7B7FA87F4C4F1200271
:10479000C4F12404A4000734E408631C4FF00009AA
:1047A000BB420560AF60C5F80C900CD91F49194A8F
:1047B000194840F2023309F0F5FB1A4809F0F2FB00
:1047C00040F20231B3E74946920005F110000AF0C9
:1047D00047FBA2B2530043F001036B803B1B9BB22B
:1047E00005EBC4015800A5F80090488025F8342056
:1047F000A6F8029025F8083005EBC70321465A8831
:1048000042F001025A802846BDE8F843FFF730BF66
:10481000E32801006B280100A9280100F928010004
:1048200010290100312901004A29010073290100E2
:104830002DE9F04F91B08407009302F00403029336
:10484000C2F3C20303F10103DDF868A00392054639
:104850000E46059340F0C881041D002838D101F0B0
:104860000706341DC6F10806009B4FF000085A1ECB
:1048700004274FF0FF330193CDF81080C146C346A3
:104880003B460DB1009921600598002800F3C180D6
:1048900094480099814203D393488142C0F0B98083
:1048A000039911F0020CA4EB050040F0CB80B9F1A4
:1048B0000F0F40F2CA808D498D4A8E4840F2812305
:1048C00009F070FB8C4809F06DFB40F28121B6E0E5
:1048D0000729C9D86FF01B0011B0BDE8F08F7A2806
:1048E0005AD84B280FD8472856D829282DD82528FC
:1048F0004FD051D8202818BF23280CBF4FF0010BF0
:104900004FF0000B6EE04C382E2845D8DFE800F061
:104910006A4444444444444444444444474444442E
:104920004444444444544447475454546A476844B4
:104930006A4418471844447C7A47444447447A0000
:1049400000204FF0000B042734E02A38C0B20121C8
:1049500001FA00F010EA0E0F44D110F0625C2BD186
:1049600010EA010B3ED06046013C3C44B4FBF7F436
:104970007C4325B1A3EB050CA444B445AAD8002878
:1049800000F097800599013905915AF8041B0091B0
:1049900077E70199013901914FF0000B22E012F8FD
:1049A000010C6C2832D112F8023C00206C2B83469B
:1049B000C9D108273B46D7E70AF1070A2AF0070AB8
:1049C0000734FAE802BC24F0070435B10698204405
:1049D000B0423FF67FAFC4E900BC08344FF0000B93
:1049E00008273B4612F8010F002800F08980BBF130
:1049F000000F7FF474AF2528F4D1019B013301939C
:104A00004FF0010B0427ECE758469AE70020834655
:104A1000AAE7039988072FD5601B4FF0010CB0F56A
:104A2000007FFFF444AF3149314A32484FF41F73DD
:104A300009F0B8FA314809F0B5FA4FF41F712C4863
:104A400009F0A7FA4FF0000CE9E705B309F14001BE
:104A50000DEB010EC0F3870001990EF8200C0EF843
:104A6000101CBCF1000F0ED060F07F000EF8200C7F
:104A700008F1010809F10109C5F1080104340691A2
:104A80004FF6DA7EAEE7049801300490F2E7BCF10D
:104A9000000F01D00136EDE7029802360028E9D177
:104AA0000098CDE90632FBF7E5FBDDE90632064466
:104AB000E0E7042B08D10AF1040015B1DAF8001080
:104AC0002160043482468DE70AF1070323F00703CF
:104AD00003F1080A1DB1D3E90001C4E9000108345B
:104AE00008237FE790F0000094490100CF3F0100C8
:104AF000A6290100A9280100F5290100D4290100F7
:104B0000631BB3F5806F0CD339493A4A3A4840F2F7
:104B1000D22309F047FA394809F044FA40F2D22189
:104B20008DE71DB9A6F10804E018D5E6029A2860C1
:104B30009B082B709DF81030BAB1EB7085F802809D
:104B4000B8F1000F05D008A80022C5F10107914572
:104B50000DD1C5F1010308AF4FF0000A01930DF12B
:104B6000300BD14512D1601BB6E66B70E6E710F84A
:104B7000013B190608D507EB040CB44503F07F038D
:104B80003FF6A8AE04F8013B0132E0E7B8F1000FB0
:104B900003D097F90020002A16DB029BC3B11AF854
:104BA0000B2004F8012B0022019B18191044B0427D
:104BB0003FF690AE387804F8010B00990392204636
:104BC0000AF040F9039A14440AF1010A0137C8E7D0
:104BD0003A7855F822300093029B45F8223000982D
:104BE000FBF748FB421CDFE76FF00D0074E600BFE7
:104BF000CF3F0100A6290100A92801000F2A0100CA
:104C0000014B1860704700BFC411002080B50546F5
:104C10000E461746984607F0F1F8034601F04CFDA2
:104C2000DFF83C90044649F80030424639463046A9
:104C3000A8470C4B1B7873B90B490C4A0C4840F23F
:104C4000463309F0AFF90B4809F0ACF9074840F2D8
:104C5000463109F09EF954F8090001F0C9FC00BF83
:104C6000080000001B1C0020622A0100372A0100F6
:104C7000A9280100752A01002DE9F84F05460846CC
:104C8000AB8B1907904616D501280CBF43F01003D3
:104C900043F02003AB831435284607F03BFB002884
:104CA00040F0B181AE49AF4AAF484FF4997309F073
:104CB00079F929469DE0022803F0070140F07D8143
:104CC000284609F07CF9052800F2FA8001A353F880
:104CD00020F000BF974C0000BB4F0000C14E000009
:104CE000654D0000FF4D00005F4E000002F007021E
:104CF000531F012B1AD80023062A2E68A4B2C5E937
:104D0000003309D1334603E0EA8B0132EA831B68A2
:104D1000002BF9D144F00204AC83284609F04FF986
:104D2000002800F05A8144F0200455E1042A0DD1F6
:104D3000A4B2AC83284609F042F90646002800F0E8
:104D40004C8144F02004AC83002646E18749884A20
:104D5000854840F21B1309F025F940F21B118448E5
:104D600009F017F949B18349814A7F484FF4AB7381
:104D700009F018F94FF4AB71F1E72B684BB97E4994
:104D80007B4A794840F2571309F00CF940F2571169
:104D9000E5E72B691F684FB97849754A72484FF4A7
:104DA000AD7309F0FFF84FF4AD71D8E7AC8B24F088
:104DB000070444F00604A4B2AC830E468A464FF0C2
:104DC0000609AB68002B00F00F814FF0010B44F097
:104DD0000804AC8305F11404204607F09BFA002870
:104DE00078D15F495F4A60484FF4997309F0DAF867
:104DF0002146634809F0D6F84FF499718EE00229F4
:104E000009D060495A4A584840F25D1309F0CAF87F
:104E100040F25D11A3E7EE8B4EB15B49544A524814
:104E20004FF4AF7309F0BEF84FF4AF7197E72B69F9
:104E30005F684FB951494E4A4B4840F2611309F03F
:104E4000B1F840F261118AE7AC8B24F0070444F01A
:104E50000404A4B2AC83B2464FF00409B1E70129BF
:104E600009D04A49424A40484FF4B27309F09AF8CF
:104E70004FF4B27173E72B684BB93F493C4A3A484B
:104E800040F2651309F08EF840F2651167E72B696F
:104E90009F684FB93949364A33484FF4B47309F023
:104EA00081F84FF4B4715AE7AC8B24F0070444F056
:104EB0000504A4B20026AC83B2464FF0050980E792
:104EC0002A492B4A284840F26B1309F06BF840F24C
:104ED0006B1144E788F31188BFF36F8FBBF1000FAC
:104EE0001ED1002E33D117B129492846B847EFF318
:104EF0001188202383F31288BFF36F8F204607F0B9
:104F0000FBF900284AD1174A22491748842309F09F
:104F100049F82146204809F045F8842111481FE747
:104F2000A9680029DDD0D1F800800029D9D0D1F8B6
:104F300004B053464A462846D847B8F1000F04D07B
:104F4000D8F8003041469846EFE74346FAE7314645
:104F500053464A462846366809F05DF8C1E700BF67
:104F6000752B0100482B0100A9280100CF3F01004B
:104F7000A22A0100C72A0100D32A0100F62A010053
:104F80008C2B01000D2B0100232B0100322B010083
:104F900015500000A12B0100B62B0100204607F0A0
:104FA000CFF9AC8B24F00804A4B2AC83E20621D57F
:104FB00024F01003AB8304F00701D5F818A0AA8BE6
:104FC000BAF1000F22F00704BFF690AE00232E685E
:104FD000C5E9003344F00104AC8304F007098945B6
:104FE0004FF000077FF4EDAE0EB9002FDED04FF08A
:104FF000000BECE6A3067FF54EAE24F02003AB8356
:1050000004F007015CE688F31188BFF36F8FBDE8F9
:10501000F88F00BFF8B504460D4600F11406EFF313
:105020001187202383F31288BFF36F8F304607F078
:1050300063F968B90C4A0D490D48842308F0B2FFA2
:105040000C48314608F0AEFF0748842108F0A1FF64
:10505000304607F075F9A5613A4620460121BDE8C2
:10506000F840FFF709BE00BF482B0100A12B01004B
:10507000A9280100B62B01002DE9F04704460E4691
:1050800008F0B9FF051E66DB04F11409EFF3118A7D
:10509000202383F31288BFF36F8F484607F02CF963
:1050A000804660B9374A38493848842308F07AFF87
:1050B0004946374808F076FF8421324843E04846A5
:1050C00007F03EF9E38BA78B4FF6FF72934207F090
:1050D000070743D0062F2CD8DFE807F01F43092B22
:1050E0001F041F006FF085054FF0000802E0013338
:1050F000E3830225484607F00DF9002834D1214A00
:10510000244922484FF4997308F04CFF494622483D
:1051100008F048FF4FF49971CFE7002333606368CC
:1051200023B9C4E9006687B13D46DDE71E606660CD
:10513000F9E71A4915481A4A4FF4E47308F032FFA8
:1051400017484FF4E47108F024FF5246022120462C
:10515000FFF792FD3D462846BDE8F0876FF00A054F
:10516000C2E76FF00405BFE78AF31188BFF36F8FC2
:10517000B8F1000FEFD000233A463146204608F040
:105180004AFFE8E7482B0100A12B0100A9280100F4
:10519000B62B0100752B01008C2B0100322B010076
:1051A000A22A0100F8B5054600F11406EFF31187B5
:1051B000202383F31288BFF36F8F304607F09CF8EB
:1051C00060B9264A26492748842308F0EBFE314679
:1051D000254808F0E7FE842120482BE0304607F000
:1051E000AFF8AC8B04F00704022C17D0012C0CBFD5
:1051F0006FF004046FF08504304607F08BF838BB7D
:10520000164A1A4917484FF4997308F0CBFE3146F5
:10521000174808F0C7FE4FF49971DDE7EB8B5BB9D7
:1052200014491048144A40F2EF1308F0BBFE12482C
:1052300040F2EF1108F0ADFE013B9BB2EB83002B77
:10524000DAD13A4621462846FFF716FD2046F8BD3A
:1052500087F31188BFF36F8FF8E700BF482B010079
:10526000A12B0100A9280100B62B0100752B01001C
:105270008C2B0100CC2B0100A22A010008B542684A
:10528000816002F00302032A03460AD06AB9084982
:105290000848094A452308F085FE0748452108F0DB
:1052A00078FE006800225A6008BD0020FAE700BFBF
:1052B000CF3F0100A9280100DA2B010008B558B939
:1052C00007490848084A40F2351308F06BFE0648C3
:1052D00040F2351108F05DFE4368587908BD00BF03
:1052E000382C0100A9280100002C010010B548B994
:1052F00008490948094AA02308F054FE0748A0219C
:1053000008F047FE03681B6913B1BDE81040184759
:10531000184610BD382C0100A9280100002C0100FE
:105320002DE9F84FDFF8ECA0DFF8EC80AAEB0803DA
:105330008F2B81460F460BD93849394A394840F2FC
:10534000531308F02FFE40F25311354808F021FEA8
:10535000354808F09FFE064650B3BDE8F88F237B22
:105360008BB12368DB680BB1204698476368204601
:1053700083F806B0FFF7BAFFB0B963680422196872
:10538000204608F0ACFE01361034544515D92749A3
:10539000234A244840F25F1308F004FE244808F032
:1053A00001FE40F25F11D0E70BFA06F31D43EAE776
:1053B000444605464FF0010BE7E7D0D3B9F1000FA3
:1053C000CBD04FF00109002DC7D02E4695FAA5F499
:1053D000B4FA84F409FA04F308EB04146FEA030A3C
:1053E00025EA0305237B5BB12046FFF77FFF38B931
:1053F000636804221968204606EA0A0608F06FFE70
:10540000002DE3D127B14FF4A470002106F04EFC2B
:105410003546D8E724F4000014F400007C2C010089
:105420004F2C0100A928010068170020AC2C0100B6
:10543000CD2C0100014B53F82000704734F70000D9
:1054400008B5034608462BB1044A136000F0D4FAAD
:10545000002008BD6FF01500FBE700BFC811002059
:10546000144A1548002310B51370144A1360144AE7
:105470004FF400411360FFF7E3FF124B1249184647
:105480008B4215D91149124A124840F22B1308F0E9
:1054900089FD114808F086FD0D4840F22B1108F0F7
:1054A00078FD1A1A5C681211013222711033E7E795
:1054B000F7D310BD041C002091E00000601700200D
:1054C0006417002014F4000024F40000AC2C010048
:1054D0004F2C0100A9280100CD2C010070B5134DFF
:1054E000297811BB0120FFF71BFF114C114EB4426C
:1054F00018D91149114A124840F2CF1308F052FD51
:10550000104808F04FFD0D4840F2CF1108F041FD62
:105510002046FFF7D3FE18B1236820469B689847C2
:105520001034E4E7F4D301232B7070BD041C002079
:1055300014F4000024F40000AC2C01004F2C0100F6
:10554000A9280100CD2C010010B50446084808F038
:10555000A1FD5CB1BFF35B8F064B53E8001F01391F
:1055600043E80012002AF8D1BFF35B8F10BD00BFE3
:10557000601700206417002070B5124B124C1B6896
:10558000124E05469847A860B44219D91049114AED
:10559000114840F20A2308F005FD104808F002FD0A
:1055A0000C4840F20A2108F0F4FC2046FFF786FE82
:1055B00020B1236829461B68204698471034E3E74A
:1055C000F3D370BDC811002014F4000024F40000CF
:1055D000AC2C01004F2C0100A9280100CD2C0100AA
:1055E000044A054B9B1AB1EBD30F34BF52F831007C
:1055F000002070479CF3000014F400002DE9F04FE8
:1056000087B004AFD7E90EBA3E6B0546884614460C
:105610009946BBF1000F2CD0C7F804A0CDF800A02C
:105620007A6B5B4610210020FFF702F900280BDAA5
:1056300029492A4A2A484FF4B47308F0B3FC4FF4BE
:10564000B471264808F0A5FCB0F5006F014612D3EE
:1056500040F2FF730393234B02930023CDE9003301
:1056600021490222184608F05CFD0C37BD46BDE812
:10567000F08F5946584604F0070205F00704E4008D
:1056800044EA821444EA402444EA065417360E449D
:1056900026F00706ADEB060D04ADBBF1000F13D0ED
:1056A000CDF800A07A6B5B4605F11000FFF7C0F85B
:1056B000002809DA0849094A094840F28D1308F020
:1056C00071FC40F28D11BCE74B462246414628460C
:1056D00008F00EFDC9E700BF252D0100F92C0100DF
:1056E000A92801002F2D0100BCF30000406820B163
:1056F000034BC01A40F3CF0070474FF0FF307047A4
:105700009CF300000EB403B503AB014653F8042B21
:105710000448019301F0F6F902B05DF804EB03B020
:10572000704700BF5FE10000CA0605D48B064CBF7E
:1057300002490349FFF7E6BF704700BF95420100E9
:10574000672D01002DE9F04F87B004469DF8488091
:10575000DDF850A0169F04920D469946B8F1000F4F
:1057600000F0A180B8F1040F0BD98B498B4A8C480B
:105770004FF4157308F016FC4FF41571874808F0C4
:1057800008FC07F48073059308F0A7FC07F0020BF0
:105790000246002856D083492046FFF7B3FF06464D
:1057A000BBF1000F08D017F0440F4DD17E492A46B7
:1057B0002046FFF7A7FF064407F0010353B17B4BD8
:1057C0007B4953F828207B4B2046002A08BF1A4605
:1057D000FFF798FF07F48073002B07F0080318BF4A
:1057E0004FF00009002B5BD0734B744953F828200D
:1057F0002046FFF787FF0546049B2BB170491A46E8
:105800002046FFF77FFF0544B9F1000F05D06D4931
:105810004A462046FFF776FF05446B483544139B04
:10582000002B46D06949224608F071FB002840DA77
:1058300067495A4A5A4840F2B12308F0B3FB40F294
:10584000B1219BE70646ABE7624B18680028B2D04F
:10585000614B4FF47A7B1B68B5FBF3F54FF4616342
:10586000B5FBF0F100FB11550BFB05F54FF03C0CBF
:10587000B1FBF3F203FB1211B5FBF0FEB1FBFCF33D
:1058800000FB1E550CFB13110BFB05F50091B5FB3E
:10589000F0F55249CDE901E52046FFF733FF8AE7ED
:1058A00007F00805A8E7012B0CBF47484C484546C0
:1058B000B5E7159B002B54D0DDF854903946B9F16B
:1058C000100F204628BF4FF01009FFF72DFF0026CC
:1058D000B54218DC002633461AF803204149204619
:1058E000FFF710FF0136102E13D0710703D13E4988
:1058F0002046FFF707FFB1453346EDD83B49204628
:10590000FFF700FFEEE738492046FFF7FBFE0136C0
:10591000DEE7374920460026FFF7F4FE33461AF843
:1059200003203449A2F120035F2B28BF2E222046FA
:10593000FFF7E8FE0136102E0DD0720703D12A4979
:105940002046FFF7DFFEB1453346E8D8264920461A
:10595000FFF7D8FEEEE7159BB3EB0903CA44159396
:10596000AAD1B8F1000F0AD0FB0704D5114A10499B
:105970002046FFF7C7FE39462046FFF7D5FE62688E
:10598000A1682068D2E9002308F0DBFB63680022ED
:105990001A6007B0BDE8F08F9E2D01006F2D010049
:1059A000A9280100A92D0100AD2D010044F7000038
:1059B000B33901006A2D010058F70000D22D010013
:1059C000D82D0100DC2D01005FE10000056B000017
:1059D000E12D0100701700206C170020B62D01008A
:1059E0007BE10000EA2D0100F22D0100F02D010005
:1059F000F42D010005270100074A002101239042F0
:105A000006D8064A01B901231360054B1860704798
:105A100040085B000121F2E740420F006C170020B4
:105A200070170020014B01221A707047051C0020DE
:105A3000014B0020196070478817002010B5064BF5
:105A400018680C46FFF7F6FC21460346BDE81040F7
:105A500002480F22184700BF8817002088F700006F
:105A6000F8B5094D094B0A4ED5E9004701221A70D5
:105A70000CB92C60F8BD214630463A4600F00AF8D1
:105A8000241A0644F4E700BF7C170020061C0020FF
:105A9000071C0020F8B5194D07460E46042432466F
:105AA0003946002004F0A2F9C8B101232B70144B31
:105AB0001B782BB93046F8BD5CB92C704FF0FF3421
:105AC000002004F023FA0028F4D02B78002BF3D127
:105AD000F0E7013C41F2883009F0E3F8F0E72B7879
