:10000000C03500204D53000087CC0000395300005C
:10001000395300003953000039530000000000003C
:100020000000000000000000000000002954000053
:100030003953000000000000515600003953000001
:10004000C9560000C9560000C9560000C956000034
:10005000C9560000C9560000C9560000C956000024
:10006000C9560000C9560000C9560000C956000014
:10007000C9560000C9560000C9560000C956000004
:10008000C9560000C9560000C9560000C9560000F4
:10009000C9560000C9560000C9560000C9560000E4
:1000A000C9560000C9560000C9560000C9560000D4
:1000B000C9560000C9560000C9560000C9560000C4
:1000C000C9560000C9560000C9560000C9560000B4
:1000D000C9560000C9560000C9560000C9560000A4
:1000E000C9560000C9560000C9560000C956000094
:1000F000C9560000C9560000C9560000C956000084
:1001000001F0FF01102A2BDB10F0070F08D010F8C8
:10011000013B013A8B422DD010F0070F42B3F6D1CC
:10012000F0B441EA012141EA014122F007047FF0E5
:1001300000070023F0E80256083C85EA010586EA3C
:10014000010685FA47F5A3FA87F586FA47F6A5FA78
:1001500087F68EB9EED1F0BC01F0FF0102F0070284
:1001600032B110F8013B013A83EA010313B1F8D12F
:100170000020704701387047002D06BF3546033810
:10018000073815F0010F07D1013015F4807F02BF49
:10019000013015F4C03F0130F0BC0138704700BF9A
:1001A0007BB972B90029BEBF00204FF0004106E0C4
:1001B00008BF00281CBF6FF000414FF0FF3000F077
:1001C00057B8ADF1080C6DE904CE002909DB002B0E
:1001D0001ADB00F057F8DDF804E0DDE9022304B093
:1001E0007047404261EB4101002B1BDB00F04AF8F5
:1001F000DDF804E0DDE9022304B0404261EB410197
:10020000524263EB43037047524263EB430300F0F7
:1002100039F8DDF804E0DDE9022304B0404261EB87
:1002200041017047524263EB430300F02BF8DDF8C5
:1002300004E0DDE9022304B0524263EB430370475C
:1002400053B94AB9002908BF00281CBF4FF0FF313D
:100250004FF0FF3000F00CB8ADF1080C6DE904CEA2
:1002600000F010F8DDF804E0DDE9022304B0704787
:10027000704700BF034613F8012B002AFBD1181A60
:10028000013870472DE9F0478C468E46089E15468A
:1002900004461946002B40F0D080724547D9B2FA87
:1002A00082F74FB1C7F120030EFA07FC20FA03F3DF
:1002B000BD4043EA0C0CBC404FEA154EA8B2BCFB53
:1002C000FEF8230C0EFB18CC08FB00F943EA0C43A4
:1002D000994528D9EB1808F1FF3204D2994502D983
:1002E000A8F102022B44A3EB0903A4B2B3FBFEFC6A
:1002F0000EFB1C330CFB00F044EA0344A04214D96B
:100300002C190CF1FF3304D2A04202D9ACF1020344
:100310002C44241A43EA02401EB1FC4000233460FE
:100320007360BDE8F0874246DDE76346F1E7002AE7
:1003300079D0B2FA82F3002B3FD01946C1F12003E5
:1003400002FA01F52EFA03F20EFA01FE20FA03F387
:1003500043EA0E034FEA154E00FA01F4B2FBFEFC2D
:10036000AFB20EFB1C201A0C0CFB07F842EA00424D
:1003700090455AD9AA180CF1FF3004D2904502D901
:10038000ACF102002A44A2EB08029BB2B2FBFEFCD5
:100390000EFB1C220CFB07F743EA02439F4246D99F
:1003A000EB180CF1FF3204D29F4202D9ACF10202E9
:1003B0002B44DB1B42EA004202E0AEEB02030122C7
:1003C0004FEA154EAFB2B3FBFEFC200C0EFB1C3304
:1003D0000CFB07F840EA034398452AD9EB180CF1C7
:1003E000FF3004D2984502D9ACF102002B44A3EBB4
:1003F0000803A4B2B3FBFEFC0EFB1C330CFB07F797
:1004000044EA0344A74216D92C190CF1FF3304D255
:10041000A74202D9ACF102032C44E41B43EA00409A
:100420000F46114678E71F2188E76046ABE7624632
:10043000BFE76046DBE76346EFE7734506D916B9C9
:10044000002108466DE7C6E9000EF9E7B3FA83F725
:1004500087B9734501D3824207D8841A6EEB030330
:1004600001209C461EB900215BE73846FAE7C6E941
:10047000004CF8E7C7F1200CBB4022FA0CF51D43F5
:1004800020FA0CF12EFA0CF30EFA07FE41EA0E01E7
:100490004FEA154900FA07F4B3FBF9F81FFA85FE95
:1004A00009FB18300B0C08FB0EFA43EA00439A458F
:1004B00002FA07F240D9EB1808F1FF3004D29A454E
:1004C00002D9A8F102002B44A3EB0A0389B2B3FBC3
:1004D000F9F809FB183308FB0EFE41EA03418E458B
:1004E0002CD9691808F1FF3304D28E4502D9A8F13E
:1004F0000203294443EA0040A0FB0298A1EB0E014D
:100500004145CE46434602D306D14C4504D2B9EB11
:10051000020E68EB05030138002EA4D0B4EB0E02E6
:1005200061EB030101FA0CFC22FA07F34CEA030326
:10053000F940C6E9003196E74046C5E74346D9E7AA
:1005400010B501210446A8B100200BF0B8FD01460A
:10055000202002F0DDF80146A8B9012108460BF081
:10056000AEFD0146202002F0D3F8014658B9074BF2
:100570001C7608E00BF0A3FD0146202002F0C8F82D
:1005800001460028EBD0084610BD00BF1017002020
:100590002DE9F04F0024DFF8B8B089B005460F46CA
:1005A00090462646A24695F82030A34204D8EEB9DC
:1005B000304609B0BDE8F08F05EB44090DF11E018E
:1005C00015F814008DF81EA08DF81FA00BF0FFFD8C
:1005D00099F8011015F8140002F09AF815F8142093
:1005E00038B11C48434639460CF0F0F96FF0040668
:1005F000DEE710460DF11F010BF0E9FD15F81420A0
:1006000018B1154843463946EEE74FF42073CDE95B
:1006100003B39DF81F30029399F801300193013420
:100620009DF81E300093E4B21346214695F8202031
:10063000384602F0B5FF18B1084859460CF0C6F923
:1006400099F801209DF81F309A4218BF0136AAE799
:10065000491900204CE2000080E200000FE6000093
:100660002DE9F04F4F4CA37F95B03BB1E37F2BB109
:1006700094F8203013B194F8213073B9E38B228CB5
:1006800013439BB213B1636A01336362454B00228B
:10069000DA831A8415B0BDE8F08F0BF021FD0B460C
:1006A0004149A68A91F81480A1681091E1681191DE
:1006B0003E49E78A096812913D49B4F818C091F89B
:1006C0000090616A13913B49B4F81AE091F800B0C8
:1006D00094F822100246D4E90005A0EB050A00298F
:1006E0005BD02169A48BCDF834B0CDE90E141399F9
:1006F000CDE90B911299CDE909E111990491109975
:10070000CDE90080CDE9077CCDE905A6CDE9025110
:1007100029480CF05BF9264B1B78002BB6D0214BF7
:10072000264C9E8ADD8AD3E90072A36ABF1A33B9C8
:10073000C4E90677276126846684A584E584676119
:100740000BF0CEFCA3699F42E369B8BFA7619F424B
:10075000238CC8BFE761B342638C88BF2684B34251
:10076000A38C38BF6684AB42E38C88BFA584013E6E
:10077000AB42B6B240F6FD7338BFE5849E42C4E991
:10078000020103D8013DADB29D4202D9012384F894
:100790002C30A36A0133A36278E74FF0FF310C4697
:1007A000A1E700BF0814002010170020A8160020A1
:1007B0004619002081130020B3E20000D813002066
:1007C00073B54378D32B064650D8CF2B50D9D13BA5
:1007D000022B51D8DFE803F002524E000025294CCD
:1007E00063199B7F0BB1FFF73BFF04EB4503B68812
:1007F0009E82002002F06EF9042D16BF224B0322C8
:100800001A780146304602F0F7F962190123042DE7
:1008100044F82500937784F8233018D194F83020D9
:10082000AAB92569A5F68C22B2F5167F0FD92846FC
:1008300084F830300BF092FD03220192A28B0092DB
:10084000034640F6B832114829460CF0BFF8A37FA2
:100850004BB1E37F3BB194F8203023B194F82130C1
:100860000BB1FFF7FDFE012002B070BDE02B07D0F9
:100870000020F9E70225B2E70325B0E70125AEE73E
:100880000425ACE708140020811300205AE300007F
:10089000F0B58DB015461E46002304468DF82A306B
:1008A0008DF82B30ADF82C3028460F460DF12B0378
:1008B00001210DF12A020BF06EFE9DF82A10204650
:1008C00001F026FF78B1244B02930023CDE90033D9
:1008D00022490396012218460BF010FC6FF0040425
:1008E00020460DB0F0BD9DF82B10384601F010FFEA
:1008F0000028E8D1204602220BA901F041FF04465E
:100900000028E0D19DF82C209DF82A009DF82D109C
:100910009DF82B30904218D09DF82D3008939DF80B
:100920002C3007939DF82B3006939DF82A300B4905
:100930000396CDE904530A4B02930023CDE900331B
:10094000012218460BF0DAFBC8E79942E4D10BF01C
:100950002EFEA842C4D0DFE7A6E3000004DD0000BD
:10096000C1E300001FB5012108460BF0FEFD014662
:10097000832001F0CDFE044640B9064B06490090A5
:10098000CDE90103032203460BF0B8FB204604B077
:1009900010BD00BF12E4000004DD000010B50146E8
:1009A000044600200BF013FC30B9044A2378117878
:1009B00003F003030B43137010BD00BF4819002060
:1009C0002DE9F04F8FB0002307468A468DF8373067
:1009D0000BF086FB05460DF137000E46FFF7DEFFF4
:1009E00050B14A490097096849482A4633460BF0F6
:1009F000EDFF0FB0BDE8F08FDFF818B19DF837308C
:100A00009BF80090DFF8108143EA0904C3F38002E9
:100A1000C4F3400113F004030A920B9104F00202A4
:100A200004F001040FD098F80030FF2B0ED00133F2
:100A3000DBB2012B88F8003008D1A2B1374B1B780C
:100A400063B9E4B925E088F80030F6E7334B1B784A
:100A5000002BF2D0324B0121197012B1314B01221F
:100A60001A70B4B103E0A4B12C4B1B783BB12E4BF0
:100A70002E4801221A70254B19680BF0A7FF2C4B4A
:100A800002930023CDE900332A49012218460BF0D6
:100A900035FB9DF83730DFF8A0C0284ABAF1000FC7
:100AA00011D19CF8001099420DD1B9F1000F0AD173
:100AB000D2E9000147F2305E281A66EB0101704569
:100AC00071F1000195DBC2E90056144A8CF8003040
:100AD00009971278089298F800200792C3F38012C1
:100AE0000692DA09CDE904420B9A03920A9A074961
:100AF0000093CDE901923346096811482A460BF06C
:100B000065FF00238BF8003073E700BFA8160020B4
:100B10002DE400004819002045190020CB1B0020BF
:100B20004419002043190020CA1B002060E4000083
:100B300082E4000004DD000080130020D0130020B8
:100B40001FE500002DE9F04192B009AF224D234E80
:100B500023220446002138460CF0ACFED5F8008074
:100B60000BF0BEFA4FF4207307931D4B0696CDE9A8
:100B700004330023CDE901330246039700940B466A
:100B8000404602F027FC18B1164831460BF01EFF14
:100B90004FF420730093144A104B1149286802F057
:100BA000A9FC18B10D490F480BF010FF2046012198
:100BB000FFF706FF0D4B0E481A78029402F001036E
:100BC0000193C2F3400300932968C2F380030BF042
:100BD000FDFE12B0BDE8F081A816002049190020E2
:100BE000101700200FE60000AC1600208013002034
:100BF000B0E5000038B5064D01460446A8780BF074
:100C000048FC0146242001F083FD00B9EC7538BD95
:100C1000101700201FB5224C617D237DA1B9012B47
:100C200018D008460BF0A1FC0146832001F070FDAE
:100C3000237D012B0ED0022B1AD01A4B02930023D6
:100C4000CDE9003302221EE0012B03D00020FFF784
:100C5000D1FFEDE7C8230393134B02930023CDE9A3
:100C600000331249032218460BF048FA04B010BDB5
:100C70000020FFF765FC034640B10D4B02930023B3
:100C8000CDE9003301220949184605E0094A074920
:100C90000090CDE9010203220BF030FAE6E700BF35
:100CA0001017002050E7000013E6000004DD0000EC
:100CB0007CE600009FE60000F0B52E4B8DB00546A7
:100CC00000201C6901F006FF09AB024629462046B8
:100CD0000BF028FB78B1284B02930023CDE90033B9
:100CE00026490395012218460BF008FA6FF0150407
:100CF00020460DB0F0BD224BBDF82C206A216920A2
:100D0000FFF7C6FD10B16FF00404F1E71D4BBDF80D
:100D10002E206C216B20FFF7BBFD04460028F2D18A
:100D20000F200BF0FAF92046BDF82C6001F0D2FE3E
:100D3000014630460BF0E8FA06462046BDF82E7014
:100D400001F0C8FE014638460BF0DEFABDF82E3041
:100D50000693BDF82C3005930B4B08490094361AC6
:100D6000CDE90143CDE903562346032220460BF08B
:100D7000C5F9BDE710170020DDE7000004DD000025
:100D8000F8E70000FDE7000002E800002DE9F04F61
:100D90007C4E7D49FFB015AC234641AA304601F098
:100DA00075FF10BB794B7A4D1F680BF099F90B4614
:100DB0004FF420710246CDE9016503910094384655
:100DC00002F016FC18B1734829460BF0FFFD72497A
:100DD0006C4805220CF076FDC8B9207801F042FF7E
:100DE00001466E480BF0F2FD11E09DF80431013B25
:100DF000072B0CD8DFE813F008000E0011001500D7
:100E00001A00C101DA011502654B01221A707FB088
:100E1000BDE8F08F624B0222F8E76248FFF792FECE
:100E2000F5E761480121FFF7CBFDF0E79DF82511BB
:100E30005E4A5F4B544FDFF87C81DFF850A142AE31
:100E400000290CBF914699460FCE21AD2C460FC408
:100E500096E80700BC4684E80700BCE80F0028AC11
:100E600026460FC69CE8070086E807006422524920
:100E700065A80CF011FDFB7DEB754CA93B7E2B7634
:100E800028461BAE02F04EF900969DF8053198F801
:100E900000204CA9284602F027FAD0B9DAF8005011
:100EA0003B4C0BF01DF90B464FF420710246CDE987
:100EB000019403910096284602F09AFB18B1354838
:100EC00021460BF083FD9DF82531002B9FD0307813
:100ED00084E70DF1BC0B4CABCDF800B02A4665A9F8
:100EE00020460BF000FC98F80030DAF8006013B3ED
:100EF0009DF8DE30FBB19DF80531E3B92F4D0FCDE4
:100F000038AF3C460FC495E8030084E803000BF0BB
:100F1000E7F81F4C00970B464FF420710246CDE9CD
:100F200001940391304602F063FB00283FF46FAF59
:100F30001848214656E7E268EB689A421FD12269B9
:100F40002B69B2EB030818BF4FF0010823881293F6
:100F50009DF8DC202B8813932B7D94F814B011930B
:100F600082BBB8F1000F2DD1119A93452AD19DF87B
:100F7000DD3013484A4631460BF028FD47E74FF075
:100F80000108E3E7C218002010170020A81600206F
:100F9000491900200FE600004FE8000055E8000066
:100FA000471900206DE8000071E8000078E80000B3
:100FB00049E80000CB1B0020AC16002060DD0000DB
:100FC0007CE800000136CAF800600BF089F80B4697
:100FD0004FF4207107912FA903919DF80511DFF8B7
:100FE000B4A202919DF8241104940246CDE9055A59
:100FF000CDE90091304602F0EDF918B1A64851460E
:101000000BF0E4FC4FF4207300934CAAA14B29464B
:10101000304602F06FFA18B19E499F480BF0D6FC9B
:101020006B7D53B1637D43B99C4B032118780BF062
:1010300088FA0146542001F06BFB994A31462FA8EB
:10104000FFF7A6FAD0B9AE46BEE80F00DFF854C2EB
:10105000ACE80F009EE807008CE807009248642285
:101060004CA90CF019FCB8F1000F31D0F868FFF76B
:1010700023FE68B38D4831460BF0A8FC0DF1E00962
:1010800065AB224628464CA9CDF800900BF02BFB0F
:101090009DF800218648834D31460BF097FC854A28
:1010A00031464846FFF774FA0FCC0FC594E80700A5
:1010B00085E807007C48642265A90CF0EDFBB8F1D7
:1010C000000F02D0F868FFF7F7FD7B480121AAE680
:1010D000119B9B4504D0794B1B780BB9FFF79AFD08
:1010E00077480121FFF76CFC0DF1BC09754B764880
:1010F00093F800A099F82130039399F820300293D7
:101100000AF001030193CAF3400300935246CAF365
:10111000800331460BF05AFC1AF0040F05D06B48DF
:10112000524631460BF052FCA8E7DDE912329342F9
:1011300013D05D4B66481A6C0592DA6B0492B3F8D3
:1011400044200392DA6A02921A7C01925A68009251
:101150001B687A7839780BF039FC99F82230002B2B
:101160003FF455AE554B1B78002B3FF450AE594B16
:10117000594801221A70314634E64A9A574C0023E6
:10118000FF2A8DF8943104D9216855480BF01EFCD4
:101190003DE665A9D0B20BF01AF800909DF89431A5
:1011A0004A9A21684F480BF011FC30E600238DF875
:1011B00030318DF89431DDE94A2342EA0301FF29F9
:1011C000464C02D921684848D6E69DF8051111B968
:1011D00021684648D0E6D0B24CA90AF0F8FF9DF845
:1011E0002C119DF8280101F093FA65A99DF82801BA
:1011F0000AF0EDFF4B9A9DF894110092D3B2A3EB45
:101200000109D9F1000343EB0903CDE90113384883
:1012100021689DF830314A9A0BF0D8FB35480121FE
:1012200001E64A9D2D4F002D15DD334BA5F57A7251
:101230009A4212D93C68DFF8C4800AF051FF0B468D
:101240004FF47A71CDE90118024600952C482146E9
:101250000BF0BCFBDBE542F21075184B1B7863B159
:101260009DF805214AB93C680AF03AFF0246254834
:101270000B4621460BF0AAFBC9E50A4E727D002AF7
:1012800044D13C680AF02CFF02460B461E4821461A
:10129000F0E700BF491900200FE60000811300208D
:1012A0009EE8000010170020AC160020A4E8000003
:1012B0000BEA00002DEA000028EA0000CB1B00200A
:1012C000C5E8000080130020D1E800002EE90000EE
:1012D00063E90000CA1B0020DFE90000A816002017
:1012E00036EA000067EA000094EA0000C4EA000061
:1012F00000EB000056EB0000D8D00100C0D4010084
:1013000060EB000096EB0000D5EB0000327D012A77
:1013100007D13C680AF0E4FE02460B4683482146AA
:10132000A8E7F27D96F81890119233B1804B396896
:10133000804801221A700BF049FBDFF8FCA17F4CBA
:10134000DAF850303022002120464FEA43080CF0F2
:10135000B1FA0AF0C5FEC4E900010B461199CDF8B7
:101360000880CDE90391DAF85010CDE9005102462A
:10137000396873480BF02AFB0020FFF73BFC002084
:10138000FFF7DEF84FF0000AD04500F3BF803022AF
:1013900000216A480CF08EFA0AF0A2FE694BC4E9FB
:1013A000000101221A704FF0000801F0D7FA08F18D
:1013B00014080AF0D4FE14200AF0AFFE4545614B34
:1013C000F3DC0025D4E902011D70D4E90032B0EB52
:1013D000030A61EB0203BAF1010F129373F10003E8
:1013E000C0F29E80D4E904315748C91A5246129B74
:1013F00081FB0001FEF7D4FE05468846A36A042B54
:1014000040F2908094F82C30002B40F08B8015F146
:10141000C80140F2911248F10003914273F10003B8
:1014200034BF4FF0010B4FF0000B3B6813930AF0F1
:1014300057FEE38C0F93A38C0E93638C0D93238C38
:101440000C9394F82C30CDE90858CDE90AB3E36940
:101450000793A36906936369059323690493129B19
:10146000CDF808A00393A36A009302460B463748C1
:1014700013990BF0ABFAB9F1000F08D00120FFF778
:101480005FF814200AF049FEF068FFF715FC119888
:10149000FFF7B0FB0AF051FE48B12D4B0293002339
:1014A000CDE900332B49012218460AF027FE00241B
:1014B0004CA920208DF830418DF894410AF087FE28
:1014C00065A924200AF083FE3D680AF009FE0B4658
:1014D000317E9DF830719DF894C189450246F07DBA
:1014E000F66806D1119CA4EB000EDEF1000444EB7B
:1014F0000E04CDE90010CDE904C417482946CDE912
:1015000002670BF063FA154801218CE401F026FA1A
:101510000AF025FE14200AF000FE0AF1140A33E74F
:10152000A8466BE74FF0000B7FE700BF17EC000009
:10153000CA1B00206DEC0000AC160020D813002060
:1015400095EC00004619002040420F00E6EC000038
:10155000A4ED000004DD0000E8ED000039EE00001D
:101560007FB51E4D1E4C01220DF10F0100200CF025
:101570009EF8012805D01B4B187800221A7004B081
:1015800070BD9DF80F102A780D2901D00A2919D1B4
:101590008AB1154B1E680AF0A3FD0B467F2101910D
:1015A000216800910246314610480BF00FFA0023E3
:1015B0002B702360D7E723680D492260CA54FFF7D8
:1015C000E5FBD0E72668731C002AF2D17F2B03D8F5
:1015D0002360074B9955C6E72870EAE742190020B7
:1015E000A016002047190020A816002042EE000097
:1015F000C21800202DE9F04FBDB00025B14BB24913
:10160000029303222B462846CDE900550AF076FDC9
:101610001A222946AD480CF04DF9AC4AAC4940F2CB
:101620000513941E22F8023C4FF0C80C4FF4966349
:101630000126C4E903C32046A64B636103276771F3
:101640002672A672267601F06DFDA34B1E600AF08D
:1016500047FD0B46A149009102463146A0480BF0D8
:10166000B5F901F0CFF870B19E4B97490095CDE9DF
:10167000015332462B4628460AF040FD4FF47A705B
:101680000AF04BFDFAE701F01FF820BB8DF890003F
:1016900024A9FF200AF09BFD0546E0B99DF8903093
:1016A0000393914B88490090CDE901033A460346E4
:1016B0000AF024FD9DF89020531EDBB2FD2B1BD9B0
:1016C0008A4B0392CDE901537F4900952B46324660
:1016D00028460AF013FD864B02930023CDE9003320
:1016E0007949012218460AF009FD01F037F94FF453
:1016F0007A700AF012FDF8E72A46A37931462846A7
:101700000AF041FF0146142001F002F805460028C6
:1017100040F0C48064200AF000FD2A462946A379DF
:1017200028460AF030FF0146142000F0F1FF05467C
:10173000002840F0B38064200AF0EFFC2B462A46D4
:10174000294630460AF01FFF0146142000F0E0FF52
:101750000546002840F0A2800A200AF0DEFC294657
:10176000A3792A4628460AF00EFF0146142000F00D
:10177000CFFF002840F092800A200AF0CEFC4CF205
:101780002053ADF890305B4B259349F22103ADF81F
:101790009830607D584B279354238DF8A03020B1AA
:1017A000564B394618780AF0CCFE554B29938123C5
:1017B0008DF8A830637D8DF8A100002B7FD0627971
:1017C0008DF8A920002B0CBF00230F238DF8B1301A
:1017D0004C4B2D934FF055038DF8B8300CBF0023C0
:1017E0000923494A8DF8B930484B2B922F93562242
:1017F00022230021A07A8DF8B0208DF8C0300AF0A5
:101800003DFE434B61788DF8C1003193207823234E
:101810008DF8C8300AF036FE3E4B8DF8C900339380
:1018200001212423A0788DF8D0300AF032FE3A4B03
:1018300035934FF4B473ADF8D830384B379340F24A
:101840009543ADF8E030364B3993002280238DF874
:10185000D1008DF8E830E179237910460AF079FE5D
:10186000304B8DF8E9003B9324AD00262F78697842
:10187000384600F04DFF00285AD03CAB03EBC606BB
:10188000049756F85C3C0393274B02930023CDE961
:1018900000330D49012218460AF030FC234B029315
:1018A0000023CDE900330849012218460AF026FC3E
:1018B00001F054F84FF47A700AF02FFCF8E71A465A
:1018C0007EE700BF06EF000004DD000012170020D5
:1018D000AC16002002010501A81600206EEF0000E2
:1018E00044EF000076EF0000AAEF0000C4EF000014
:1018F0003EF000005CF00000D8F0000081130020F2
:10190000FBF0000094F1000051F10000D7F100005D
:1019100025F2000052F2000074F20000BCF2000058
:10192000EEF2000025F3000063F3000083F60000F0
:1019300001360C2E05F1080598D114200AF0EDFBB4
:101940005A4B01201870637DDBB90020256901F036
:10195000C1F821AB0246C82128460AF0E3FCC822A0
:101960000346C0B105922269514B02930023CDE991
:101970000302CDE900334F49012218460AF0BEFBAD
:101980008CE703210AF0DDFD0146542000F0C0FE83
:101990000028DAD082E70792229A0692BDF88E20BC
:1019A0000592219A0492BDF88C200392424A414943
:1019B0000090CDE9010203220AF0A0FB3F4BBDF8E5
:1019C0008C206A216920FEF763FF00287FF466AF50
:1019D0003B4BBDF88E206C216B20FEF759FF05466E
:1019E00000287FF45BAF0F200AF097FB40F6B83178
:1019F00021A80AF0B6FC50B1324B0390CDE9015357
:101A00002C4900952B46022228460AF077FB2078C5
:101A100000F0B4FF21788046607800F0B9FF3222F0
:101A200041F2883106460AF00CFC054658B1264BB7
:101A300002930023CDE9003303961E490122184684
:101A40000AF05CFB2AE710200AF0C7FC1F4B19497B
:101A500000954FF0100907460322CDE90309CDE9AF
:101A6000015328462B460AF049FB39460F2000F067
:101A70004FFE0123194607462A4618460AF079FD0B
:101A80000146484600F044FE07437FF407AF237841
:101A9000A2792179A0780AF010FD0546D0B10C4B4F
:101AA0000390CDE9017300973B46C6E78113002000
:101AB0007CF3000004DD0000B3F30000F8E7000051
:101AC000FDE70000FBF3000057F40000C5F4000040
:101AD000EBF400002078A77894F806900AF089FBD0
:101AE00049460246384600F0FFFFA17907462079B3
:101AF00001F02EF8A1798146207901F029F8B44B44
:101B000093FBF0F3CDE90493B24BB349039703225F
:101B1000CDE9015328462B4600950AF0EFFAA0784C
:101B200001F00EF8074620780AF068FBC7F11003B1
:101B300000FA03F3CDE90573A84BA7490790CDE957
:101B4000015328462B4600950322CDE903860AF06F
:101B5000D5FA20AB1FAA21786078CDE91F5500F097
:101B60004BFF30460AF059FB07461F980AF055FB19
:101B70003146814640460AF053FB994B0397CDE925
:101B80000153CDE904902B46009528469249032243
:101B90000AF0B4FA934BB3F8447088FB0753002B58
:101BA00004DA4FF6FF72AD1843F100032D0C3046F6
:101BB00045EA03450AF031FB3146A0EB05094046F2
:101BC0000AF02EFBCDE90375281A874B8249029350
:101BD00000252B460322CDE90590CDE90055284686
:101BE0000AF08CFA1F980AF018FB804A804B7A4959
:101BF0000095B0F5485FC8BF134603937D4B0322A1
:101C0000CDE9015328462B460AF078FA637D5BB193
:101C1000FEF7A8FE034638B9774A6F490090CDE930
:101C2000010203220AF06AFA7448754FDFF8D49172
:101C3000FEF788FF0025744B6749029303222B4669
:101C40002846CDE900550AF059FA00F087FE1595AF
:101C5000002D4AD1D9F8003000937B7D3A7DF96898
:101C60006A486B4C5F4D0AF0B1FE00F077FEFFF75B
:101C700077FC012839D07B7D7BB30AF070FA0AF03B
:101C80002FFA94F8233043BB7B7D33B32A6DD317EF
:101C90009B0043EA92739200904271EB03031CDBBA
:101CA000D4E90A2352EA030608D0821A47F23056D2
:101CB00061EB0303B24273F100030EDB554A0023CC
:101CC0000326C4E90A01CDE90132CDE903364249D0
:101CD0000093022218460AF011FA4F480021FEF73D
:101CE0006FFE14200AF019FABFE7159BFA684B48FB
:101CF000013315934A4B159900241C700AF066FEB7
:101D00003B7D022B1AD10120FEF71AFC48B1454B4E
:101D100031490094CDE901430122234620460AF0CF
:101D2000EDF914200AF0F9F93F4B02930023CDE9B5
:101D300000332949032218460AF0E0F93B7D012BC4
:101D400027D0002401208DF89040FEF753FF0AF0C1
:101D5000F4F948B1354B20490094CDE90143012203
:101D6000234620460AF0CAF924A924200AF02FFAB3
:101D7000034670B99DF89020039212F0010121D121
:101D80002B4B0091CDE9011301220B4612490AF0B9
:101D9000B5F9C820FEF790FF034600284ED0C823AF
:101DA0000393244B02930023CDE900330A49012217
:101DB00018460AF0A3F900F0D1FD4FF47A700AF04A
:101DC000ACF9F8E71C4A0090CDE901020322DDE7F7
:101DD00040420F0015F5000004DD00003BF5000057
:101DE00086F50000AC160020D8F500008CEE00004F
:101DF000A3EE00003DF60000A1F60000F7F600009B
:101E000010170020A8160020FCF6000051F7000073
:101E10000814002084F700005BF8000060F8000060
:101E2000C91B00207EF800009DF80000C8F80000E3
:101E300010F90000ACF9000074F900003A7D022AA4
:101E400007D1B84AB8490090CDE9010201220AF051
:101E500055F90AF045F90B46D9F800100191C8214F
:101E600002460091B1480AF0B1FDFA68C72A2BDD9D
:101E7000AF4BB049C82A18BF0B46CDE90423C8238D
:101E800000250393AC4BA849029303222B46284616
:101E9000CDE900550AF032F9F868FEF70DFFFB684E
:101EA000044698B10393A54B9F490095CDE9015392
:101EB00001222B4628460AF021F900F04FFD4FF48D
:101EC0007A700AF02AF9F8E79D4BD6E79D4D9649BE
:101ED0000090CDE903359C4B0322CDE90103034675
:101EE0000AF00CF901231946224618460AF041FB74
:101EF0000146102000F00CFC98B1944B0293002393
:101F00001846CDE90033884901220AF0F7F8C820C5
:101F1000FEF7D2FE00F022FD4FF47A700AF0FDF8D1
:101F2000F8E7FEF71FFD04460028E6D10AF0D8F8CE
:101F300010F57A73139341F100031493844B1B6AD9
:101F4000012BB8BF012303F52F3202F21F32B2FB7F
:101F5000F3F30D933B791693CDE90F010AF0C0F826
:101F60000B46D9F800100391F96802910D990246C9
:101F7000CDE9005177480AF029FD774B6A490122E3
:101F80001A70764B1C70764B1C70764B1C70764B1F
:101F90001C70FB6804930D9B0393744B0094CDE974
:101FA00001430322234620460AF0A8F8A3461294D0
:101FB0000D9B9B4580F0FF8200F0D0FCFFF7D0FA2C
:101FC000012805464FF0000400F01783022800F0B6
:101FD0001783022220A90C20ADF8804000F0D0FB2E
:101FE0000446002800F0CA8000230E930E9B9B44F9
:101FF0000AF076F8139A9042149A0B469341CDE971
:102000001701C0F2BB820025FB683C69119328468A
:10201000ADF88050ADF884508DF879508DF87A5035
:102020008DF87B5000F056FD1199024624AB2046F6
:102030000AF078F90446002840F0E5814FF0020AE2
:102040008046022220A9692000F09AFB0222054660
:1020500021A96B2000F094FB0DF179011A9020204A
:102060000AF0B5F80DF17A01199068200AF0AFF87E
:102070000DF17B01064614200AF0A9F81A9A199B63
:1020800015431D432E43064340F07A819DF881108D
:102090009DF880000AF08BFA9DF8851080469DF827
:1020A00084000AF084FABDF898304345044640F0B5
:1020B0006781BDF89A30834240F062819DF87930A3
:1020C000C52B40F05D819DF87A30012B40F058819E
:1020D000274B32469B79314630460AF054FA9DF838
:1020E0007B30984240F04C819DF87A3002939DF805
:1020F0007930119A0390CDE900431E484346594672
:102100000AF064FC1C483146FEF75AFC144B93F865
:102110000080B8F1000F00F01E8244463546B046FC
:1021200076E100BFDBF9000004DD000083FA000067
:10213000C7EE0000DBEE0000C7FA0000E8FA00007E
:10214000D1EE000020BF020017FB000049FB000099
:10215000AC16002065FB0000CB1B0020CA1B002032
:10216000441900204319002045190020B8FB000045
:1021700010170020DAFD0000980901009DF880206A
:102180009DF88130D10943EA012002F07F061B90BF
:10219000014630460AF02AF9179000283FF424AF90
:1021A00066B11423CDE903636A4B6B490094CDE912
:1021B000014302222346204609F0A0FF0D9B3878F8
:1021C000A3EB0B039BB21A9300F0D8FB397818905D
:1021D000787800F0DDFB002511900E95032221A9EF
:1021E0000E2000F0CDFA044600287FF4FFAE24A9AB
:1021F00021A80AF0C9F8034678B1584B5649009413
:10220000CDE9014302222346204609F077FF179AC1
:102210000135ABB29A42E1D8E8E69DF89220002A57
:1022200070D19DF89180B8F1000FF0D1119A1899F2
:10223000BDF894000AF022F8494B1990B3F8441005
:10224000BDF8940009F0F0FF464BBDF894A01B7850
:10225000044600286CD0834225D0E0070FD51198A2
:1022600009F0DBFF404B3C49CDF80080CDE903A0ED
:10227000CDE9018301224346404609F03FFFA10713
:1022800011D511991898BDF8948009F0C9FF374B02
:1022900002930023CDE90380CDE900332E490122CA
:1022A000184609F02BFF2F4BBDF894A01C709DF829
:1022B00091301C939DF890301D932D4BD3F80080E6
:1022C00008F101021A6009F00BFF1D9BD9F80010FC
:1022D00003931C9B0293199B0496CDE90541199920
:1022E000DB17CDE9001302465346224841460AF067
:1022F0006DFB0E9B01339BB20E930E9A1A9B934279
:1023000085D873E69DF89120FE2A0AD11B9A039284
:10231000194A11490090CDE90102022209F0EEFEAE
:1023200064E624A8FEF74CFA00287FF470AF78E743
:10233000002BB8D0114B0849CDF80CA0CDE9010312
:1023400000900346032209F0D9FEACE74FF0010AE2
:1023500077E600BF07FC000004DD00003BFC000046
:10236000AC160020C91B0020AFFC00002EFD0000B1
:10237000A416002095FD00005DFC00007AFD000021
:10238000012009F0CAFEBAF1010FDFD19DF87B30C0
:1023900005939DF87A3004939DF87930119AB148ED
:1023A000CDF80480CDE90243BDF89A300093594638
:1023B000BDF898300AF00AFBBDF89A30AA49CDE979
:1023C0000643BDF89830CDE90483119B03930025A3
:1023D000A64B029352462B462846CDE9005509F0FC
:1023E0008DFE1FA88DF87C50FEF7D8FA0446002811
:1023F00075D09F4B0095CDE9015352462B469A4923
:10240000184609F07BFE0024264625464FF00108B9
:10241000984B4FF0000AC82083F800A0FEF74CFC50
:10242000FEF7F8FB09F05CFE0B46D9F800100191AD
:10243000C8210246009190480AF0C8FA09F050FEFF
:10244000C8230993129B08930D9BCDF800A0CDE9FA
:1024500006B30F9BC01A109B61EB0301874BCDE9BC
:102460000401CDE901A3504653467F49DFF810A28D
:10247000032209F043FE002D40F0C780002E40F0FB
:10248000C480002C00F0CA807E4B7F4E1A787F4BB0
:10249000002A18BF1E4609F023FE9AF80030039365
:1024A000D9F8003002930F9BC01A109B61EB030117
:1024B000CDE900015A46764831460AF087FA002CE9
:1024C0003FF4C6AB734B02930023CDE9003366495A
:1024D00003960122184609F011FEFFF7B9BB9DF8DB
:1024E0007C306149009003F001020B92C3F340027B
:1024F0000A92C3F380020992C3F3C0020892C3F3A5
:1025000000120792C3F380120692DA09CDE9043271
:10251000614B0393614B0322CDE90103034609F0AC
:10252000EDFD9DF87C305A0709D55D4B4E4900946E
:10253000CDE9014352462346204609F0DFFD9DF8D0
:102540007C309B077FF55FAF564B02930023CDE9AC
:102550000033012253E7544B1C78002C52D1139BBB
:1025600013F57A731393149B139A43F10003149396
:10257000179B9342189B149A9341F0DA0E9B13B960
:10258000129B013312933B79169A934210D00D9A05
:102590003549CDE90432169B0393444B0293002343
:1025A000CDE900331846022209F0A8FD3B791693C5
:1025B0000D9B9B4503D30024264625461EE009F0CB
:1025C0008FFD0F9B3A4AC01A109B61EB0301002359
:1025D000824273EB01010CDA0D9A23490093CDE995
:1025E00003B2344A1846CDE90132012209F086FDD2
:1025F000E1E7142009F091FDDAE42646A04607E75A
:102600000126DAE74646454602E7002C7FF43CAF58
:10261000294E2A4B002D18BF1E463CE7B8F1000F8B
:1026200009D0274B10490094CDE9014301222346EC
:10263000204609F063FD09F053FD9AF8003003933A
:10264000D9F8003002930F9B0D9AC01A109B61EBD2
:102650000301CDE900011B4859460AF0B7F9FFF71D
:10266000F9BA00BF28FE000004DD0000A6FE00004D
:10267000F6FE0000CB1B0020E6000100290101004E
:10268000CA1B002044190020E5EE0000FAEE00000D
:102690007B010100BC01010008FF00001DFF0000DC
:1026A0008BFF0000040001004319002038000100E6
:1026B00030E60200B0000100EDEE0000F2EE000096
:1026C0002E020100910201001FB50D480BF017F812
:1026D00070B90C4B029300231846CDE900330A4928
:1026E000012209F064FD6FF0120005B05DF804FBF3
:1026F00006480BF004F80028EBD00020F5E700BFF7
:10270000A8DA0000D6020100D4DC000070DA000074
:102710002DE9F0418CB007AB089303230025099302
:102720004FF0010808AB06460F468DF81C008DF8E7
:102730001D508DF81E100A93CDF82C800C480D49C1
:1027400083680AAA1C682B46A047044660B10A4B5E
:102750000A490396CDE90470CDE9015300952B4653
:102760004246284609F023FD20460CB0BDE8F08122
:10277000A8DA00009CDD0000F5020100D4DC0000B6
:10278000F0B5074695B0154600292FD072B38023C7
:1027900000268DF81D3007ABCDE90F260C93139260
:1027A00002230CAACDE9082310AACDE90D36CDE904
:1027B0001131CDE90A238DF81C000E480E498368BB
:1027C00008AA1C680AABA047044660B10B4B0C4931
:1027D0000397CDE90450CDE9016300963346012209
:1027E000304609F0E4FC204615B0F0BD6FF015044A
:1027F000F9E700BFA8DA00009CDD00001A03010021
:10280000D4DC000070B54FF0804588B0D5F878353D
:1028100013F001033DD00024434B0293CDE9004463
:10282000424923460122204609F0D4FCC5F87845E8
:102830004FF080420025D2F810353C493C4E23F041
:102840001F0343F00F03C2F810353A4B029328469A
:10285000CDE900552B46032209F0BCFC3648306018
:102860000AF04DFF0346F0B9344A30490090CDE9F3
:102870000102012209F0AEFC6FF01204304B02930A
:102880000023CDE9003329490122184609F0A2FCB2
:1028900026E02C4A25490093CDE90132184603224F
:1028A00009F098FCC4E7284B0FCB04AC84E80F0078
:1028B0003068836821469B68244C98470028206034
:1028C00011DA234B0390CDE90153184900952B46AB
:1028D0000122284609F07EFC2468002CCED1002479
:1028E000204608B070BD3068836802211B68984795
:1028F000044658B1174B0390CDE901530B4900959D
:102900002B460122284609F065FCB7E74EF6602306
:102910000393114B05490090CDE9010303220346BF
:1029200009F058FCDBE700BF46030100ECDC0000C7
:102930002C170020090401008CDA00003904010082
:10294000C6040100CB03010078DD0000C0110020A7
:10295000530401007204010087040100054B18684C
:1029600030B1054B1968002902DB8368DB68184722
:10297000704700BF2C170020C011002005289ABF07
:10298000024B53F820000020704700BFB8DD000064
:1029900010B502460846FFF7F1FF0446501E062810
:1029A00005D8DFE800F0060D16241C1F22000020C9
:1029B00010BD601D0A220023C117FDF7F1FBF7E7E8
:1029C000052000214FF0020C0A220023C4FB0C0159
:1029D000F3E7601CC317400840EAC370E8E744F619
:1029E0003820E5E749F64040E2E70248E0E742F2F6
:1029F0002830DDE7803801002DE9F0410446084623
:102A00001E46FFF7BBFF0546601E1746062805D881
:102A1000DFE800F00C233656494E530000200446F0
:102A200007B13C6006B13060BDE8F0814FF032087C
:102A300009244046002164220023C5FB0401FDF760
:102A4000AFFB642204460023404600214FF00B0CEC
:102A5000C5FB0C01FDF7A4FBE2E74FF0320812249E
:102A60004046002164220023C5FB0401FDF798FBCA
:102A7000642204460023404600214FF0160CE7E78D
:102A80004FF032082D244046002164220023C5FB6C
:102A90000401FDF785FB6422044600234046002123
:102AA0004FF0370CD4E745F2F0504FF47A54B7E7C3
:102AB0004BF2B03048F2D044B2E70448044CAFE7E0
:102AC00042F6F82041F65834AAE700BF486B0100EF
:102AD000B805010003289ABF024B33F9100000200B
:102AE000704700BF94E100000F2819D80A280BD9BD
:102AF0002AB90D480D4B002918BF184670474EF6ED
:102B000063204CF60203F6E73AB9094B094A00295B
:102B100018BF134653F820007047074B074AF6E7E3
:102B20004FF0FF30704700BF8BA903000620030061
:102B3000A0DE000074DE000048DE00001CDE0000A5
:102B40000A289ABF014B185C10207047AB2A01007D
:102B50000F280ED80A2805D9074B0848002918BFA6
:102B60001846704719B1064B53F820007047054BC3
:102B7000FAE74FF0FF307047062003008BA90300EF
:102B800074DE0000F0DD000038B509F087FC154662
:102B90000446084609F08CFC032D84BF0334A408C6
:102BA000A042024607D9041B04480023A4FB0001ED
:102BB000FDF746FB38BD0020FCE700BF40420F0098
:102BC0000A28054B28BF0A2002EB410203EBC00094
:102BD000D2B230F912007047F4E100000A28054B28
:102BE00028BF0A2002EB410203EBC000D2B230F949
:102BF000120070479CE10000002970B52CDD02F046
:102C00000302164B53F82230C0F30B0484FB01403F
:102C1000D917614303FB0015A4FB0341104B53F884
:102C20002200C617330369184FEAC62643EA105339
:102C30004FEA003246EA50564FEAC02005D4201829
:102C400041EB0601FDF7ACFA70BD001B66EB01011C
:102C5000FDF7A6FA4042F7E70020F5E7E0DD0000C7
:102C6000D0DD000010B5074A002312F8334084423B
:102C700002EBC30101D1486810BD01330E2BF4D122
:102C80000148F9E7BCDF00001C0501002DE9F04F09
:102C900095B080460F46154600210F220AA81C4613
:102CA0000AF008FE0023CDE90833002C00F023824F
:102CB000C4E904332380B8F1000F40F02A820023D6
:102CC000C4E90433062309E04046FDF7D3FA7F2820
:102CD00009D924B17F23636120610123238000206F
:102CE00015B0BDE8F08F2C22002128460AF0E2FD45
:102CF0000FCF2E1D0FC697E8070086E8070098F84B
:102D00000030202B4746424608F10108F7D0092B36
:102D1000F5D0002B00F0E881232B00F0E581039231
:102D200012F8013B13F0DF0F01D0092BF7D1039B01
:102D3000B04AA3EB07084146384609F08BFC06462B
:102D4000002840F09981AC4A4146384609F082FC9F
:102D5000002840F09881A94A4146384609F07AFC9B
:102D60008146002840F09181A54A4146384609F045
:102D700071FC0646002840F08A81A24A4146384646
:102D800009F068FC002840F085819F4A414638469A
:102D900009F060FC0646002840F07C819B4A4146D1
:102DA000384609F057FC8146002840F07581984A62
:102DB0004146384609F04EFC0646002840F06E8138
:102DC000944A4146384609F045FC002840F06981A4
:102DD000002C84D00023C4E9043302237EE7197851
:102DE000202998461A4603F10103F8D00929F6D0A4
:102DF000002900F05881039212F8013B13F0DF0F15
:102E000001D0092BF7D1039B834AA3EB080B59464A
:102E1000404609F01FFC074640B101236B70039B3D
:102E20001B78002B00F03F81039BD8E75A463D21D9
:102E30004046FDF765F9049058BBBBF1170F00F24F
:102E400064815A4641460EA80AF026FD0BF1500354
:102E50000DEB030B049B0BF8183C07A90EA809F017
:102E6000AAFB002800F05181B9F1010F08DD002C08
:102E70003FF435AFC4F810900223636105232DE7BA
:102E800014AB03EB8903079A43F8302C09F10109CD
:102E9000C5E7049B0BF1FF3BA3EB0801ABEB010B78
:102EA000002900F03281BBF1000F00F02E813A01C1
:102EB0005A4B05919B5802931A46404609F0CAFBAB
:102EC000D8B901370F2F0599F1D10F2928BF0F214C
:102ED0000D460A46029041460EA80AF0DDFC05F1B7
:102EE00050030DEB0305029B05F8183C0EAA009356
:102EF0000321204609F0D8FBF1E607F150036B44AB
:102F000013F8288CB8F1000F04D00023029A009324
:102F10000421EEE7BAF10F0F06DD002C3FF4DFAE1F
:102F2000C4F810A01023A8E7022FCDF81C8007D109
:102F3000049B3B4A5946581C09F08CFB00283FD1A2
:102F4000BBF1170F04D90023029A00930621D0E7A2
:102F500004995A4601310EA80AF09EFC0BF1500369
:102F60006B444FF0000803F8188C07A90EA809F06D
:102F700022FB03460028E7D0284A079B39010A4470
:102F8000D2E901219A4201DC8B4203DD029A0091D1
:102F90000721AEE7404607F150020DEB0201FFB2F8
:102FA0000122013F01F8282C92440D2F0AD8DFE8B6
:102FB00007F00B0D141618393B434B535557596105
:102FC0004346E8E72B712AE76B7128E710B100232D
:102FD000EB7124E7AB71EA7121E72B721FE76B728B
:102FE0001DE7B3F1000818BF4FF0010885F80A800B
:102FF00015E700BF1E050100240501002905010099
:103000002D050100340501004FE8000038050100DE
:103010003D0501004205010046050100CCDE00002F
:103020004C050100EB72FAE6B3F1000818BF4FF04F
:10303000010885F80C80F2E6B3F1000818BF4FF0E4
:10304000010885F80D80EAE6B3F1000818BF4FF0DB
:10305000010885F80E80E2E62B61E0E66B61DEE6B2
:103060002B76DCE6B3F1000818BF4FF0010885F8B5
:103070001980D4E6AB76D2E6012300264FF0000992
:103080002B70CA46CBE60223F8E70323F6E74E4649
:103090000423F3E70523F1E70623EFE74E46072372
:1030A000ECE70823EAE70EB3B9F1020F04D00223DC
:1030B0000093194A4B4649E7089A052A04D9052383
:1030C00000931346154A63E7099B072B03D9072191
:1030D000134A00910DE76B7101232A710AF1020A6C
:1030E00085F8213085F820A00120F9E5089B6B6266
:1030F000099BAB62F6E7B8F1000F3FF4F0AD002F8B
:103100003FF4EDAD002D7FF4DFAD002C7FF4D7ADA3
:10311000E5E5002FF6D1D2E549E800006C09010091
:1031200051050100F7B50C460546002800F0D18096
:10313000002900F0CE806422002120460AF0BAFB6C
:103140004FF0FF336363EA785AB90193AA7929797A
:10315000287801AB09F0C9F90028A2BF019BA8702B
:103160006363287809F045F806462878FFF706FCDF
:10317000206029786878FFF70BFC606004F10C038D
:103180002978687804F10802FFF736FCA878FFF781
:10319000D7FC2074A87809F081F96061287909F0DA
:1031A00087F9A0613246A979A878FFF79DFCE06114
:1031B000A9792879FFF7CCFC20622A782979A878A8
:1031C000FFF7E2FC6062287809F018F8237CA0621F
:1031D000C3F110039840E062A979A8783246FFF75E
:1031E000EFFC2086A979A8783246FFF7F7FC6086C5
:1031F000606B002805DBA9793246C0B2FFF7EEFC10
:103200002087606809F009F8E063D4E9000109F05B
:1032100007F826682064002E27DD6768002F24DD6C
:10322000F91709043246F317380441EA1741FCF74D
:10323000B7FFAA7DA0FB020302FB0131284B8342AA
:103240004FF000038B4146DBB0F5487F71F100037E
:1032500044DB64220023FCF7A3FFA4F8440086FBB0
:103260000060360C46EA0046A664687D80000021B6
:1032700000F0FC0009F057F9E064A9796879FFF7DC
:1032800067FC20650020D5E90376FFF723FC04F1F5
:10329000540502462B463946304609F043F8626A27
:1032A000104B9A42D4BF0022012284F860204FF4D0
:1032B000FA61284609F055F8A368003818BF0120C4
:1032C000B3F5485FACBF0023012384F8610084F8A4
:1032D000623003B0F0BD40F21F50BEE70820BCE7EB
:1032E0007F000200A0860100F0B587B004460C9D67
:1032F0000E46002D3FD00023C5E904332B80002863
:103300005CD1C5E9043306232B80002007B0F0BD53
:10331000A27909F0D2F840B1B36900937369294AE0
:103320000821284609F0C0F9EFE7D6E900239342C7
:1033300003DD00920921244AF3E7637D3BB1D6E91E
:103340001332934203DD00920A21204AE9E700206C
:10335000D4E90376FFF7BEFB03AB0246394630469D
:1033600008F0E0FF28B123690093E368184A0B21B5
:10337000D7E70120CAE70028C7D00029C5D02378A5
:10338000052B14D86278072A11D8A0780B280ED8FC
:1033900021790A290BD862790A2A08D8E279032A06
:1033A00005D8227D022A02D8A27D322AB0D9002D6A
:1033B000ABD00023C5E904330723A5E70029DED1FC
:1033C0009FE700BF5D09010051050100550501009F
:1033D000EA1D01002DE9F04FAFB0CDE92C23DDE966
:1033E0003D25DDE93B31389C15B109B102B11BB96E
:1033F00000202FB0BDE8F08F3A4D92F803B03A4F5D
:10340000DFF8E8A092F801C091F801E00E7892F898
:10341000028091F80290002C08BF2C4693F82250AD
:103420002A95BBF1000F08BFBA4693F820500F7ED3
:1034300093F821302B9515782897177E2797CF7D05
:103440002697D77D25978F7A2497977A23974F7A57
:103450002297577A21970F7A2097177A1F974F7DD7
:103460001E97577D1D970F7D1C97177D1B97CF7952
:103470001A97D77919970F69189717691797CF680F
:103480001697D76815978F791497977913974F796F
:10349000129757791197097910911279CDE90EA2F7
:1034A00007932B9B06932A9B05939DF8E830049382
:1034B0009DF8E4300E4ACDE902432C9B00932D9BEE
:1034C0000193CDE90ACE0346CDE90856DDE93E0178
:1034D000CDE90C8908F084FB002889DD3F9B9842E8
:1034E00086D286E71C0501004C0501005C05010041
:1034F0006005010030B59DB00446209D18460BB113
:1035000001B112B900201DB030BD92F862301A939B
:1035100092F86130199392F860301893B2F85E30E7
:103520001793B2F85C301693136D1593D36C149304
:10353000936C1393B2F844301293136C1193D36BC2
:103540001093B2F938300F93536B0E93B2F93230B7
:103550000D93B2F930300C93D36A0B93936A0A93AC
:10356000536A0993136A0893D3690793936906937F
:1035700053690593137C0493D36803939368029370
:103580005368019313680093044A2346294608F0C0
:1035900027FB0028B6DDA842B4D2B4E7D806010064
:1035A000F0B589B00446DDE911059DF83C609DF851
:1035B000407010B9002009B0F0BDA6EB070EDEF197
:1035C000000C04969DF838604CEB0E0CCDE900120F
:1035D000CDE90236CDE9057C044A2346294608F0A8
:1035E000FFFA0028E6DDA842E4D2E4E7540801002F
:1035F0002DE9F04F95B0DDE9208692460746DDE9DA
:103600001E429946B8F1000F00D01CB9002015B039
:10361000BDE8F08F0DF1240B002A38D0DFF878C018
:1036200058460021535C0BB1282921D101F15003E8
:103630000DEB03012078002301F82C3CFFF712FB6F
:10364000637833B3621CCDF818B0636905932369BE
:103650000290CDE90323CDE900A9104A3B4631464B
:10366000404608F0BDFA0028D0DDB042CED2CEE709
:10367000A3F10905EDB2172D05D82CFA05F515F0C3
:10368000010F18BF5F2300F8013B0131CAE7114663
:10369000CCE7034AD7E700BF13008000AB08010066
:1036A000A90801002DE9F04F85B0044609F044F95E
:1036B000B0FA80F0C0F11F0004EB8006CD00D6F810
:1036C000109005F1040A0B4606358FB2B9F1000FD0
:1036D0000BD1E268012181400A43E260336124F8A2
:1036E0000A70675305B0BDE8F08F4FEAC90604368B
:1036F00034F806B04FEACB0808F1060834F8083071
:10370000994511D00C4B02930023CDE900331846A4
:103710000A49012209F015F9002383F31188BFF348
:103720006F8F0423184602DF24F80AB024F80590AE
:1037300024F80870A753D5E79C0901001CDD0000A0
:10374000B2F5802F2DE9F8430ED33E493E4A3F485B
:103750004FF4377309F050F93D4809F04DF94FF433
:103760003771394809F03FF9042A0CD83949364AEB
:10377000364840F2E32309F03FF9374809F03CF9B5
:1037800040F2E321EDE7043ACD1D114425F0070591
:1037900021F00706A6EB0508B8F1170F4FEAD80786
:1037A0000CD82E49284A29484FF43B7309F024F9D4
:1037B000294809F021F94FF43B71D2E7B7FA87F4B1
:1037C000C4F12002C4F12404A4000734E408631CFB
:1037D0004FF00009BB420560AF60C5F80C900CD9F2
:1037E0001F49194A194840F2023309F005F91A48ED
:1037F00009F002F940F20231B3E74946920005F1BF
:1038000010000AF057F8A2B2530043F001036B8096
:103810003B1B9BB205EBC4015800A5F80090488003
:1038200025F83420A6F8029025F8083005EBC703E8
:1038300021465A8842F001025A802846BDE8F843E2
:10384000FFF730BF380A0100C0090100FE0901007E
:103850004E0A0100650A0100860A01009F0A010064
:10386000C80A01002DE9F04F91B08407009302F0DF
:1038700004030293C2F3C20303F10103DDF868A05D
:10388000039205460E46059340F0C881041D0028AA
:1038900038D101F00706341DC6F10806009B4FF031
:1038A00000085A1E04274FF0FF330193CDF8108013
:1038B000C146C3463B460DB10099216005980028DA
:1038C00000F3C18094480099814203D39348814218
:1038D000C0F0B980039911F0020CA4EB050040F090
:1038E000CB80B9F10F0F40F2CA808D498D4A8E48C6
:1038F00040F2812309F080F88C4809F07DF840F20D
:103900008121B6E00729C9D86FF01B0011B0BDE8CE
:10391000F08F7A285AD84B280FD8472856D829280C
:103920002DD825284FD051D8202818BF23280CBFC8
:103930004FF0010B4FF0000B6EE04C382E2845D8AD
:10394000DFE800F06A44444444444444444444446A
:1039500047444444444444444454444747545454DE
:103960006A4768446A4418471844447C7A47444488
:1039700047447A0000204FF0000B042734E02A3837
:10398000C0B2012101FA00F010EA0E0F44D110F08C
:10399000625C2BD110EA010B3ED06046013C3C44F6
:1039A000B4FBF7F47C4325B1A3EB050CA444B44568
:1039B000AAD8002800F097800599013905915AF896
:1039C000041B009177E70199013901914FF0000B39
:1039D00022E012F8010C6C2832D112F8023C0020CF
:1039E0006C2B8346C9D108273B46D7E70AF1070A63
:1039F0002AF0070A0734FAE802BC24F0070435B1BC
:103A000006982044B0423FF67FAFC4E900BC0834BA
:103A10004FF0000B08273B4612F8010F002800F07A
:103A20008980BBF1000F7FF474AF2528F4D1019B8E
:103A3000013301934FF0010B0427ECE758469AE756
:103A400000208346AAE7039988072FD5601B4FF013
:103A5000010CB0F5007FFFF444AF3149314A3248E0
:103A60004FF41F7308F0C8FF314808F0C5FF4FF44A
:103A70001F712C4808F0B7FF4FF0000CE9E705B3C1
:103A800009F140010DEB010EC0F3870001990EF81A
:103A9000200C0EF8101CBCF1000F0ED060F07F005F
:103AA0000EF8200C08F1010809F10109C5F108011F
:103AB000043406914FF6DA7EAEE7049801300490A4
:103AC000F2E7BCF1000F01D00136EDE702980236B3
:103AD0000028E9D10098CDE90632FCF7CBFBDDE9FF
:103AE00006320644E0E7042B08D10AF1040015B1C0
:103AF000DAF800102160043482468DE70AF10703EA
:103B000023F0070303F1080A1DB1D3E90001C4E95A
:103B10000001083408237FE7C8D90000E42A010027
:103B200027210100FB0A0100FE0901004A0B0100E8
:103B3000290B0100631BB3F5806F0CD339493A4A56
:103B40003A4840F2D22308F057FF394808F054FFB2
:103B500040F2D2218DE71DB9A6F10804E018D5E6A0
:103B6000029A28609B082B709DF81030BAB1EB7058
:103B700085F80280B8F1000F05D008A80022C5F131
:103B8000010791450DD1C5F1010308AF4FF0000ABF
:103B900001930DF1300BD14512D1601BB6E66B706D
:103BA000E6E710F8013B190608D507EB040CB4450D
:103BB00003F07F033FF6A8AE04F8013B0132E0E7D3
:103BC000B8F1000F03D097F90020002A16DB029B02
:103BD000C3B11AF80B2004F8012B0022019B18191D
:103BE0001044B0423FF690AE387804F8010B0099CB
:103BF0000392204609F050FE039A14440AF1010A88
:103C00000137C8E73A7855F822300093029B45F80F
:103C100022300098FCF72EFB421CDFE76FF00D000E
:103C200074E600BF27210100FB0A0100FE09010024
:103C3000640B0100014B1860704700BFC4110020E5
:103C400080B505460E461746984607F0D3F803465A
:103C500001F04CFDDFF83C90044649F80030424644
:103C600039463046A8470C4B1B7873B90B490C4AB0
:103C70000C4840F2463308F0BFFE0B4808F0BCFE8B
:103C8000074840F2463108F0AEFE54F8090001F052
:103C9000C9FC00BF08000000E31B0020B70B0100B7
:103CA0008C0B0100FE090100CA0B01002DE9F84F41
:103CB00005460846AB8B1907904616D501280CBF60
:103CC00043F0100343F02003AB831435284607F07C
:103CD0001DFB002840F0B181AE49AF4AAF484FF418
:103CE000997308F089FE29469DE0022803F0070138
:103CF00040F07D81284608F08CFE052800F2FA800D
:103D000001A353F820F000BFCB3C0000EF3F0000C0
:103D1000F53E0000993D0000333E0000933E000058
:103D200002F00702531F012B1AD80023062A2E681F
:103D3000A4B2C5E9003309D1334603E0EA8B01326E
:103D4000EA831B68002BF9D144F00204AC832846B7
:103D500008F05FFE002800F05A8144F0200455E18D
:103D6000042A0DD1A4B2AC83284608F052FE0646C0
:103D7000002800F04C8144F02004AC83002646E18A
:103D80008749884A854840F21B1308F035FE40F207
:103D90001B11844808F027FE49B18349814A7F48B6
:103DA0004FF4AB7308F028FE4FF4AB71F1E72B68CA
:103DB0004BB97E497B4A794840F2571308F01CFE04
:103DC00040F25711E5E72B691F684FB97849754AEA
:103DD00072484FF4AD7308F00FFE4FF4AD71D8E7A1
:103DE000AC8B24F0070444F00604A4B2AC830E4666
:103DF0008A464FF00609AB68002B00F00F814FF0A8
:103E0000010B44F00804AC8305F11404204607F0CC
:103E10007DFA002878D15F495F4A60484FF4997372
:103E200008F0EAFD2146634808F0E6FD4FF4997179
:103E30008EE0022909D060495A4A584840F25D1381
:103E400008F0DAFD40F25D11A3E7EE8B4EB15B495D
:103E5000544A52484FF4AF7308F0CEFD4FF4AF719F
:103E600097E72B695F684FB951494E4A4B4840F27A
:103E7000611308F0C1FD40F261118AE7AC8B24F0B8
:103E8000070444F00404A4B2AC83B2464FF0040922
:103E9000B1E7012909D04A49424A40484FF4B27378
:103EA00008F0AAFD4FF4B27173E72B684BB93F4994
:103EB0003C4A3A4840F2651308F09EFD40F2651115
:103EC00067E72B699F684FB93949364A33484FF441
:103ED000B47308F091FD4FF4B4715AE7AC8B24F041
:103EE000070444F00504A4B20026AC83B2464FF0A8
:103EF000050980E72A492B4A284840F26B1308F04D
:103F00007BFD40F26B1144E788F31188BFF36F8F9C
:103F1000BBF1000F1ED1002E33D117B1294928461D
:103F2000B847EFF31188202383F31288BFF36F8F14
:103F3000204607F0DDF900284AD1174A22491748E0
:103F4000842308F059FD2146204808F055FD8421BE
:103F500011481FE7A9680029DDD0D1F800800029A9
:103F6000D9D0D1F804B053464A462846D847B8F1CC
:103F7000000F04D0D8F8003041469846EFE743469A
:103F8000FAE7314653464A462846366808F06DFD42
:103F9000C1E700BFCA0C01009D0C0100FE09010031
:103FA00027210100F70B01001C0C0100280C010067
:103FB0004B0C0100E10C0100620C0100780C0100C7
:103FC000870C010049400000F60C01000B0D0100B8
:103FD000204607F0B1F9AC8B24F00804A4B2AC83FE
:103FE000E20621D524F01003AB8304F00701D5F8D5
:103FF00018A0AA8BBAF1000F22F00704BFF690AE0A
:1040000000232E68C5E9003344F00104AC8304F0BA
:10401000070989454FF000077FF4EDAE0EB9002F78
:10402000DED04FF0000BECE6A3067FF54EAE24F099
:104030002003AB8304F007015CE688F31188BFF32B
:104040006F8FBDE8F88F00BFF8B504460D4600F14C
:104050001406EFF31187202383F31288BFF36F8FC9
:10406000304607F045F968B90C4A0D490D488423DC
:1040700008F0C2FC0C48314608F0BEFC0748842119
:1040800008F0B1FC304607F057F9A5613A462046E2
:104090000121BDE8F840FFF709BE00BF9D0C0100FB
:1040A000F60C0100FE0901000B0D01002DE9F0479F
:1040B00004460E4608F0C9FC051E66DB04F114092F
:1040C000EFF3118A202383F31288BFF36F8F4846E2
:1040D00007F00EF9804660B9374A384938488423DA
:1040E00008F08AFC4946374808F086FC84213248AB
:1040F00043E0484607F020F9E38BA78B4FF6FF72A9
:10410000934207F0070743D0062F2CD8DFE807F0CB
:104110001F43092B1F041F006FF085054FF0000897
:1041200002E00133E3830225484607F0EFF8002858
:1041300034D1214A244922484FF4997308F05CFC99
:104140004946224808F058FC4FF49971CFE7002304
:104150003360636823B9C4E9006687B13D46DDE793
:104160001E606660F9E71A4915481A4A4FF4E4736D
:1041700008F042FC17484FF4E47108F034FC524652
:1041800002212046FFF792FD3D462846BDE8F08714
:104190006FF00A05C2E76FF00405BFE78AF31188E4
:1041A000BFF36F8FB8F1000FEFD000233A463146CE
:1041B000204608F05AFCE8E79D0C0100F60C0100CF
:1041C000FE0901000B0D0100CA0C0100E10C010009
:1041D000870C0100F70B0100F8B5054600F1140645
:1041E000EFF31187202383F31288BFF36F8F3046DC
:1041F00007F07EF860B9264A26492748842308F04C
:10420000FBFB3146254808F0F7FB842120482BE0D2
:10421000304607F091F8AC8B04F00704022C17D05D
:10422000012C0CBF6FF004046FF08504304607F0DA
:104230006DF838BB164A1A4917484FF4997308F0BD
:10424000DBFB3146174808F0D7FB4FF49971DDE7E7
:10425000EB8B5BB914491048144A40F2EF1308F095
:10426000CBFB124840F2EF1108F0BDFB013B9BB2C3
:10427000EB83002BDAD13A4621462846FFF716FD9C
:104280002046F8BD87F31188BFF36F8FF8E700BFB2
:104290009D0C0100F60C0100FE0901000B0D010050
:1042A000CA0C0100E10C0100210D0100F70B010017
:1042B00008B54268816002F00302032A03460AD06F
:1042C0006AB908490848094A452308F095FB074898
:1042D000452108F088FB006800225A6008BD0020D4
:1042E000FAE700BF27210100FE0901002F0D0100A0
:1042F00008B558B907490848084A40F2351308F08C
:104300007BFB064840F2351108F06DFB4368587995
:1043100008BD00BF8D0D0100FE090100550D010013
:1043200010B548B908490948094AA02308F064FBB8
:104330000748A02108F057FB03681B6913B1BDE8CB
:1043400010401847184610BD8D0D0100FE090100F0
:10435000550D01002DE9F84FDFF8ECA0DFF8EC80F7
:10436000AAEB08038F2B81460F460BD93849394AEF
:10437000394840F2531308F03FFB40F253113548DF
:1043800008F031FB354808F0AFFB064650B3BDE8F6
:10439000F88F237B8BB12368DB680BB120469847ED
:1043A0006368204683F806B0FFF7BAFFB0B96368C8
:1043B00004221968204608F0BCFB0136103454452D
:1043C00015D92749234A244840F25F1308F014FB0B
:1043D000244808F011FB40F25F11D0E70BFA06F316
:1043E0001D43EAE7444605464FF0010BE7E7D0D30B
:1043F000B9F1000FCBD04FF00109002DC7D02E46E8
:1044000095FAA5F4B4FA84F409FA04F308EB041459
:104410006FEA030A25EA0305237B5BB12046FFF719
:104420007FFF38B9636804221968204606EA0A0645
:1044300008F07FFB002DE3D127B14FF4A4700021D9
:1044400006F04EFC3546D8E75CDD00004CDD000090
:10445000D10D0100A40D0100FE0901003817002054
:10446000010E0100220E0100014B53F8200070479D
:104470002CE0000008B5034608462BB1044A13603F
:1044800000F0D4FA002008BD6FF01500FBE700BF74
:10449000C8110020144A1548002310B51370144A9F
:1044A0001360144A4FF400411360FFF7E3FF124B0F
:1044B000124918468B4215D91149124A124840F246
:1044C0002B1308F099FA114808F096FA0D4840F2BB
:1044D0002B1108F088FA1A1A5C6812110132227145
:1044E0001033E7E7F7D310BDCC1B0020E5CA00006E
:1044F00030170020341700204CDD00005CDD000088
:10450000010E0100A40D0100FE090100220E0100B0
:1045100070B5134D297811BB0120FFF71BFF114C1B
:10452000114EB44218D91149114A124840F2CF1322
:1045300008F062FA104808F05FFA0D4840F2CF1117
:1045400008F051FA2046FFF7D3FE18B12368204641
:104550009B6898471034E4E7F4D301232B7070BDB7
:10456000CC1B00204CDD00005CDD0000010E0100D2
:10457000A40D0100FE090100220E010010B5044641
:10458000084808F0B1FA5CB1BFF35B8F064B53E803
:10459000001F013943E80012002AF8D1BFF35B8FF6
:1045A00010BD00BF301700203417002070B5124B2B
:1045B000124C1B68124E05469847A860B44219D9A0
:1045C0001049114A114840F20A2308F015FA104820
:1045D00008F012FA0C4840F20A2108F004FA2046CA
:1045E000FFF786FE20B1236829461B6820469847BE
:1045F0001034E3E7F3D370BDC81100204CDD000098
:104600005CDD0000010E0100A40D0100FE090100A7
:10461000220E0100044A054B9B1AB1EBD30F34BFA5
:1046200052F8310000207047D4DC00004CDD00005F
:104630002DE9F04F87B004AFD7E90EBA3E6B0546BF
:10464000884614469946BBF1000F2CD0C7F804A049
:10465000CDF800A07A6B5B4610210020FFF702F92D
:1046600000280BDA29492A4A2A484FF4B47308F083
:10467000C3F94FF4B471264808F0B5F9B0F5006FEE
:10468000014612D340F2FF730393234B029300239E
:10469000CDE9003321490222184608F06CFA0C37A4
:1046A000BD46BDE8F08F5946584604F0070205F0B4
:1046B0000704E40044EA821444EA402444EA06542D
:1046C00017360E4426F00706ADEB060D04ADBBF120
:1046D000000F13D0CDF800A07A6B5B4605F11000F7
:1046E000FFF7C0F8002809DA0849094A094840F2EA
:1046F0008D1308F081F940F28D11BCE74B4622463C
:104700004146284608F01EFAC9E700BF7A0E0100AC
:104710004E0E0100FE090100840E0100F4DC0000D1
:10472000406820B1034BC01A40F3CF0070474FF0F0
:10473000FF307047D4DC00000EB403B503AB014674
:1047400053F8042B0448019301F0F6F902B05DF828
:1047500004EB03B0704700BFB3CB0000CA0605D41A
:104760008B064CBF02490349FFF7E6BF704700BF05
:10477000F5230100BC0E01002DE9F04F87B004467F
:104780009DF84880DDF850A0169F04920D4699468A
:10479000B8F1000F00F0A180B8F1040F0BD98B49DC
:1047A0008B4A8C484FF4157308F026F94FF41571B5
:1047B000874808F018F907F48073059308F0B7F9F3
:1047C00007F0020B0246002856D083492046FFF727
:1047D000B3FF0646BBF1000F08D017F0440F4DD1D0
:1047E0007E492A462046FFF7A7FF064407F001034B
:1047F00053B17B4B7B4953F828207B4B2046002A42
:1048000008BF1A46FFF798FF07F48073002B07F0E4
:10481000080318BF4FF00009002B5BD0734B74499D
:1048200053F828202046FFF787FF0546049B2BB14D
:1048300070491A462046FFF77FFF0544B9F1000F83
:1048400005D06D494A462046FFF776FF05446B4880
:104850003544139B002B46D06949224608F081F865
:10486000002840DA67495A4A5A4840F2B12308F012
:10487000C3F840F2B1219BE70646ABE7624B1868EC
:104880000028B2D0614B4FF47A7B1B68B5FBF3F57F
:104890004FF46163B5FBF0F100FB11550BFB05F51F
:1048A0004FF03C0CB1FBF3F203FB1211B5FBF0FE31
:1048B000B1FBFCF300FB1E550CFB13110BFB05F5C4
:1048C0000091B5FBF0F55249CDE901E52046FFF72F
:1048D00033FF8AE707F00805A8E7012B0CBF47481C
:1048E0004C484546B5E7159B002B54D0DDF8549055
:1048F0003946B9F1100F204628BF4FF01009FFF7D5
:104900002DFF0026B54218DC002633461AF8032096
:1049100041492046FFF710FF0136102E13D07107D2
:1049200003D13E492046FFF707FFB1453346EDD896
:104930003B492046FFF700FFEEE738492046FFF7E6
:10494000FBFE0136DEE7374920460026FFF7F4FE7E
:1049500033461AF803203449A2F120035F2B28BF05
:104960002E222046FFF7E8FE0136102E0DD07207EA
:1049700003D12A492046FFF7DFFEB1453346E8D888
:1049800026492046FFF7D8FEEEE7159BB3EB090357
:10499000CA441593AAD1B8F1000F0AD0FB0704D579
:1049A000114A10492046FFF7C7FE39462046FFF757
:1049B000D5FE6268A1682068D2E9002308F0EBF810
:1049C000636800221A6007B0BDE8F08FF30E0100A3
:1049D000C40E0100FE090100FE0E0100020F0100DD
:1049E0003CE000000B1B0100BF0E010050E0000086
:1049F000270F01002D0F0100310F0100B3CB000084
:104A0000395B0000360F0100401700203C170020E2
:104A10000B0F0100CFCB00003F0F0100470F01003B
:104A2000450F0100490F01004B0F0100074A00210B
:104A30000123904206D8064A01B901231360054BB1
:104A40001860704740085B000121F2E740420F0008
:104A50003C17002040170020014B01221A707047BC
:104A6000CD1B0020014B0020196070475817002013
:104A700010B5064B18680C46FFF7F6FC21460346B6
:104A8000BDE8104002480F22184700BF5817002009
:104A900080E00000F8B5094D094B0A4ED5E9004702
:104AA00001221A700CB92C60F8BD214630463A46F6
:104AB00000F00AF8241A0644F4E700BF4C1700205F
:104AC000CE1B0020CF1B0020F8B5194D07460E461F
:104AD000042432463946002004F0A2F9C8B101236B
:104AE0002B70144B1B782BB93046F8BD5CB92C7079
:104AF0004FF0FF34002004F023FA0028F4D02B7884
:104B0000002BF3D1F0E7013C41F2883008F0F3FDCF
:104B1000F0E72B7813B1013C04D12C702B78002BDB
:104B2000D7D1E1E741F2883008F0E5FDF6E700BFB4
:104B3000CD1B0020CE1B0020014B036000207047DE
:104B400090E0000008B5044807F040FF034807F074
:104B50003DFF002008BD00BF7E0F0100B30F010024
:104B600008B50348034A0021121A08F074F808BD7A
:104B7000D0130020E81B00200748084A084908B560
:104B8000121A08F06AF80748074A0849BDE80840C1
:104B9000121A08F062B800BFC0110020D013002024
:104BA000FC2A0100A8110020C0110020E42A010005
:104BB00070B5064686B00D46002938D08B6805933F
:104BC0004B6804930B6803930024244B24490293FD
:104BD000012223462046CDE9004408F040F86B69E5
:104BE00005932B690493EB6803931E4B1C490094B7
:104BF000CDE9014301222346204608F030F8EB6955
:104C00000393194B16490094CDE901430122234631
:104C1000204608F024F8AB690393144B1049009424
:104C2000CDE9014301222346204608F018F8012E61
:104C30000DD1EFF30583103B03930D4B029300233B
:104C4000CDE9003306493246184608F008F82946EF
:104C5000304606B0BDE8704004F0D8B9E00F01005E
:104C600014DD00000F1001003E1001004D10010086
:104C70007B10010030BFFFF7FDBF00BF2DE9F04101
:104C80000B4EDFF8308006EB0807CC1B054632469A
:104C90000949204608F000FEA01942460021083CC0
:104CA00008F008FE2C6707F10800BDE8F08100BF9E
:104CB00000000000040000005CDD00002DE9F0436E
:104CC00085B00024564B0293CDE90044234680462C
:104CD0008946204653491646012207F0DBFF524B16
:104CE0009B6AD80640D5514B0094CDE9014320463C
:104CF00023464C49012207F0CDFF11244A4B9B6A01
:104D000019070AD54A4B02930023CDE900334549E0
:104D10000122184607F0BEFF1224434DAB6A9A07E2
:104D200024D50024434B0293CDE9004423463D495A
:104D30000122204607F0AEFF6F6BAB6A1B0659D508
:104D40003D4B38490397CDE90143009423460122A6
:104D5000204607F09FFFB9F1000F03D0AB6A23F0A4
:104D60008003AB62132403E01024C7E76FF015073C
:104D70002D4B9B6AD8070AD5304B02930023CDE90F
:104D8000003328490122184607F084FF1424264BDB
:104D90009B6A99060AD52A4B02930023CDE900337A
:104DA00020490122184607F075FF15241E4DAB6AF5
:104DB000DA0602D4AB6A9B070AD56B68180507D5DB
:104DC0004146384600F0E4FBB8B180F3098802247C
:104DD000154B9A6A920642BF5A6A22F400525A62EE
:104DE0009A6A42F0FF029A6220460023337005B0AF
:104DF000BDE8F0836FF01507B4E7AB6AD906E7D5D5
:104E00001049114A114840F2271307F0F5FD1048E8
:104E100007F0F2FD0C4840F2271107F0E4FD00BF57
:104E20008E10010014DD000000ED00E0A410010070
:104E3000D7100100EA100100021101001811010051
:104E4000371101009811010066110100FE090100EF
:104E5000E21101001FB50024374B029301222346C3
:104E6000CDE900443549204607F014FF344B9B6AD6
:104E70009A015ED5334B31490094CDE90143204678
:104E80002346012207F006FF1E202D4B9B6ADB0103
:104E90000AD52D4B029300231846CDE9003327494C
:104EA000012207F0F7FE1F20254B9B6A1C030AD541
:104EB000264B029300231846CDE900331F490122F7
:104EC00007F0E8FE21201E4B9B6A59030AD5204BB0
:104ED000029300231846CDE900331849012207F058
:104EE000D9FE2220164B9B6A9A030AD5194B0293CE
:104EF00000231846CDE900331049012207F0CAFE0D
:104F000023200F4B9B6ADB030AD5134B029300232C
:104F10001846CDE900330949012207F0BBFE2420E1
:104F2000074A936A6FEA03436FEA1343936204B03C
:104F300010BD1D20A9E700BF0512010014DD00000F
:104F400000ED00E01D120100301201004A120100C4
:104F5000681201008D120100A7120100F0B585B0A2
:104F60000024434B0293CDE90044234607460E46F6
:104F700001224049204607F08DFE3F4B9B6ADB042F
:104F800065D53E4B3B490094CDE90143204623467D
:104F9000012207F07FFE1720374B9B6A1D050AD5BB
:104FA000374B029300231846CDE9003331490122E3
:104FB00007F070FE1820304DAB6A9C051FD5002409
:104FC000304B0293012223462046CDE90044294973
:104FD00007F060FEAB6BAA6A10040FD503932A4B4F
:104FE00024490094CDE9014301222346204607F0DD
:104FF00051FE1FB1AB6A23F40043AB6219201E4B74
:105000009B6A59050AD5214B029300231846CDE926
:1050100000331849012207F03DFE1A20164A936A10
:1050200013F4807315D01A4B029300231846CDE970
:1050300000331049012207F02DFE1B200E4A936A0F
:1050400043F47F4393620023337005B0F0BD162014
:10505000A2E7926A9204F1D50E4A06490093CDE97F
:1050600001321846012207F015FE1C20E6E700BFBA
:10507000D212010014DD000000ED00E0E812010092
:10508000D7100100F91201001213010027130100CB
:1050900042130100371101002DE9F0418D4B044608
:1050A000586890B0C0F30806002383F31188BFF35B
:1050B0006F8F02F07F45B5F17F4F0CD102F00C05E8
:1050C000082D17D1844A85490093CDE9013218464D
:1050D000012207F0DFFD8249824A834840F21B43E8
:1050E00007F08AFC814807F087FC40F21B417D48AD
:1050F00007F079FC120746BF0C461D460125002C1F
:10510000E9D00027F31E8DF81F70092B00F2CA802A
:10511000DFE803F005BEC2A1C8C8C8C8C8C6744B42
:105120006E49DFF8B0810097CDE9017300230122B9
:10513000184607F0AFFD8DF81F70D8F82C6016F0F8
:10514000020604D06B4B0097CDE9017307E0D8F855
:105150002C30002B0BDA684B0096CDE9016300235D
:105160005E490122184607F095FD002239E0D8F883
:105170002C305B007FD5614B58490096CDE9016327
:1051800001223346304607F085FDD8F81430A26975
:1051900043F48073C8F81430BFF34F8FBFF36F8FA1
:1051A00032F8023CD8F8142022F48072C8F8142097
:1051B000BFF34F8FBFF36F8F03F47F42B2F55F4FA2
:1051C0002FD1DBB2022B2CD1236803934C4B4349E4
:1051D0000096CDE9016301223346304607F05AFDBF
:1051E00022689DF81F30CBB908AE04F12007206873
:1051F0006168334603C30834BC421E46F7D10F9B97
:10520000002D63D0C3F3080121B96FEA53236FEA7D
:1052100043230F9308A91046FFF7CAFC10B0BDE85E
:10522000F0812C4B9A6AD2B23AB10DF11F020121E2
:105230002046FFF743FD0246D3E79A6A12F47F4FF8
:1052400005D00DF11F010120FFF788FEF3E79B6AEF
:10525000B3F5803F02D3FFF7FDFDECE72949214A72
:10526000214840F2ED2307F0C7FB274807F0C4FBB5
:1052700040F2ED213BE723491A4A1B484FF43C73A7
:1052800007F0BAFB214807F0B7FB4FF43C712EE75B
:105290000DF11F020021CBE70DF11F010020D3E724
:1052A0001B4B50E71B4A1C4B0C4910F4F87F08BFFE
:1052B0001346103ECDE90336184B02930023CDE987
:1052C00000330122184607F0E5FC4EE76FF30803B0
:1052D0009FE700BF00ED00E08813010014DD00002F
:1052E000B313010066110100FE090100C61301009D
:1052F000041401001B1401003C1401004A140100B5
:10530000691401002721010085140100A91401007E
:10531000D91401005A1301006F130100FD1401009C
:10532000044B5A6942F010025A615A6922F008028D
:105330005A61704700ED00E0EFF30880EFF3098158
:1053400001B57246FFF7A8FE01BD00BF002080F343
:105350001488BFF36F8F0F4880F3088802F0D2F8EB
:1053600000200D490860BFF34F8F00F02BF820207C
:1053700080F3118809484FF40461401880F30988CC
:10538000EFF314800221084380F31488BFF36F8F7A
:1053900000F0CEF8C035002094ED00E0001C0020A5
:1053A0000749D1F890200023C2F307221846934200
:1053B00000DB7047C1F89830C1F8A0000133F6E770
:1053C00000ED00E008B572B6002383F31388FFF701
:1053D000E7FF144B4FF0FF32C3F88020C3F884205E
:1053E000C3F88820C3F88C20C3F89020C3F8942019
:1053F000C3F89820C3F89C20C3F88021C3F8842107
:10540000C3F88821C3F88C21C3F89021C3F89421F4
:10541000C3F89821C3F89C2162B6BFF34F8FBFF346
:105420006F8F08BD00E100E01EF0040F0CBFEFF32A
:105430000880EFF30980816911F8021C0229FFD06E
:1054400001B5724607F01BFC01BD00BF40B2002849
:1054500007DB044A4109012300F01F00834042F8A2
:105460002130704700E100E040B200280CDB430926
:10547000064900F01F0020330122824041F823201A
:10548000BFF34F8FBFF36F8F704700BF00E100E0A5
:10549000054B420900F01F0053F82220012303FAB4
:1054A00000F01040704700BF00E100E038B54B1C31
:1054B000072B04460D460FD9114A124912486B2397
:1054C00007F09AFA114829460723224607F094FA72
:1054D0000B486B2107F087FA40B20028ACBF00F1FF
:1054E00060400B4A4FEA4313B8BF00F00F00DBB235
:1054F000AABF00F56140135480F8003338BD00BFE7
:105500001015010047150100FE0901006215010098
:1055100014ED00E0044B054A23F07F039360BFF3D2
:105520004F8FBFF36F8F70470000000000ED00E069
:1055300008B5FFF7EFFF074AD2F8883023F470036D
:10554000C2F88830FFF70CFBFFF716FB00F0B0F84D
:1055500003F0ACFE00ED00E042F8203C009B42F876
:105560001C3C0A49019B42F8183C029B42F8143C3F
:1055700021F001014FF0807342F8043C42F8081C0E
:105580000023203A02654367704700BF413C00009A
:10559000094A0346906870B113F1160F006E05D0EA
:1055A000A0F14002934205D3834203D2814228BF37
:1055B00000207047002070477418002008B5154679
:1055C0000B4A0C4B9060026F1A600E4600F0A0F878
:1055D0002C4686F309880020034B9847204600217B
:1055E00000220023014C2047C3CC0000413C0000B6
:1055F000741800205C170020014B10221A617047BC
:1056000000ED00E0054B5A699B689A421FBF044AAF
:10561000536843F080535360704700BF74180020F4
:1056200000ED00E0084B9B6883420BD1EFF305834C
:1056300043B1064B5A6842F080525A605A6A22F4CB
:1056400000425A6205F0DCBB7418002000ED00E057
:1056500014498A684FF030001044EFF3098C80E859
:10566000F01F202080F31288BFF36F8F0E4F4FF092
:1056700000664A698A603E60106F0C4C2060506F73
:105680000023536780F3118804B5104600F040F8FA
:10569000BDE8044002F1300090E8F01F8CF3098867
:1056A000704700007418002004ED00E05C17002033
:1056B000044800232021C2180133302B82F8001344
:1056C000F9D1704700E100E008B5EFF30583064A21
:1056D000103B02EBC30152F8330049688847BDE82C
:1056E0000840FFF78FBF00BFE0DA00000148006804
:1056F000704700005C170020024B034A0348012159
:1057000000F096B8000002200000002090E00000A9
:10571000036E054A403B1360044B4021C2E901136C
:105720001046012100F0AAB86017002000000B15F8
:105730001FB5144AD2F89030C3F30723013B9842B7
:105740000FD9114B029300230390CDE90033184683
:105750000E49012207F0E8FA6FF0150005B05DF878
:1057600004FBC2F898000B6823F01F03034343F0C7
:105770001003C2F89C308B6843F00103C2F8A030DC
:10578000ECE700BF00ED00E0A61501000CDD000015
:10579000F0B50E4689B01F4604460025B54212DA20
:1057A000606838B3BFB1431E18420FD0134B029349
:1057B0000023CDE90033124903950122184607F072
:1057C000B3FA6FF01502104609B0F0BD1F28EDD9ED
:1057D00021680B42EAD12368059307F095FAA36884
:1057E00005A90343D0B20793FFF7A2FF10F1160FEC
:1057F000E7D0421C01350C34D0E700BFCC150100C6
:105800000CDD0000044B0522C3F89420BFF34F8F3A
:10581000BFF36F8F704700BF00ED00E0BFF35F8FF5
:10582000024B0022C3F89420704700BF00ED00E057
:1058300038B50D4D01232A780C46FFF7A9FF2870D3
:1058400016300FD1094A0A490A4840F2891307F075
:10585000D3F80948214607F0CFF8044840F28911EF
:1058600007F0C1F838BD00BFD01B0020F2150100C1
:1058700027210100FE0901002116010010B5144A7C
:10588000002312780C46FFF783FF10F1160F08D0A3
:10589000104A0021D2F89030C3F30723984210DB5E
:1058A00010BD0D4A0D490E484FF4D47307F0A4F80B
:1058B0000C48214607F0A0F807484FF4D47107F0D0
:1058C00092F8C2F89800C2F8A0100130E2E700BFD9
:1058D000D01B002000ED00E0F2150100272101009F
:1058E000FE0901004D1601002DE9F04F834C84495B
:1058F000D4F890300D68C3F307239D4285B013D9C7
:10590000804A8149814840F2022307F075F8D4F8B3
:1059100090207F482946C2F3072207F06DF840F235
:105920000221784807F05FF8FFF778FF4968002206
:10593000954201F10C012DD1764F774C3D706846B0
:10594000FFF7FAF8754D764E81464FF00008C145D5
:1059500033D13B7869490020D1F89020C2F3072267
:105960009342C0F2C180FFF74DFFD1F8903003F4AD
:105970007F43B3F5006F00F0BD806A49614A634818
:1059800040F27D2307F038F8674807F035F840F219
:105990007D21C6E7C4F8982051F80C3C23F01F0382
:1059A000134343F01003C4F89C3051F8043C43F017
:1059B0000103C4F8A0300132BAE7009A02EB0813E1
:1059C0004FEA0811D3F80CA00AEA0400B0F5000F62
:1059D00066D00BD8B0F5001F3CD0B0F5800F52D088
:1059E000B0F5801F16D008F10108B0E7B0F1007FD4
:1059F00061D0B0F1805F69D0B0F1807FF3D1986859
:105A0000D3F804A0525807F07FF9CDE901A240F085
:105A100088700BE09868D3F804A0525807F074F926
:105A2000CDE901A240F0885040F43020039038784E
:105A300001A9FFF77DFE002852DA3349314A334885
:105A400040F2352306F0D8FF384806F0D5FF40F283
:105A5000352166E79868D3F804B0525807F054F936
:105A60001AF0010F40EA0600CDE901B20390DED042
:105A70002F49244A2548842306F0BEFF2D4806F00E
:105A8000BBFF84214DE79868D3F804A0525807F073
:105A90003BF940F0C060CDE901A240F40030C5E719
:105AA0009868D3F804A0525807F02EF9CDE901A266
:105AB00040F08270BAE79868D3F804A0525807F013
:105AC00023F9CDE901A240F48020AFE79868D3F82C
:105AD00004A0525807F018F9CDE901A22843A5E720
